S01000007363626F756E64312E73726563F5
S113000045C0000060C000005EC000005CC000008D
S11300105AC0000058C0000056C0000054C0000080
S113002052C0000050C000004EC000004CC0000090
S11300304AC0000082C1000046C0000044C0000065
S113004042C0000040C000003EC000003CC00000B0
S11300503AC0000038C0000036C0000034C00000C0
S113006032C0000030C000002EC000002CC00000D0
S11300702AC0000028C0000026C0000024C00000E0
S113008022C0000020C000001EC0000011241FBEBA
S1130090CFEFD0E4DEBFCDBF11E0A0E0B1E0EEE3EE
S11300A0FEE000E00BBF02C007900D92A235B1073D
S11300B0D9F721E0A2E5B1E001C01D92A039B20751
S11300C0E1F757D2BAC69CCF813081F0E1ECF0E081
S11300D0808188618083E2ECF0E0808186608083A7
S11300E083E38093C4001092C5000895E9ECF0E026
S11300F0808188618083EAECF0E08081866080837F
S113010083E38093CC001092CD000895613041F0D8
S1130110E0ECF0E0908195FFFDCF8093C600089558
S1130120E8ECF0E0908195FFFDCF8093CE00089538
S1130130813041F0E0ECF0E080818823ECF780919D
S1130140C6000895E8ECF0E080818823ECF7809104
S1130150CE0008958FEE88B90000309B29C0319BF2
S113016029C0329B29C0339B29C08FED88B9000078
S1130170309B26C0319B26C0329B26C0339B26C0B1
S11301808FEB88B90000309B23C0319B23C0329B86
S113019023C0339B23C08FE788B90000309B20C065
S11301A0319B20C0329B20C0339B20C080E0089547
S11301B081E3089584E3089587E308958AE2089526
S11301C082E3089585E3089588E3089580E308951C
S11301D083E3089586E3089589E3089583E2089507
S11301E081E4089582E4089583E4089584E40895FD
S11301F0E7E5F1E01182108281E090E0A0E0B0E058
S113020082839383A483B58386839783A087B187EE
S113021081E995E0938782871586148684E190E0CE
S1130220A0E0B0E086879787A08BB18B128A138AEF
S1130230148A158A25E432E0378B268B118E108EB2
S1130240828F938FA48FB58F868F978FA0A3B1A32E
S113025029E133E033A322A315A214A286A397A312
S1130260A0A7B1A782A793A7A4A7B5A78AEC93E0F8
S113027097A786A708958BE0809381008DE790E08F
S1130280909389008093880082E080936F0010929D
S11302908500109284008091000190910101A09149
S11302A00201B09103018093530190935401A093F0
S11302B05501B09356018FB780688FBF0895EF92B0
S11302C0FF920F931F93CF93DF93C7E5D1E00F2ED7
S11302D0F7E8EF2EF1E0FF2EF02D8E014E815F81C5
S11302E0688579858A819B81AC81BD8148175907CE
S11302F06A077B0758F0EA85FB858881998109950F
S1130300998388831E821F8218861986F801868144
S11303109781A085B1850196A11DB11D8683978320
S1130320A087B1872C96CE15DF05B9F6DF91CF9162
S11303301F910F91FF90EF9008951F920F920FB6A7
S11303400F9211240BB60F922F933F934F935F9309
S11303506F937F938F939F93AF93BF93EF93FF9389
S11303608091530190915401A0915501B09156018F
S11303700197A109B1098093530190935401A0936B
S11303805501B0935601892B8A2B8B2B89F497DF67
S11303908091000190910101A0910201B0910301AB
S11303A08093530190935401A0935501B093560147
S11303B0FF91EF91BF91AF919F918F917F916F9139
S11303C05F914F913F912F910F900BBE0F900FBEF5
S11303D00F901F901895181619065CF008950000E8
S11303E021503109E1F74F5F5F4F4817590729F44E
S11303F0089540E050E077E063E0272F362FEFCFF9
S1130400289882B9299A0000299882E090E0E3CFE5
S1130410089581E0F5CF0895813118F48158F0CF23
S113042008958155EDCF089584E690E0D4DF88E304
S1130430E7DF86E0E5DF8FE0E3DF81E0E1DF8AE00C
S113044090E0C9CF0895289A82B9299A0000299882
S113045081E090E0C0CF08950F931F93CF93DF9373
S1130460182FEB01D6DF8881882351F001E0010FBA
S1130470812FD2DF8991E7DF102F88818111F6CF98
S1130480DF91CF911F910F91089581309105E9F08B
S11304901CF4009751F008958230910509F449C085
S11304A08430910509F456C0089510928E0181E0BC
S11304B080938C0110928D01B7DFABDF64E071E0B3
S11304C081E0CADF81E090E0089520918E0122232B
S11304D031F19FDF81E0A0DF8CE4B5DF85E6B3DF97
S11304E086E7B1DF85E6AFDF8CE6ADDF8AE3ABDF1D
S11304F081E3A9DF80E2A7DF80E2A5DF8CE4A3DF4C
S113050089E6A1DF86E79FDF85E69DDF83E79BDF42
S11305108AE399DF83E397DF82E090E008952091F6
S11305208D01211123C021E020938C0110928D01B3
S1130530089520918E0121111BC081E080938C01CC
S113054010928D0166DF65E071E081E085DF81E076
S113055090E0089520918D0121110AC05ADF65E0D1
S113056071E081E079DF81E090E0089584E090E03B
S1130570089580EF87B98FE088B98FEF81B912B8F9
S113058084B915B880E0A0DD33DE8AE090E0A0E015
S1130590B0E08093000190930101A0930201B09315
S11305A003018093530190935401A0935501B09398
S11305B0560161DEFFCFCF93C82F8A30A8F1843172
S11305C020F4CA5081E33FDF2FC08E3120F4C451A0
S11305D082E339DF29C0883220F4CE5183E333DF4C
S11305E023C0823320F4C85284E32DDF1DC08C3332
S11305F020F4C25385E327DF17C0863420F4CC539C
S113060086E321DF11C0803520F4C65487E31BDF65
S11306100BC08A3520F4C05588E315DF05C0843645
S113062018F4CA5589E30FDF80E38C0F0CDFCF91F8
S113063008958130910561F024F4009709F4A7C06E
S113064024C08230910581F083309105B1F01DC042
S113065080918E01882309F49AC083E080938B01F2
S113066081E08093880119C080918E01882309F468
S11306708EC0823009F477C010C080918E01811140
S113068072C081E080938C0182C08230910529F090
S11306908330910509F07DC066C08091C000882335
S11306A00CF04BC080E044DD811122C080918B01AD
S11306B0882309F442C0815080938B0180E1ACDE31
S11306C080918B01805DBFDE80918B01811135C0EB
S11306D082E080938E01E0ECF0E0808185FFFDCF25
S11306E060E085E013DD60E271E081E0B5DE25C005
S11306F08233C1F4809188018F5F80938801809157
S11307008B018930D0F48F5F80938B0187E084DE86
S11307108091880150DF80E17FDE80918B01805DD4
S113072092DE0BC0893649F482E080938E0181E029
S113073073DE6EE271E081E08FDE809189018823AF
S113074001F110928E0181E080938C01E0ECF0E0E5
S1130750808185FFFDCF60E085E0D8DC10928901BF
S113076082E090E0089580918901882369F01092D5
S11307708E0181E080938C011092890183E090E0E6
S1130780089582E090E0089583E090E0089581E088
S113079090E00895CF9382309105E9F03CF40097FE
S11307A009F417C18130910541F038C083309105B7
S11307B0F9F08430910539F131C020918D01222363
S11307C009F427C12130B1F1223009F47FC023306C
S11307D009F01FC1E8C080918D01882309F4FCC091
S11307E0813041F1823009F471C0833019F5DBC0E6
S11307F080918D01882309F4F2C08130D9F08330CF
S113080009F4D1C063C080918D01882309F4EAC042
S1130810813081F0823009F0C6C058C08330910520
S113082009F454C08430910509F4BDC082309105A7
S113083009F0EFC080918901882379F010928D012D
S113084081E080938C01E0ECF0E0808185FFFDCFB6
S113085060E087E05BDC109289018091C00088230E
S11308600CF0C3C080E064DCC82F882344F0D1DDE1
S11308706BE371E081E0F0DD81E08C0F9CDE809120
S1130880C00088230CF0B4C080E052DCC82F882359
S11308900CF0B1C082E1C0DD80E5D5DD81E6D3DDB9
S11308A084E7D1DD84E7CFDD85E6CDDD82E7CBDDEE
S11308B08EE6C9DD83E7C7DD8AE3C5DD80E2C3DDFB
S11308C08C2F8F7778DE82E090E0A3C0809189013D
S11308D0882379F010928D0181E080938C01E0EC03
S11308E0F0E0808185FFFDCF60E087E00FDC1092AF
S11308F089018091C00088230CF080C080E018DC5E
S1130900C82F8823A4F080938F0183DD67E471E00E
S113091081E0A2DD8C2F4FDECF7719F480E293DDE6
S113092002C080E390DD8DE68EDD83E78CDD80916F
S1130930C00088230CF068C080E0FADB88232CF523
S1130940C82FCF77C0938A0182E166DD82E47BDD24
S113095085E679DD84E777DD87E775DD85E673DD98
S113096085E671DD8EE66FDD8AE36DDD80E26BDDA9
S11309708C2F21DEC11103C080E265DD02C080E35B
S113098062DD8DE660DD83E75EDD809187018111A4
S113099005C080E141DD83E090E03BC080E23CDDC6
S11309A083E090E036C080918901882351F1109250
S11309B08D0181E080938C01E0ECF0E0808185FF83
S11309C0FDCF60E087E0A2DB1092890184E090E033
S11309D020C081E090E01DC081E090E01AC081E079
S11309E090E017C081E090E014C082E090E011C074
S11309F082E090E00EC082E090E00BC083E090E0E3
S1130A0008C084E090E005C0809187018111C6CFC1
S1130A10C0CFCF9108958823A1F080918F018336B0
S1130A2008F032C08F5F80938F018BE0F5DC8091FA
S1130A308F01C1DD80E307DD8DE605DD83E703DD9E
S1130A4023C080918F018823F9F0815080938F0116
S1130A508BE0E2DC80918F01AEDD80918F0181110A
S1130A6009C080E2F0DC8DE6EEDC83E7ECDC80E2BA
S1130A70EADC0AC08A3040F480E3E5DC8DE6E3DC9E
S1130A8083E7E1DC80E2DFDC80918701811103C030
S1130A9080E1C2CC089580E2BFCC08958823A1F000
S1130AA080918A01833608F032C08F5F80938A0177
S1130AB08BE1B2DC80918A017EDD80E3C4DC8DE6CB
S1130AC0C2DC83E7C0DC23C080918A018823F9F06B
S1130AD0815080938A018BE19FDC80918A016BDDD8
S1130AE080918A01811109C080E2ADDC8DE6ABDC26
S1130AF083E7A9DC80E2A7DC0AC08A3040F480E303
S1130B00A2DC8DE6A0DC83E79EDC80E29CDC8091A5
S1130B108701811103C080E17FCC089580E27CCC01
S1130B200895CF93DF93EC01E0ECF0E0908195FF22
S1130B30FDCFC130D10551F0C230D10509F44BC10C
S1130B40209709F076C1C1E0D0E073C103DB809344
S1130B505201882309F46DC1843341F580918E01DB
S1130B60811104C080918D01833031F460E080E014
S1130B70CDDAC2E0D0E05DC1823009F031C18091AC
S1130B808701811108C060E080EFC0DA81E043DFB3
S1130B90C2E0D0E04EC1813009F025C160E080EEB2
S1130BA0B5DA81E07BDFC2E0D0E043C18233B9F43F
S1130BB080918E01811104C080918D01833031F4C4
S1130BC060E081E0A3DAC2E0D0E033C1882309F415
S1130BD00DC160E088E09ADAC2E0D0E02AC1853332
S1130BE041F580918E01811104C080918D01833083
S1130BF031F460E082E08ADAC2E0D0E01AC18230E7
S1130C0009F0F7C080918701811108C060E080ED90
S1130C107DDA80E000DFC2E0D0E00BC1813009F072
S1130C20EBC060E080EC72DA80E038DFC2E0D0E054
S1130C3000C18833B9F480918E01811104C0809180
S1130C408D01833031F460E083E060DAC2E0D0E00B
S1130C50F0C0882309F4D3C060E089E057DAC2E029
S1130C60D0E0E7C08134C9F480918C01882359F025
S1130C7081E080938E0110928C0160E084E046DA7A
S1130C80C2E0D0E0D6C080918E01823009F0BAC0B3
S1130C9010928E01C2E0D0E0CCC08234C1F58091C4
S1130CA08C01882359F081E080938D0110928C018E
S1130CB060E086E02BDAC2E0D0E0BBC080918D0119
S1130CC0813051F410928D0180938C0160E087E0B3
S1130CD01DDAC2E0D0E0ADC0823059F481E08093E7
S1130CE08D0110928C0160E08FE010DAC2E0D0E058
S1130CF0A0C0833009F089C082E080938D011092F6
S1130D008C0160E080E302DAC2E0D0E092C0843477
S1130D1079F480918E01811105C080918D01882321
S1130D2009F476C081E080938901C2E0D0E081C0FB
S1130D308A3229F580918D01813059F482E08093C3
S1130D408D0110928C0160E08EE0E0D9C2E0D0E029
S1130D5070C0823059F483E080938D0110928C012D
S1130D6060E08EE0D3D9C2E0D0E063C0833009F004
S1130D7052C060E080E4CAD9C2E0D0E05AC08033F7
S1130D80D1F480918D01823009F048C080918701AF
S1130D90813039F41092870180E13EDBC2E0D0E07B
S1130DA048C081113EC081E08093870180E234DB3A
S1130DB0C2E0D0E03EC0873331F460E080E5A6D9DC
S1130DC0C2E0D0E036C0833279F560E080E69ED997
S1130DD0C2E0D0E02EC0BED9882349F1BBD929C0D6
S1130DE0C2E0D0E026C0C2E0D0E023C0C2E0D0E040
S1130DF020C0C2E0D0E01DC0C2E0D0E01AC0C2E012
S1130E00D0E017C0C2E0D0E014C0C2E0D0E011C00E
S1130E10C2E0D0E00EC0C2E0D0E00BC0C2E0D0E03F
S1130E2008C0C2E0D0E005C0C2E0D0E002C0C1E02A
S1110E30D0E0CE01DF91CF910895F894FFCF6A
S1130E3E0100000020202057656C636F6D652074DF
S1130E4E6F2020202020202020426F756E64210008
S1130E5E20202047616D65204F7665722100202089
S1130E6E2020596F752057696E2100202020204CB8
S1130E7E6576656C3A20004475726174696F6E3ADA
S1050E8E20003E
S9030000FC
