:1000000045C0000061C000005FC000005DC000008E
:100010005BC0000059C0000057C0000055C0000080
:1000200053C0000051C000004FC000004DC0000090
:100030004BC00000E1C0000047C0000045C0000008
:1000400043C0000041C000003FC000003DC00000B0
:100050003BC0000039C0000037C0000035C00000C0
:1000600033C0000031C000002FC000002DC00000D0
:100070002BC0000029C0000027C0000025C00000E0
:1000800023C0000021C000001FC0000011241FBEBB
:10009000CFEFD0E4DEBFCDBF11E0A0E0B1E0E2E001
:1000A000F2E100E00BBF02C007900D92A430B1074F
:1000B000D9F721E0A4E0B1E001C01D92AB3FB20747
:1000C000E1F792D40C94FF089BCF009721F0813088
:1000D000910549F005C0109205011092040103C07A
:1000E00081309105F1F48091040190910501019610
:1000F000909305018093040180910801909109017A
:10010000A0910A01B0910B010196A11DB11D809330
:10011000080190930901A0930A01B0930B0181E0BB
:1001200090E00895E0E1F1E01182108281E090E03A
:10013000A0E0B0E082839383A483B5838683978312
:10014000A087B18785E690E09387828708958BE04A
:10015000809381008DE790E09093890080938800E0
:1001600082E080936F00109285001092840080914D
:10017000000190910101A0910201B09103018093CF
:100180000C0190930D01A0930E01B0930F018FB756
:1001900080688FBF0895CF93DF93E0E1F1E086811F
:1001A0009781A085B18542815381648175818417CF
:1001B0009507A607B70790F0EF010284F385E02DBD
:1001C0008881998109959983888381E090E0A0E0F6
:1001D000B0E08E839F83A887B9870BC00196A11DCD
:1001E000B11D8093160190931701A0931801B0934D
:1001F0001901DF91CF9108951F920F920FB60F92C0
:1002000011240BB60F922F933F934F935F936F93ED
:100210007F938F939F93AF93BF93EF93FF938091BF
:100220000C0190910D01A0910E01B0910F01019769
:10023000A109B10980930C0190930D01A0930E01C7
:10024000B0930F01892B8A2B8B2B89F4A4DF80912B
:10025000000190910101A0910201B09103018093EE
:100260000C0190930D01A0930E01B0930F01FF912B
:10027000EF91BF91AF919F918F917F916F915F911E
:100280004F913F912F910F900BBE0F900FBE0F908B
:100290001F901895CF93DF93CDB7DEB760970FB659
:1002A000F894DEBF0FBECDBF29873A874B875C87A6
:1002B0006D877E878F87988BFE0139969E012F5E12
:1002C0003F4F8FEF8193E217F307E1F788E0FE01DC
:1002D0003996DE01119601900D928A95E1F72981F8
:1002E0003A814B815C816D817E818F81988560969A
:1002F0000FB6F894DEBF0FBECDBFDF91CF9108954A
:10030000EF92FF920F931F93CF93DF93CDB7DEB79A
:100310002A970FB6F894DEBF0FBECDBFBC01E982AD
:10032000FA820B831C832D833E834F835887FE0103
:1003300031969E01275F3F4F9FEF9193E217F3079E
:10034000E1F79981977F9983198683E08A878AE00C
:10035000FE013196DB0101900D928A95E1F7CB0108
:100360002A960FB6F894DEBF0FBECDBFDF91CF91B6
:100370001F910F91FF90EF90089585B9299A15B8B4
:10038000089520E030E0E1E0F0E071E060E0AF01EE
:10039000022E02C0440F551F0A94E2F74823972FFC
:1003A00009F4962F95B9299A65B92F5F3F4F2830E8
:1003B000310569F784E085B90895CF93C8E081E0FD
:1003C000DCDFC150E1F784E085B9CF910895F5DF16
:1003D000F4DFF3CF08950F931F93CF93DF93182F7C
:1003E000C92F062FD42FF3DF51E001C0550F0A9516
:1003F000EAF7E12FFC2F20E030E0C0E0A1E0B0E020
:100400009191952349F0CD01022E02C0880F991FCA
:100410000A94E2F7C82B09C0BD01022E02C0660F84
:10042000771F0A94E2F76095C6232F5F3F4F28306D
:10043000310531F7D13071F018F0D23031F00EC003
:10044000BCDF8C2F9EDFB9DF09C08C2F9ADFB5DFB0
:10045000B4DF04C0B2DFB1DF8C2F93DFDF91CF9127
:100460001F910F910895CF92DF92FF920F931F93E8
:10047000CF93DF936C01F62EC0E0D0E001E010E0F6
:1004800098010C2E02C0220F331F0A94E2F728B9FC
:100490004F2D6C2FC6019FDF8FE891E00197F1F798
:1004A00000C0000094DF2196C830D10549F7DF91E4
:1004B000CF911F910F91FF90DF90CF900895CF9330
:1004C000DF93CDB7DEB79C0192E19150F1F7C754AD
:1004D000DF4F1882C95BD040C654DF4F1882CA5B19
:1004E000D04086EBFE013596D90101900D928A9598
:1004F000E1F7C901DF91CF910895813081F0E1ECFE
:10050000F0E0808188618083E2ECF0E080818660A9
:10051000808383E38093C4001092C5000895E9ECC2
:10052000F0E0808188618083EAECF0E08081866081
:10053000808383E38093CC001092CD0008956130D6
:1005400041F0E0ECF0E0908195FFFDCF8093C60094
:100550000895E8ECF0E0908195FFFDCF8093CE0008
:100560000895813041F0E0ECF0E080818823ECF7E1
:100570008091C6000895E8ECF0E080818823ECF7D4
:100580008091CE000895EF92FF920F931F93CF9327
:10059000DF93CDB7DEB72A970FB6F894DEBF0FBE54
:1005A000CDBF80910701811141C0E8EEF1E021E06B
:1005B00030E0018402C0220F331F0A94E2F79091C9
:1005C000E701E085F0E048E0949FE00DF11D112483
:1005D000EE5CFE4F9081292361F5E090E801F090F8
:1005E000E9010091EA011091EB012091EC013091B9
:1005F000ED014091EE015091EF016091F001709199
:10060000F101CE0101967CDE8AE0FE013196A8EE72
:10061000B1E001900D928A95E1F78091C00085FFCD
:1006200007C060E080E08BDF81E003C080E001C0B4
:1006300081E02A960FB6F894DEBF0FBECDBFDF91E2
:10064000CF911F910F91FF90EF900895CF92DF927D
:10065000EF92FF920F931F93CF93DF93CDB7DEB747
:100660008C01C154DF4F8881CF5BD040811109C01C
:1006700086EBFE013B96D80101900D928A95E1F739
:10068000A6C0C054DF4F9881C05CD040981728F0B6
:10069000C054DF4F1882C05CD040809107018111A7
:1006A00012C0C054DF4F8881C05CD04060E02BE0B6
:1006B00030E02C0F3D1F48E0849F200D311D112498
:1006C000C901D1DE07C0813009F079C060E08FE157
:1006D00091E0C9DE8091070181113CC0C054DF4F19
:1006E0008881C05CD040EDEAF0E0EC0FFD1FE80F20
:1006F000F11D208130E0A901440F551F220F331F47
:10070000220F331F220F331F420F531F052E000CE1
:10071000660B770BC0900801D0900901E0900A01A8
:10072000F0900B01C416D506E606F70608F447C09C
:1007300091E0909307018F5FC054DF4F8883C05CC6
:10074000D040109208011092090110920A011092F3
:100750000B0135C0813099F5C054DF4F8881C05CF2
:10076000D040EBE9F0E0EC0FFD1FE80FF11D208118
:1007700030E0C901880F991F220F331F220F331F4A
:10078000220F331F820F931F092E000CAA0BBB0BE5
:10079000409108015091090160910A0170910B018B
:1007A000481759076A077B0750F01092070110920B
:1007B00008011092090110920A0110920B0186EBB8
:1007C000FE013B96D80101900D928A95E1F7C80190
:1007D000DF91CF911F910F91FF90EF90DF90CF901D
:1007E0000895CF93DF93CDB7DEB7C65BD1090FB6BF
:1007F000F894DEBF0FBECDBF8091FA01813041F089
:1008000018F0823071F020C081E08093FA0148C076
:1008100080912901882309F443C082E08093FA0182
:1008200017C080912901811113C081E08093FA01E2
:1008300060E08FE191E017DE62E08FE191E013DE8E
:1008400061E08FE191E00FDE8091FA01823041F5A5
:100850008DB79EB7865B91090FB6F8949EBF0FBE09
:100860008DBFADB7BEB7119686EBE2E3F1E0019024
:100870000D928A95E1F7CE010196E8DE86EBFE0146
:100880003196A2E3B1E001900D928A95E1F70FB69F
:10089000F894DEBF0FBECDBF61E082EF91E0E3DDF3
:1008A000CA54DF4F0FB6F894DEBF0FBECDBFDF9145
:1008B000CF910895EF92FF920F931F93CF93DF9301
:1008C000CDB7DEB7C05CD1090FB6F894DEBF0FBE5E
:1008D000CDBF80911C01813051F018F0823091F130
:1008E00044C081E080931C0110921E013EC08091A3
:1008F0001E01882309F46AC082E080931C01E09005
:10090000E801F090E9010091EA011091EB012091DA
:10091000EC013091ED014091EE015091EF016091B9
:10092000F0017091F101CE010196EADC8AE0FE014E
:100930003196A8EEB1E001900D928A95E1F7109200
:10094000E70113C080911E01811113C081E08093E3
:100950001C0160E08FE191E086DD62E08FE191E0D3
:1009600082DD61E08FE191E07EDD80911C018230CB
:1009700069F58DB79EB7865B91090FB6F8949EBF57
:100980000FBE8DBFADB7BEB7119686EBE2E3F1E0C7
:1009900001900D928A95E1F7CE010B9657DE86EB1A
:1009A000FE013B96A2E3B1E001900D928A95E1F73A
:1009B0000FB6F894DEBF0FBECDBFE5DD62E088EE76
:1009C00091E051DD61E082EF91E04DDDC054DF4FF9
:1009D0000FB6F894DEBF0FBECDBFDF91CF911F9150
:1009E0000F91FF90EF900895CF93DF93CDB7DEB7CF
:1009F000C751D5400FB6F894DEBF0FBECDBF8FEF05
:100A000084B915B88AB91BB887B918B880E075DD04
:100A100089DB81E090E0A0E0B0E08093000190935A
:100A20000101A0930201B093030180930C01909304
:100A30000D01A0930E01B0930F0189DB10921C01F0
:100A400020911F01309120014091210150912201FC
:100A500060912301709124018091250190912601DC
:100A600019DCEFE1F1E02083318342835383648317
:100A70007583868397836DB77EB7665B71090FB602
:100A8000F8947EBF0FBE6DBFADB7BEB7119686EBB3
:100A9000E2E3F1E001900D928A95E1F7CE01835AED
:100AA0009B4F0DDD86EBFE01E35AFB4FA2E3B1E065
:100AB00001900D928A95E1F70FB6F894DEBF0FBE54
:100AC000CDBF2091F2013091F3014091F40150919A
:100AD000F5016091F6017091F7018091F801909114
:100AE000F901D8DBE2EFF1E02083318342835383C5
:100AF000648375838683978381E090E078D3382E72
:100B0000809306010F2EF2EFEF2EF1E0FF2EF02D75
:100B100002E010E0C8016BD3F70181937F010F5F02
:100B20001F4F0A301105B1F7311074C099C0C401CC
:100B3000800F911F5CD3F80181938F01E615F705B3
:100B4000B1F7C601089653D3182FC60109964FD3A3
:100B5000E2E3F1E0DE01A157BC4F952D01900D922B
:100B60009A95E1F7E6EEF1E09081F701DE01AB5AEC
:100B7000BB4F222D01900D922A95E1F7AFE8B3E02B
:100B8000AC0FBD1FF8E09F9FA00DB11D1124FE0109
:100B9000EB5AFB4F222D01900D922A95E1F72FE899
:100BA00033E02C0F3D1F290F311DF901E057FF4F96
:100BB0001083729680839F5FCD5BDB4F9883C35415
:100BC000D440FE01E157FC4FDE01A752BD4F852DF9
:100BD00001900D928A95E1F7C357DC4F9883CD5869
:100BE000D340FE01E752FD4FA2E3B1E0852D019015
:100BF0000D928A95E1F7CB5EDA4F2881C551D54039
:100C0000265FCB5EDA4F2883C551D540439443100D
:100C10001BC026C0412C6BE0CB5EDA4F6883C55108
:100C2000D5400F2EFAE2EF2EF1E0FF2EF02D0F2E21
:100C3000F2E36F2EF1E07F2EF02D0F2EF6EB5F2EFC
:100C4000F02D6894222423F88701CB5EDA4F788157
:100C5000C551D540C72ED12C46018E189F0867CFAD
:100C6000E090E801F090E9010091EA011091EB01B8
:100C70002091EC013091ED014091EE015091EF0196
:100C80006091F0017091F101CE01835A9B4F38DBE6
:100C90008AE0FE01E35AFB4FA8EEB1E001900D920D
:100CA0008A95E1F74E0187EB880E911C282CCB5ECC
:100CB000DA4F9882C551D540FE01ED5DFD4FCD5E06
:100CC000DA4FF983E883C351D540CD5EDA4FF8811E
:100CD000C351D540CA5EDA4FF883C651D540CC5EC9
:100CE000DA4F2881C451D540C95EDA4F2883C751F5
:100CF000D54000EC10E0DEDD74DDF8018081882352
:100D0000D4F780E02EDC80931D01811126C0E09194
:100D1000F001E73070F781E090E00090F10102C04F
:100D2000880F991F0A94E2F7AE2FB0E0AE50BE4F85
:100D300011962C912823E9F2EF5FE093F001F0E0A7
:100D4000DF01A951BE4F9C91982B9C93E851FE4F17
:100D50008095908189238083CCCF813061F520916B
:100D6000F101273030F661E0620F4091F00150E070
:100D700081E090E0062E02C0880F991F0A94E2F7E6
:100D8000FA01EE50FE4F3081382309F4B2CF609360
:100D9000F101FA01E851FE4F809541E050E0BA01BF
:100DA00002C0660F771F2A95E2F79B019081292BDD
:100DB000822380839ECF823039F5E091F001EE23CB
:100DC00009F497CF81E090E00090F10102C0880F14
:100DD000991F0A94E2F7AE2FB0E0AF50BE4F2C91AE
:100DE000282309F486CFE150E093F001F0E0DF0121
:100DF000A751BE4F9C91982B9C93E851FE4F809534
:100E000090818923808375CF833069F58091F101CA
:100E1000882309F46ECF6FEF680F2091F00130E066
:100E200041E050E0062E02C0440F551F0A94E2F73D
:100E3000F901EE50FE4F9081942309F45ACF60934C
:100E4000F101F901E851FE4F409521E030E0B90190
:100E500002C0660F771F8A95E2F7CB019081892B3C
:100E60004823408346CF843021F481E080931E01E3
:100E700040CF853019F410921E013BCF863021F40B
:100E800081E08093290135CF873019F41092290130
:100E900030CF883009F0DDC08BEF90E0A8D180938F
:100EA00006010F2EF2EFEF2EF1E0FF2EF02D0CEFEA
:100EB00010E0C8019CD1F70181937F010F5F1F4FA4
:100EC0000430F1E01F07A9F76DB77EB7665B7109C3
:100ED0000FB6F8947EBF0FBE6DBFADB7BEB711960B
:100EE00086EBE2E3F1E001900D928A95E1F7CE0105
:100EF000835A9B4FE4DA86EBFE01E35AFB4FA2E3F1
:100F0000B1E001900D928A95E1F70FB6F894DEBF3B
:100F10000FBECDBF8091060181117CC0EACEC70112
:100F2000800F911F64D1F80181938F01EC15FD05AD
:100F3000B1F7C50108965BD1182FC501099657D1A5
:100F4000E2E3F1E0CA5EDA4FA881C651D540C95E3E
:100F5000DA4FB881C751D540952D01900D929A95E1
:100F6000E1F7E6EEF1E09081F301DE01A35BBB4F18
:100F7000242D01900D922A95E1F7A3E2B2E0AC0F87
:100F8000BD1FF8E09F9FA00DB11D1124FE01E35B82
:100F9000FB4F242D01900D922A95E1F723E232E0D8
:100FA0002C0F3D1F290F311DF901E057FF4F108312
:100FB000729680839F5FC952DD4F9883C75DD24090
:100FC000CA5EDA4FE881C651D540C95EDA4FF88172
:100FD000C751D540DE01A359BE4F852D01900D921A
:100FE0008A95E1F7CF5DDD4F9883C152D240FE0173
:100FF000E359FE4FA2E3B1E0852D01900D928A9551
:10100000E1F72AE0A20EB11C339480910601381654
:10101000D8F06FCE312C0F2EF5E0AF2EBB24B39459
:10102000F02D0F2EFAE26F2EF1E07F2EF02D0F2E15
:10103000F2E3CF2EF1E0DF2EF02D0F2EF6EB5F2E38
:10104000F02D6894442443F883017501E618F708ED
:1010500066CF893009F04DCE81E090E0C8D0809312
:1010600006010F2EF2EFEF2EF1E0FF2EF02D02E041
:1010700010E0C801BCD0F70181937F010F5F1F4FC3
:101080000A301105B1F76DB77EB7665B71090FB60F
:10109000F8947EBF0FBE6DBFADB7BEB7119686EB9D
:1010A000E2E3F1E001900D928A95E1F7CE01835AD7
:1010B0009B4F05DA86EBFE01E35AFB4FA2E3B1E05A
:1010C00001900D928A95E1F70FB6F894DEBF0FBE3E
:1010D000CDBF8091060181116CC00BCEC701800F7E
:1010E000911F85D0F80181938F01EC15FD05B1F7B3
:1010F000C50108967CD0182FC501099678D0E2E387
:10110000F1E0A22DCB5EDA4FB881C551D540952DC7
:1011100001900D929A95E1F7E6EEF1E09081F301EE
:10112000DE01AB5BBB4F232D01900D922A95E1F7B9
:10113000D401F8E09F9FA00DB11D1124FE01EB5BCF
:10114000FB4F232D01900D922A95E1F79401290F71
:10115000311DF901E057FF4F1083729680839F5F26
:10116000C559DE4F9883CB56D140E22DCB5EDA4F86
:10117000F881C551D540DE011196852D01900D9263
:101180008A95E1F7CB54DF4F9883C55BD040FE01D1
:101190003196A2E3B1E0852D01900D928A95E1F799
:1011A0002AE0A20EB11C4394809106014816D0F0AB
:1011B000A0CD412C0F2EFBE0AF2EB12CF02D0F2E29
:1011C000FAE26F2EF1E07F2EF02D0F2EF2E3CF2EFC
:1011D000F1E0DF2EF02D0F2EF6EB5F2EF02D689450
:1011E000332433F883017501E618F70877CFF999AE
:1011F000FECF92BD81BDF89A992780B50895F894E5
:02120000FFCF1E
:0412020001000000E7
:00000001FF
