:1000000045C0000061C000005FC000005DC000008E
:100010005BC0000059C0000057C0000055C0000080
:1000200053C0000051C000004FC000004DC0000090
:100030004BC00000E1C0000047C0000045C0000008
:1000400043C0000041C000003FC000003DC00000B0
:100050003BC0000039C0000037C0000035C00000C0
:1000600033C0000031C000002FC000002DC00000D0
:100070002BC0000029C0000027C0000025C00000E0
:1000800023C0000021C000001FC0000011241FBEBB
:10009000CFEFD0E4DEBFCDBF11E0A0E0B1E0E8E9F2
:1000A000F9E100E00BBF02C007900D92A430B10748
:1000B000D9F722E0A4E0B1E001C01D92AC31B20753
:1000C000E1F774D30C94CA0C9BCF009721F08130D8
:1000D000910549F005C0109205011092040103C07A
:1000E00081309105F1F48091040190910501019610
:1000F000909305018093040180910701909108017C
:10010000A0910901B0910A010196A11DB11D809332
:10011000070190930801A0930901B0930A0181E0BF
:1001200090E00895EFE0F1E01182108281E090E02C
:10013000A0E0B0E082839383A483B5838683978312
:10014000A087B18785E690E09387828708958BE04A
:10015000809381008DE790E09093890080938800E0
:1001600082E080936F00109285001092840080914D
:10017000000190910101A0910201B09103018093CF
:100180000B0190930C01A0930D01B0930E018FB75A
:1001900080688FBF0895CF93DF93EFE0F1E0868111
:1001A0009781A085B18542815381648175818417CF
:1001B0009507A607B70790F0EF010284F385E02DBD
:1001C0008881998109959983888381E090E0A0E0F6
:1001D000B0E08E839F83A887B9870BC00196A11DCD
:1001E000B11D8093150190931601A0931701B09350
:1001F0001801DF91CF9108951F920F920FB60F92C1
:1002000011240BB60F922F933F934F935F936F93ED
:100210007F938F939F93AF93BF93EF93FF938091BF
:100220000B0190910C01A0910D01B0910E0101976D
:10023000A109B10980930B0190930C01A0930D01CA
:10024000B0930E01892B8A2B8B2B89F4A4DF80912C
:10025000000190910101A0910201B09103018093EE
:100260000B0190930C01A0930D01B0930E01FF912F
:10027000EF91BF91AF919F918F917F916F915F911E
:100280004F913F912F910F900BBE0F900FBE0F908B
:100290001F901895CF93DF93CDB7DEB760970FB659
:1002A000F894DEBF0FBECDBF29873A874B875C87A6
:1002B0006D877E878F87988BFE0139969E012F5E12
:1002C0003F4F8FEF8193E217F307E1F788E0FE01DC
:1002D0003996DE01119601900D928A95E1F72981F8
:1002E0003A814B815C816D817E818F81988560969A
:1002F0000FB6F894DEBF0FBECDBFDF91CF9108954A
:10030000EF92FF920F931F93CF93DF93CDB7DEB79A
:100310002A970FB6F894DEBF0FBECDBFBC01E982AD
:10032000FA820B831C832D833E834F835887FE0103
:1003300031969E01275F3F4F9FEF9193E217F3079E
:10034000E1F79981977F9983198683E08A878AE00C
:10035000FE013196DB0101900D928A95E1F7CB0108
:100360002A960FB6F894DEBF0FBECDBFDF91CF91B6
:100370001F910F91FF90EF90089585B9299A15B8B4
:10038000089520E030E0E1E0F0E071E060E0AF01EE
:10039000022E02C0440F551F0A94E2F74823972FFC
:1003A00009F4962F95B9299A65B92F5F3F4F2830E8
:1003B000310569F784E085B90895CF93C8E081E0FD
:1003C000DCDFC150E1F784E085B9CF910895F5DF16
:1003D000F4DFF3CF08950F931F93CF93DF93182F7C
:1003E000C92F062FD42FF3DF51E001C0550F0A9516
:1003F000EAF7E12FFC2F20E030E0C0E0A1E0B0E020
:100400009191952349F0CD01022E02C0880F991FCA
:100410000A94E2F7C82B09C0BD01022E02C0660F84
:10042000771F0A94E2F76095C6232F5F3F4F28306D
:10043000310531F7D13071F018F0D23031F00EC003
:10044000BCDF8C2F9EDFB9DF09C08C2F9ADFB5DFB0
:10045000B4DF04C0B2DFB1DF8C2F93DFDF91CF9127
:100460001F910F910895CF92DF92FF920F931F93E8
:10047000CF93DF936C01F62EC0E0D0E001E010E0F6
:1004800098010C2E02C0220F331F0A94E2F728B9FC
:100490004F2D6C2FC6019FDF8FEA94E00197F1F793
:1004A00000C0000094DF2196C830D10549F7DF91E4
:1004B000CF911F910F91FF90DF90CF900895CF9330
:1004C000DF93CDB7DEB79C0194E19150F1F7C353B0
:1004D000DF4F1882CD5CD040C253DF4F1882CE5C14
:1004E000D0408AECFE013596D90101900D928A9593
:1004F000E1F7C901DF91CF910895813081F0E1ECFE
:10050000F0E0808188618083E2ECF0E080818660A9
:10051000808383E38093C4001092C5000895E9ECC2
:10052000F0E0808188618083EAECF0E08081866081
:10053000808383E38093CC001092CD0008958130B6
:1005400041F0E0ECF0E080818823ECF78091C60078
:100550000895E8ECF0E080818823ECF78091CE00EC
:100560000895EF92FF920F931F93CF93DF93CDB730
:10057000DEB72A970FB6F894DEBF0FBECDBF8091CD
:10058000060181113AC0E2E0F2E021E030E00184AE
:1005900002C0220F331F0A94E2F790910102E08516
:1005A000F0E048E0949FE00DF11D1124E85CFE4F5F
:1005B0009081292319F5E0900202F0900302009146
:1005C0000402109105022091060230910702409129
:1005D00008025091090260910A0270910B02CE014B
:1005E00001968EDE8AE0FE013196A2E0B2E0019033
:1005F0000D928A95E1F781E001C080E02A960FB65E
:10060000F894DEBF0FBECDBFDF91CF911F910F9148
:10061000FF90EF900895CF92DF92EF92FF920F93A9
:100620001F93CF93DF93CDB7DEB78C01CD52DF4F51
:100630008881C35DD040811109C08AECFE013B96E0
:10064000D80101900D928A95E1F7A6C0CC52DF4FF8
:100650009881C45DD040981728F0CC52DF4F1882A3
:10066000C45DD04080910601811112C0CC52DF4F91
:100670008881C45DD04060E02BE030E02C0F3D1F4E
:1006800048E0849F200D311D1124C901ECDE07C014
:10069000813009F079C060E087E291E0E4DE80918A
:1006A000060181113CC0CC52DF4F8881C45DD0402F
:1006B000EFEBF0E0EC0FFD1FE80FF11D208130E0C3
:1006C000A901440F551F220F331F220F331F220F82
:1006D000331F420F531F052E000C660B770BC09083
:1006E0000701D0900801E0900901F0900A01C416BA
:1006F000D506E606F70608F447C091E09093060198
:100700008F5FCC52DF4F8883C45DD04010920701C9
:10071000109208011092090110920A0135C081302F
:1007200099F5CC52DF4F8881C45DD040EBEAF0E010
:10073000EC0FFD1FE80FF11D208130E0C901880F8B
:10074000991F220F331F220F331F220F331F820FD7
:10075000931F092E000CAA0BBB0B4091070150916F
:1007600008016091090170910A01481759076A0749
:100770007B0750F0109206011092070110920801B9
:100780001092090110920A018AECFE013B96D801F1
:1007900001900D928A95E1F7C801DF91CF911F91E9
:1007A0000F91FF90EF90DF90CF900895CF93DF935C
:1007B000CDB7DEB7C652DC410FB6F894DEBF0FBE30
:1007C000CDBF8FEF84B915B88AB91BB887B918B8EF
:1007D00080E093DEA7DC81E090E0A0E0B0E08093D1
:1007E000000190930101A0930201B0930301809353
:1007F0000B0190930C01A0930D01B0930E01A7DCA7
:1008000020912701309128014091290150912A011E
:1008100060912B0170912C0180912D0190912E01FE
:1008200039DDE7E2F1E0208331834283538364833F
:100830007583868397838DB79EB78A5C91090FB6BF
:10084000F8949EBF0FBE8DBFADB7BEB711968AECB0
:10085000E8E3F1E001900D928A95E1F7CE01835A29
:10086000944E2DDE8AECFE01E35AF44EA8E3B1E08B
:1008700001900D928A95E1F70FB6F894DEBF0FBE96
:10088000CDBF20912F013091300140913101509125
:100890003201609133017091340180913501909162
:1008A0003601F8DC0F2EFFE2EF2EF1E0FF2EF02DE7
:1008B000F7012083428353836483758397833E7F4C
:1008C00031838E7F86838AECE8E3F1E0DE01A55F69
:1008D000B54E01900D928A95E1F70F2EF0E0CF2EE4
:1008E000F2E0DF2EF02DF601808198E0F701DE01C5
:1008F000AB5AB44E01900D929A95E1F7ABE0BAE194
:10090000AC0FBD1FF8E08F9FA00DB11D112498E022
:10091000FE01EB5AF44E01900D929A95E1F72BE00F
:100920003AE12C0F3D1F280F311DF901E056FF4F12
:100930001082749612E010838F5FCD52D54E88835B
:10094000C35DDA419AECFE01E55FF54EDE01AF5B77
:10095000B64E01900D929A95E1F7C75FD54E888308
:10096000C950DA418AECFE01EF5BF64EA8E3B1E034
:1009700001900D928A95E1F720912F01309130017D
:1009800040913101509132016091330170913401F5
:1009900080913501909136017DDCF70120834283FF
:1009A00053836483758397833D7F31838D7F8683F3
:1009B0008AECE8E3F1E0DE01A958B74E01900D9210
:1009C0008A95E1F7F601808198E0F701DE01A35BEB
:1009D000B44E01900D929A95E1F7A7E7B8E1AC0FFC
:1009E000BD1FF8E08F9FA00DB11D112498E0FE01FE
:1009F000E35BF44E01900D929A95E1F727E738E119
:100A00002C0F3D1F280F311DF901E056FF4F1082BA
:100A1000749610838F5FC15CD64E8883CF53D941C3
:100A20009AECFE01E958F74EDE01A355B84E01904D
:100A30000D929A95E1F7CB58D74E8883C557D84188
:100A40008AECFE01E355F84EA8E3B1E001900D9267
:100A50008A95E1F720912F013091300140913101C9
:100A600050913201609133017091340180913501D0
:100A7000909136010FDCF701208342835383648316
:100A8000758397833B7F31838B7F86838AECE8E392
:100A9000F1E0DE01AD51B94E01900D928A95E1F77A
:100AA000F601808198E0F701DE01AB5BB44E019066
:100AB0000D929A95E1F7A3EEB6E1AC0FBD1FF8E0F9
:100AC0008F9FA00DB11D112498E0FE01EB5BF44E49
:100AD00001900D929A95E1F723EE36E12C0F3D1F20
:100AE000280F311DF901E056FF4F108274961083D4
:100AF0008F5FC555D84E8883CB5AD7419AECFE01FB
:100B0000ED51F94EDE01A75EB94E01900D929A9516
:100B1000E1F7CF51D94E8883C15ED6418AECFE0100
:100B2000E75EF94EA8E3B1E001900D928A95E1F7F6
:100B300020912F01309130014091310150913201CB
:100B400060913301709134018091350190913601AB
:100B5000A1DBF701208342835383648375839783EA
:100B6000377F3183877F86838AECE8E3F1E0DE011B
:100B7000A15BBA4E01900D928A95E1F7F601808152
:100B800098E0F701DE01A35CB44E01900D929A95B6
:100B9000E1F7AFE4B5E1AC0FBD1FF8E08F9FA00D0A
:100BA000B11D112498E0FE01E35CF44E01900D921A
:100BB0009A95E1F72FE435E12C0F3D1F280F311DE9
:100BC000F901E056FF4F1082749610838F5FC95E63
:100BD000D94E8883C751D6419AECFE01E15BFA4EAB
:100BE000DE01AB57BB4E01900D929A95E1F7C35BC6
:100BF000DA4E8883CD54D5418AECFE01EB57FB4E8B
:100C0000A8E3B1E001900D928A95E1F720912F01C0
:100C100030913001409131015091320160913301A6
:100C200070913401809135019091360133DBF701E9
:100C30002083428353836483758397833F7E31830C
:100C40008F7E86838AECE8E3F1E0DE01A554BC4E9A
:100C500001900D928A95E1F7F601808198E0F70105
:100C6000DE01AB5CB44E01900D929A95E1F7ABEBCF
:100C7000B3E1AC0FBD1FF8E08F9FA00DB11D112493
:100C800098E0FE01EB5CF44E01900D929A95E1F72D
:100C90002BEB33E12C0F3D1F280F311DF901E056DE
:100CA000FF4F1082749610838F5FCD57DB4E888381
:100CB000C358D4419AECFE01E554FC4EDE01AF501E
:100CC000BD4E01900D929A95E1F7C754DC4E888392
:100CD000C95BD3418AECFE01EF50FD4EA8E3B1E0C1
:100CE00001900D928A95E1F720912F01309130010A
:100CF0004091310150913201609133017091340182
:100D00008091350190913601C5DAF7012083428345
:100D100053836483758397833F7D31838F7D86837F
:100D20008AECE8E3F1E0DE01A95DBD4E01900D9291
:100D30008A95E1F7F601808198E0F701DE01A35D75
:100D4000B44E01900D929A95E1F7A7E2B2E1AC0F93
:100D5000BD1FF8E08F9FA00DB11D112498E0FE018A
:100D6000E35DF44E01900D929A95E1F727E232E1AE
:100D70002C0F3D1F280F311DF901E056FF4F108247
:100D8000749610838F5FC151DD4E8883CF5ED24150
:100D90009AECFE01E95DFD4EDE01A35ABE4E0190C4
:100DA0000D929A95E1F7CB5DDD4E8883C552D24115
:100DB0008AECFE01E35AFE4EA8E3B1E001900D92E9
:100DC0008A95E1F720912F01309130014091310156
:100DD000509132016091330170913401809135015D
:100DE0009091360157DAF70120834283538364835D
:100DF000758397833F7B31838F7B86838AECE8E31F
:100E0000F1E0DE01AD56BF4E01900D928A95E1F7FB
:100E1000F601808198E0F701DE01AB5DB44E0190F0
:100E20000D929A95E1F7A3E9B0E1AC0FBD1FF8E090
:100E30008F9FA00DB11D112498E0FE01EB5DF44ED3
:100E400001900D929A95E1F723E930E12C0F3D1FB7
:100E5000280F311DF901E056FF4F10827496108360
:100E60008F5FC55ADE4E8883CB55D1419AECFE0187
:100E7000ED56FF4EDE01A753B04F01900D929A95AB
:100E8000E1F7CF56DF4E8883C159D0418AECFE018D
:100E9000E753F04FA8E3B1E001900D928A95E1F796
:100EA00020912F0130913001409131015091320158
:100EB0006091330170913401809135019091360138
:100EC000E9D9F70120834283538364837583978331
:100ED0003F7731838F7786838AECE8E3F1E0DE01A8
:100EE000A150B14F01900D928A95E1F7F6018081F2
:100EF00098E0F701DE01A35EB44E01900D929A9541
:100F0000E1F7AFEFBEE0AC0FBD1FF8E08F9FA00D83
:100F1000B11D112498E0FE01E35EF44E01900D92A4
:100F20009A95E1F72FEF3EE02C0F3D1F280F311D62
:100F3000F901E056FF4F1082749610838F5FC953FA
:100F4000D04F8883C75CDF409AECFE01E150F14F3F
:100F5000DE01AB5CB14F01900D929A95E1F7C35061
:100F6000D14F8883CD5FDE408AECFE01EB5CF14F10
:100F7000A8E3B1E001900D928A95E1F720912F014D
:100F80003091300140913101509132016091330133
:100F90007091340180913501909136017BD9F70130
:100FA0002083318353836483868397834F7742837F
:100FB0007F7775838AECE8E3F1E0DE01A559B24F53
:100FC00001900D928A95E1F7F601808198E0F70192
:100FD000DE01AB5EB44E01900D929A95E1F7ABE65F
:100FE000BDE0AC0FBD1FF8E08F9FA00DB11D112417
:100FF00098E0FE01EB5EF44E01900D929A95E1F7B8
:101000002BE63DE02C0F3D1F280F311DF901E05666
:10101000FF4F1082749610838F5FCD5CD14F888311
:10102000C353DE409AECFE01E559F24FDE01AF55A5
:10103000B34F01900D929A95E1F7C759D24F88832B
:10104000C956DD408AECFE01EF55F34FA8E3B1E04D
:1010500001900D928A95E1F720912F013091300196
:10106000409131015091320160913301709134010E
:1010700080913501909136010DD9F701208331839C
:1010800053836483868397834F7B42837F7B7583FF
:101090008AECE8E3F1E0DE01A952B44F01900D9231
:1010A0008A95E1F7F601808198E0F701DE01A35F00
:1010B000B44E01900D929A95E1F7A7EDBBE0AC0F0D
:1010C000BD1FF8E08F9FA00DB11D112498E0FE0117
:1010D000E35FF44E01900D929A95E1F727ED3BE026
:1010E0002C0F3D1F280F311DF901E056FF4F1082D4
:1010F000749610838F5FC156D34F8883CF59DC40DD
:101100009AECFE01E952F44FDE01A35FB44F019067
:101110000D929A95E1F7CB52D44F8883C55DDB40A1
:101120008AECFE01E35FF44FA8E3B1E001900D9279
:101130008A95E1F720912F013091300140913101E2
:1011400050913201609133017091340180913501E9
:10115000909136019FD8F7012083318353836483B4
:10116000868397834F7D42837F7D75838AECE8E396
:10117000F1E0DE01AD5BB54F01900D928A95E1F78C
:10118000F601808198E0F701DE01AB5FB44E01907B
:101190000D929A95E1F7A3E4BAE0AC0FBD1FF8E019
:1011A0008F9FA00DB11D112498E0FE01EB5FF44E5E
:1011B00001900D929A95E1F723E43AE02C0F3D1F40
:1011C000280F311DF901E056FF4F108274961083ED
:1011D0008F5FC55FD44F8883CB50DB409AECFE0114
:1011E000ED5BF54FDE01A758B64F01900D929A9531
:1011F000E1F7CF5BD54F8883C154DA408AECFE011A
:10120000E758F64FA8E3B1E001900D928A95E1F717
:1012100020912F01309130014091310150913201E4
:1012200060913301709134018091350190913601C4
:1012300031D8F70120833183538364838683978376
:101240004F7E42837F7E75838AECE8E3F1E0DE0126
:10125000A155B74F01900D928A95E1F7F601808173
:1012600098E0F701DE01A350B54E01900D929A95DA
:10127000E1F7AFEAB8E0AC0FBD1FF8E08F9FA00D1B
:10128000B11D112498E0FE01E350F54E01900D923E
:101290009A95E1F72FEA38E02C0F3D1F280F311DFA
:1012A000F901E056FF4F1082749610838F5FC95882
:1012B000D64F8883C757D9409AECFE01E155F74FC6
:1012C000DE01AB51B84F01900D929A95E1F7C355ED
:1012D000D74F8883CD5AD8408AECFE01EB51F84FA6
:1012E000A8E3B1E001900D928A95E1F720912F01DA
:1012F00030913001409131015091320160913301C0
:101300007091340180913501909136010E944A011B
:10131000F701208331835383648386839783477FD8
:101320004283777F75838AECE8E3F1E0DE01A55E16
:10133000B84F01900D928A95E1F7F601808198E00F
:10134000F701DE01AB50B54E01900D929A95E1F791
:10135000ABE1B7E0AC0FBD1FF8E08F9FA00DB11D52
:10136000112498E0FE01EB50F54E01900D929A95F4
:10137000E1F72BE137E02C0F3D1F280F311DF9015C
:10138000E056FF4F1082749610838F5FCD51D84F77
:101390008883C35ED7409AECFE01E55EF84FDE011C
:1013A000AF5AB94F01900D929A95E1F7C75ED84FA9
:1013B0008883C951D7408AECFE01EF5AF94FA8E360
:1013C000B1E001900D928A95E1F720912F013091C3
:1013D000300140913101509132016091330170919F
:1013E000340180913501909136010E944A01F70144
:1013F0002083318353836483868397834B7F428327
:101400007B7F75838AECE8E3F1E0DE01A957BA4FF0
:1014100001900D928A95E1F7F601808198E0F7013D
:10142000DE01A351B54E01900D929A95E1F7A7E820
:10143000B5E0AC0FBD1FF8E08F9FA00DB11D1124CA
:1014400098E0FE01E351F54E01900D929A95E1F777
:1014500027E835E02C0F3D1F280F311DF901E0561C
:10146000FF4F1082749610838F5FC15BD94F8883C2
:10147000CF54D6409AECFE01E957FA4FDE01A3544F
:10148000BB4F01900D929A95E1F7CB57DA4F8883C5
:10149000C558D5408AECFE01E354FB4FA8E3B1E008
:1014A00001900D928A95E1F720912F013091300142
:1014B00040913101509132016091330170913401BA
:1014C00080913501909136010E944A01F7012083F5
:1014D000318353836483868397834D7F42837D7FEB
:1014E00075838AECE8E3F1E0DE01AD50BC4F01907A
:1014F0000D928A95E1F7F601808198E0F701DE010F
:10150000AB51B54E01900D929A95E1F7A3EFB3E080
:10151000AC0FBD1FF8E08F9FA00DB11D112498E006
:10152000FE01EB51F54E01900D929A95E1F723EFF4
:1015300033E02C0F3D1F280F311DF901E056FF4FFE
:101540001082749610838F5FC554DB4F8883CB5B0A
:10155000D4409AECFE01ED50FC4FDE01A75DBC4F7C
:1015600001900D929A95E1F7CF50DC4F8883C15FCF
:10157000D3408AECFE01E75DFC4FA8E3B1E00190A7
:101580000D928A95E1F720912F0130913001409121
:101590003101509132016091330170913401809199
:1015A0003501909136010E944A01F7012083318371
:1015B00053836483868397834E7F42837E7F7583C4
:1015C0008AECE8E3F1E0DE01A15ABD4F01900D92F3
:1015D0008A95E1F7F601808198E0F701DE01A352D8
:1015E000B54E01900D929A95E1F7AFE5B2E0AC0FE0
:1015F000BD1FF8E08F9FA00DB11D112498E0FE01E2
:10160000E352F54E01900D929A95E1F72FE532E005
:101610002C0F3D1F280F311DF901E056FF4F10829E
:10162000749610838F5FC95DDC4F8883C752D340A7
:101630009AECFE01E15AFD4FDE01AB56BE4F019020
:101640000D929A95E1F7C35ADD4F8883CD55D2406C
:101650008AECFE01EB56FE4FA8E3B1E001900D923B
:101660008A95E1F720912F013091300140913101AD
:1016700050913201609133017091340180913501B4
:10168000909136010E944A01F70120833183428301
:10169000758386839783138214828AECE8E3F1E0F2
:1016A000DE01A553BF4F01900D928A95E1F7F60137
:1016B000808198E0F701DE01AB52B54E01900D92AA
:1016C0009A95E1F7ABECB0E0AC0FBD1FF8E08F9F4F
:1016D000A00DB11D112498E0FE01EB52F54E0190D2
:1016E0000D929A95E1F72BEC30E02C0F3D1F280F5F
:1016F000311DF901E056FF4F1082749610838F5F01
:10170000CD56DE4F8883C359D1409AECFE01E55394
:10171000FF4FDE01119601900D929A95E1F7C753A4
:10172000DF4F8883C95CD0408AECFE013196A8E384
:10173000B1E001900D928A95E1F7E0900202F090FD
:1017400003020091040210910502209106023091DB
:101750000702409108025091090260910A027091BB
:101760000B02CE01835A944E0E9480018AE0FE0152
:10177000E35AF44EA2E0B2E001900D928A95E1F7AF
:1017800020910C0230910D0240910E0250910F02F7
:1017900060911002709111028091120290911302D7
:1017A0000E944A01ECE0F2E02083318342835383BC
:1017B0007583868397838CEC84831AEC0F2EF0EC70
:1017C000EF2EF12CF02DCC24C394D12C8DB79EB7E5
:1017D0008A5C91090FB6F8949EBF0FBE8DBFADB75E
:1017E000BEB71196E8E3F1E0812F01900D928A9542
:1017F000E1F7CE01835A944E0E940B03FE01E35A97
:10180000F44EA8E3B1E0812F01900D928A95E1F7A3
:101810000FB6F894DEBF0FBECDBF0E94B10262E0EA
:1018200082E092E00E94330261E08CE092E00E944C
:101830003302F701808188234CF680E00E949F02EA
:1018400080933701811127C0E0910A02E73008F048
:10185000BDCFC60100900B0202C0880F991F0A94E9
:10186000E2F7AE2FB0E0A45FBD4F11962C91282374
:1018700009F4ACCFEF5FE0930A02F0E0DF01AF5F65
:10188000BD4F9C91982B9C93EE5FFD4F809590816E
:10189000892380839BCF813049F520910B0227302B
:1018A00008F094CF61E0620F80910A0290E0A601F7
:1018B000062E02C0440F551F0A94E2F7FC01E45FB4
:1018C000FD4F3081342309F481CF60930B02FC017A
:1018D000EE5FFD4F4095C60102C0880F991F2A9503
:1018E000E2F79081892B4823408370CF823031F515
:1018F000E0910A02EE2309F469CFC60100900B02C1
:1019000002C0880F991F0A94E2F7AE2FB0E0A55FDE
:10191000BD4F2C91282309F459CFE150E0930A02DE
:10192000F0E0DF01AD5FBD4F9C91982B9C93EE5F83
:10193000FD4F809590818923808348CF833009F0C3
:1019400045CF20910B02222309F440CF6FEF620FA5
:1019500080910A0290E0A601062E02C0440F551F96
:101960000A94E2F7FC01E45FFD4F3081342309F46F
:101970002DCF60930B02FC01EE5FFD4F4095C60139
:1019800002C0880F991F2A95E2F79081892B48237E
:0819900040831CCFF894FFCF47
:04199800010000004A
:00000001FF
