S00F00007363626F756E642E7372656327
S113000045C0000062C0000060C000005EC0000087
S11300105CC000005AC0000058C0000056C0000078
S113002054C0000052C0000050C000004EC0000088
S11300304CC00000E2C0000048C0000046C0000000
S113004044C0000042C0000040C000003EC00000A8
S11300503CC000003AC0000038C0000036C00000B8
S113006034C0000032C0000030C000002EC00000C8
S11300702CC000002AC0000028C0000026C00000D8
S113008024C0000022C0000020C0000011241FBEB4
S1130090CFEFD0E4DEBFCDBF11E0A0E0B1E0E4E7F4
S11300A0F6E100E00BBF02C007900D92A430B10747
S11300B0D9F722E0A4E0B1E001C01D92A130B2075B
S11300C0E1F70E94680A0C94380B9ACF009721F04C
S11300D08130910549F005C0109205011092040188
S11300E003C081309105F1F48091040190910501E0
S11300F001969093050180930401809110019091E1
S11301001101A0911201B09113010196A11DB11D1D
S11301108093100190931101A0931201B0931301E5
S113012081E090E00895E8E1F1E01182108281E03D
S113013090E0A0E0B0E082839383A483B5838683B8
S11301409783A087B18786E690E093878287089596
S11301508BE0809381008DE790E0909389008093F9
S1130160880082E080936F001092850010928400D2
S11301708091000190910101A0910201B0910301CD
S11301808093140190931501A0931601B093170165
S11301908FB780688FBF0895CF93DF93E8E1F1E0D4
S11301A086819781A085B18542815381648175815F
S11301B084179507A607B70790F0EF010284F3852B
S11301C0E02D8881998109959983888381E090E065
S11301D0A0E0B0E08E839F83A887B9870BC0019607
S11301E0A11DB11D80931E0190931F01A0932001B6
S11301F0B0932101DF91CF9108951F920F920FB612
S11302000F9211240BB60F922F933F934F935F934A
S11302106F937F938F939F93AF93BF93EF93FF93CA
S11302208091140190911501A0911601B0911701CC
S11302300197A109B1098093140190931501A0932A
S11302401601B0931701892B8A2B8B2B89F4A4DF19
S11302508091000190910101A0910201B0910301EC
S11302608093140190931501A0931601B093170184
S1130270FF91EF91BF91AF919F918F917F916F917A
S11302805F914F913F912F910F900BBE0F900FBE36
S11302900F901F901895CF93DF93CDB7DEB760977B
S11302A00FB6F894DEBF0FBECDBF29873A874B87C0
S11302B05C876D877E878F87988BFE0139969E01B8
S11302C02F5E3F4F8FEF8193E217F307E1F788E04A
S11302D0FE013996DE01119601900D928A95E1F79F
S11302E029813A814B815C816D817E818F819885E2
S11302F060960FB6F894DEBF0FBECDBFDF91CF91ED
S11303000895EF92FF920F931F93CF93DF93CDB78E
S1130310DEB72A970FB6F894DEBF0FBECDBFBC017F
S1130320E982FA820B831C832D833E834F83588793
S1130330FE0131969E01275F3F4F9FEF9193E21795
S1130340F307E1F79981977F9983198683E08A8778
S11303508AE0FE013196DB0101900D928A95E1F766
S1130360CB012A960FB6F894DEBF0FBECDBFDF9146
S1130370CF911F910F91FF90EF90089585B9299A1D
S113038015B8089520E030E0E1E0F0E071E060E0CD
S1130390AF01022E02C0440F551F0A94E2F748230E
S11303A0972F09F4962F95B9299A65B92F5F3F4F76
S11303B02830310569F784E085B90895CF93C8E002
S11303C081E0DCDFC150E1F784E085B9CF91089585
S11303D0F5DFF4DFF3CF08950F931F93CF93DF93EB
S11303E0182FC92F062FD42FF3DF51E001C0550F6A
S11303F00A95EAF7E12FFC2F20E030E0C0E0A1E00D
S1130400B0E09191952349F0CD01022E02C0880FEE
S1130410991F0A94E2F7C82B09C0BD01022E02C03D
S1130420660F771F0A94E2F76095C6232F5F3F4F4C
S11304302830310531F7D13071F018F0D23031F075
S11304400EC0BCDF8C2F9EDFB9DF09C08C2F9ADF72
S1130450B5DFB4DF04C0B2DFB1DF8C2F93DFDF91EF
S1130460CF911F910F910895CF92DF92FF920F9336
S11304701F93CF93DF936C01F62EC0E0D0E001E030
S113048010E098010C2E02C0220F331F0A94E2F7E9
S113049028B94F2D6C2FC6019FDF8FE891E001979B
S11304A0F1F700C0000094DF2196C830D10549F768
S11304B0DF91CF911F910F91FF90DF90CF9008951E
S11304C0CF93DF93CDB7DEB79C0192E19150F1F762
S11304D0C754DF4F1882C95BD040C654DF4F18821F
S11304E0CA5BD04086EBFE013596D90101900D928E
S11304F08A95E1F7C901DF91CF910895813081F0A8
S1130500E1ECF0E0808188618083E2ECF0E08081BE
S11305108660808383E38093C4001092C5000895AD
S1130520E9ECF0E0808188618083EAECF0E080818E
S11305308660808383E38093CC001092CD0008957D
S1130540613041F0E0ECF0E0908195FFFDCF8093C5
S1130550C6000895E8ECF0E0908195FFFDCF80930C
S1130560CE000895813041F0E0ECF0E080818823F2
S1130570ECF78091C6000895E8ECF0E080818823D0
S1130580ECF78091CE000895EF92FF920F931F93A2
S1130590CF93DF93CDB7DEB72A970FB6F894DEBFBB
S11305A00FBECDBF80910F01811141C0EEEEF1E08D
S11305B021E030E0018402C0220F331F0A94E2F7E5
S11305C09091ED01E085F0E048E0949FE00DF11D8D
S11305D01124E85CFE4F9081292361F5E090EE013F
S11305E0F090EF010091F0011091F1012091F201DE
S11305F03091F3014091F4015091F5016091F601BD
S11306007091F701CE0101967CDE8AE0FE013196FD
S1130610AEEEB1E001900D928A95E1F78091C000B1
S113062085FF07C060E080E08BDF81E003C080E0ED
S113063001C081E02A960FB6F894DEBF0FBECDBF8D
S1130640DF91CF911F910F91FF90EF900895CF927A
S1130650DF92EF92FF920F931F93CF93DF93CDB767
S1130660DEB78C01C154DF4F8881CF5BD04081114C
S113067009C086EBFE013B96D80101900D928A9544
S1130680E1F7A6C0C054DF4F9881C05CD0409817F2
S113069028F0C054DF4F1882C05CD04080910F0115
S11306A0811112C0C054DF4F8881C05CD04060E02B
S11306B02BE030E02C0F3D1F48E0849F200D311DBE
S11306C01124C901D1DE07C0813009F079C060E08E
S11306D087E291E0C9DE80910F0181113CC0C054D2
S11306E0DF4F8881C05CD040EDEAF0E0EC0FFD1FE5
S11306F0E80FF11D208130E0A901440F551F220F9E
S1130700331F220F331F220F331F420F531F052E97
S1130710000C660B770BC0901001D0901101E09093
S11307201201F0901301C416D506E606F70608F484
S113073047C091E090930F018F5FC054DF4F8883CF
S1130740C05CD0401092100110921101109212015D
S11307501092130135C0813099F5C054DF4F888160
S1130760C05CD040EBE9F0E0EC0FFD1FE80FF11D99
S1130770208130E0C901880F991F220F331F220FF7
S1130780331F220F331F820F931F092E000CAA0B55
S1130790BB0B4091100150911101609112017091B5
S11307A01301481759076A077B0750F010920F018D
S11307B01092100110921101109212011092130163
S11307C086EBFE013B96D80101900D928A95E1F7E4
S11307D0C801DF91CF911F910F91FF90EF90DF90AF
S11307E0CF900895CF93DF93C1E0D0E007C09091FC
S11307F00E019F5F90930E01C650DF4FCE011ED7AE
S11308008111F5CFDF91CF9108952F923F924F92AE
S11308105F926F927F928F929F92AF92BF92CF928C
S1130820DF92EF92FF920F931F93CF93DF93CDB795
S1130830DEB7CA52D2400FB6F894DEBF0FBECDBFAA
S1130840A0900D012AEFA29E50011124C50101962A
S1130850F5D6282E750182E0E80EF11C08EF11E0B0
S11308600F2EF0E0CF2EF2E0DF2EF02DC701E6D6FA
S1130870F80181938F01FFEFEF1AFF0A0C151D0594
S1130880A9F78DB79EB7865B91090FB6F8949EBF02
S11308900FBE8DBFADB7BEB7119686EBE8E3F1E0AE
S11308A001900D928A95E1F7CE018B589E4F08DE98
S11308B086EBFE01EB58FE4FA8E3B1E001900D92E8
S11308C08A95E1F79BE0A90EB11C0FB6F894DEBF40
S11308D00FBECDBF211069C087C0C701800F911F13
S11308E0ADD6F80181938F01EC15FD05B1F7C50173
S11308F00896A4D6182FC5010996A0D6E8E3F1E01E
S1130900DE01A954BF4F952D01900D929A95E1F700
S1130910F3019081F401DE01A359BE4F232D019010
S11309200D922A95E1F7A7EBB0E0AC0FBD1FF8E0FC
S11309309F9FA00DB11D1124FE01E359FE4F232DED
S113094001900D922A95E1F727EB30E02C0F3D1F23
S1130950290F311DF901E057FF4F108372968083F0
S11309609F5FC559DE4F9883CB56D140FE01E954B1
S1130970FF4FDE011196852D01900D928A95E1F7C6
S1130980CB54DF4F9883C55BD040FE013196A8E37A
S1130990B1E0852D01900D928A95E1F72AE0A20E2F
S11309A0B11C439442101BC01FC0412C0F2EF0E316
S11309B08F2EF1E09F2EF02D0F2EF8E3CF2EF1E0D5
S11309C0DF2EF02D0F2EF6EB5F2EF02D0F2EFCEE0A
S11309D06F2EF1E07F2EF02D6894332433F88401D8
S11309E07501E818F90879CFC65DDD4F0FB6F894A4
S11309F0DEBF0FBECDBFDF91CF911F910F91FF904E
S1130A00EF90DF90CF90BF90AF909F908F907F90AA
S1130A106F905F904F903F902F900895EF92FF92C8
S1130A200F931F93CF93DF93CDB7DEB72A970FB6FB
S1130A30F894DEBF0FBECDBF8091F601873089F5F3
S1130A4010910D012AEF129FC001112485509F4F70
S1130A50F5D5882331F11F5F10930D01D6DEE090A8
S1130A60EE01F090EF010091F0011091F10120915D
S1130A70F2013091F3014091F4015091F50160913C
S1130A80F6017091F701CE0101963BDC8AE0FE018C
S1130A903196AEEEB1E001900D928A95E1F7809126
S1130AA0C0002A960FB6F894DEBF0FBECDBFDF910B
S1130AB0CF911F910F91FF90EF900895AF92BF9245
S1130AC0CF92DF92EF92FF921F93CF93DF93C09167
S1130AD00D018AEFC89FE00111246E018FEFC81A3F
S1130AE0D80AC601ABD5182F8231B8F57E018BE048
S1130AF0E80EF11C112359F190E09F5F9113FDCF93
S1130B0065962FEF210F30E07901EE0CFF1C220FC8
S1130B10331F220F331F220F331F2E0D3F1D7E0163
S1130B20E20EF31E14C06FEFCE0190D52196CA15C4
S1130B30DB05C9F760E0C50189D560E0C701099606
S1130B4085D561E0610FC60181D55FDE06C057011E
S1130B5088E0A80EB11CE701E6CFDF91CF911F9189
S1130B60FF90EF90DF90CF90BF90AF9008959F9249
S1130B70AF92BF92CF92DF92EF92FF920F931F93A7
S1130B80CF93DF93E0900D018AEFE89E700111246A
S1130B9057018FEFA81AB80AC50150D5C82E81E0B5
S1130BA08C1508F04AC08BE0E80EF11C90900C0103
S1130BB09920A9F090E09F5F9911FDCF8FEF890DE7
S1130BC090E09C01220F331F880F991F880F991FF3
S1130BD0880F991F820F931F0A96E80EF91E9C1422
S1130BE090F026C0CE010A9629D5682FCE012ED5C5
S1130BF02196C017D107B1F7D3948AE0E80EF11C0F
S1130C00DC1410F006C0D92C8701085F1F4FE701E0
S1130C10E9CFCC2DC9196FEF6C0DC50117D5C130C3
S1130C2029F480910C01815080930C01EEDD05C004
S1130C306FEF6C0DC5010AD5F9CFDF91CF911F91EC
S1130C400F91FF90EF90DF90CF90BF90AF909F9067
S1130C5008950F931F93CF93DF9300910D018AEFB3
S1130C60089F80011124055F1F4F90910C01992367
S1130C7051F180E08F5F8913FDCF9150892F90E06F
S1130C809C01220F331F880F991F880F991F880F0B
S1130C90991F820F931F0A96080F191F14C0809181
S1130CA00C01FE0198E0899FE00DF11D1124E85C20
S1130CB0FE4F6081CE01800F911FC8D42196C830A9
S1130CC0D10569F703C0C0E0D0E0E9CFDF91CF914F
S1130CD01F910F910895CF93DF93CDB7DEB7C65B15
S1130CE0D1090FB6F894DEBF0FBECDBF8DB79EB746
S1130CF0865B91090FB6F8949EBF0FBE8DBFADB74A
S1130D00BEB7119686EBE8E3F1E001900D928A9567
S1130D10E1F7CE0101969BDC86EBFE013196A8E358
S1130D20B1E001900D928A95E1F70FB6F894DEBF19
S1130D300FBECDBF61E088EF91E096DBCA54DF4F70
S1130D400FB6F894DEBF0FBECDBFDF91CF910895EB
S1130D50C2DF1ADC63DE62E08EEE91E085CB08959B
S1130D6062E087E291E080DB61E087E291E07CDB96
S1130D7060E087E291E078CB0895809100028230B0
S1130D8059F128F4882349F0813059F067C0833041
S1130D90D9F1843009F44DC061C081E08093000230
S1130DA0089580912F01882309F489C0813039F492
S1130DB082E08093000210920D0127DD4FC0823043
S1130DC021F483E08093000253C0833009F077C09C
S1130DD084E0809300025EC080912F01811105C0E0
S1130DE081E080930002BCDF39C0813009F43EC049
S1130DF0823021F483E0809300023AC08330B1F55D
S1130E0084E08093000246C080912F01811105C0C7
S1130E1081E080930002A4DF21C0813021F482E0CC
S1130E208093000223C0833019F584E0809300028C
S1130E3031C080912F01811105C081E080930002AF
S1130E408FDF0CC0813021F482E0809300020EC059
S1130E50823001F583E0809300020AC08091000291
S1130E60833031F08430B1F0823049F534CF0895C5
S1130E7080910C0190E0880F991F880F991F880FAB
S1130E80991F60E0885C9E4FEFDA61E088EF91E0A3
S1130E90EBCA089562E08EEE91E0E6DA80910C01EF
S1130EA090E0880F991F880F991F880F991F60E0A1
S1130EB0885C9E4FD9DA61E088EF91E0D5CA089545
S1130EC0EF92FF920F931F93CF93DF93CDB7DEB7CB
S1130ED02A970FB6F894DEBF0FBECDBF80912401D0
S1130EE0813051F018F08230A1F13BC081E0809351
S1130EF024011092260135C0809126018823B1F186
S1130F0082E080932401E090EE01F090EF010091E3
S1130F10F0011091F1012091F2013091F30140911F
S1130F20F4015091F5016091F6017091F701CE0141
S1130F300196E7D98AE0FE013196AEEEB1E0019068
S1130F400D928A95E1F71092ED0110920D015DDC8E
S1130F5008C080912601811108C081E0809324019A
S1130F60FFDE80912401823009F4F2DE2A960FB666
S1130F70F894DEBF0FBECDBFDF91CF911F910F91CB
S1130F80FF90EF9008958091C00085FF04C060E059
S1130F9080910D01D5DA8091C00085FF0BC080914E
S1130FA00D012AEF829FC0011124019647D360E00E
S1130FB08068C6CA08958091C00085FF08C0E0918A
S1130FC00C01F0E0E652FE4F60E08081B9DA8091D6
S1130FD0C00085FF09C0E0910C01F0E0E853FE4F2A
S1130FE0808160E08068ACCA089540910D019AEF59
S1130FF0499FA00111244D5E5F4FE0910C01EE2347
S1131000B1F090E09F5F9E13FDCF2FEF2E0F30E0E5
S1131010B901660F771F220F331F220F331F220FD0
S1131020331F260F371F265F3F4F420F531F88235E
S113103039F0F0E0E853FE4F80818F5F808306C073
S1131040F0E0E853FE4F8081815080835093080183
S11310504093070181E080930601ADCF089540914C
S11310600D019AEF499FA00111244C5E5F4FE0915E
S11310700C01EE23B1F090E09F5F9E13FDCF2FEFA4
S11310802E0F30E0B901660F771F220F331F220F96
S1131090331F220F331F260F371F265F3F4F420F88
S11310A0531F882339F0F0E0E652FE4F80818F5FB2
S11310B0808306C0F0E0E652FE4F80818150808339
S11310C050930B0140930A0181E08093090173CF8F
S11310D0089580910601882369F0E0910C01F0E005
S11310E0E853FE4F60818091070190910801AED2D0
S11310F01092060180910901882369F0E0910C01A6
S1131100F0E0E652FE4F608180910A0190910B015C
S11311109DD2109209010895CF93DF938091C0006E
S113112088230CF0D2C180E01DDA8093250181115F
S113113028C0E091F601E73008F0C7C181E090E0F3
S11311400090F70102C0880F991F0A94E2F7AE2FAE
S1131150B0E0A850BE4F11962C91282309F4B5C1D4
S1131160EF5FE093F601F0E0DF01A351BE4F9C91E5
S1131170982B9C93E251FE4F809590818923808324
S1131180A4C1813059F54091F701473008F09DC161
S113119061E0640F8091F60190E021E030E0062EDA
S11311A002C0220F331F0A94E2F7FC01E850FE4FFD
S11311B05081522309F489C16093F701FC01E25183
S11311C0FE4F209581E090E002C0880F991F4A9558
S11311D0E2F79081892B2823208377C1823039F567
S11311E0E091F601EE2309F470C181E090E00090F3
S11311F0F70102C0880F991F0A94E2F7AE2FB0E0FE
S1131200A950BE4F2C91282309F45FC1E150E0930B
S1131210F601F0E0DF01A151BE4F9C91982B9C9305
S1131220E251FE4F80959081892380834EC18330A3
S113123059F54091F701442309F447C16FEF640F56
S11312408091F60190E021E030E0062E02C0220FEA
S1131250331F0A94E2F7FC01E850FE4F50815223F9
S113126009F433C16093F701FC01E251FE4F20956C
S113127081E090E002C0880F991F4A95E2F79081BF
S1131280892B2823208321C1843021F481E0809399
S113129026011BC1853019F41092260116C186302F
S11312A029F481E080932F016EDE0FC1873059F459
S11312B010DF10922F0110920D0110920C01A5DA8B
S11312C01092ED0102C1883061F580912F018130C7
S11312D091F4C0910D012AEFC29FC00111248550E1
S11312E09F4FACD1882309F4F0C0CF5FC0930D01A8
S11312F08CDA49DEEAC0823009F0E7C020910C01A3
S113130030E08091EC0190E00197281739070CF048
S1131310DCC0DFDE80910C018F5F80930C014BDE1B
S1131320D4C08930F9F480912F01813059F480912F
S11313300D01882309F4C9C0815080930D0165DA39
S113134022DEC3C0823009F0C0C080910C01882322
S113135009F4BBC0BEDE80910C01815080930C0166
S11313602ADEB3C08E30A9F480912F01813049F474
S113137082E080932F0110920901109206011BDE76
S1131380A4C0823009F0A1C0A4DE83E080932F01C1
S11313909CC0803539F480912F01823009F095C0CA
S11313A08DDB93C0803639F480912F01823009F0AF
S11313B08CC0DDDB8AC0803331F482E080932F015E
S11313C0FADD47DC82C08F3051F483DE81E0809304
S11313D02F01D9DD1092ED0110920C0176C0803FEF
S11313E061F4E0910C01F0E0E652FE4F8081833617
S11313F008F06BC081E033DE68C0803E61F4E091A8
S11314000C01F0E0E853FE4F8081833608F05DC0A4
S113141081E0EBDD5AC0803D61F4E0910C01F0E025
S1131420E652FE4F8081882309F44FC080E017DE26
S11314304CC0803C61F4E0910C01F0E0E853FE4FB5
S11314408081882309F441C080E0CFDD3EC0803430
S1131450E1F580912F018330C1F520910C01CEEE8E
S1131460D1E0E885F0E0822F90E0DF0138E0239FAF
S1131470A00DB11D1124A85CBE4F4C9121E030E0B9
S1131480098402C0220F331F0A94E2F7542F522317
S113149081F0880F991F880F991F880F991FE80FF3
S11314A0F91FE85CFE4F822F8095282F2423208388
S11314B00CC0880F991F880F991F880F991FE80F78
S11314C0F91FE85CFE4F242B2083DF91CF91089510
S11314D0CF93DF93CDB7DEB7C65BD1090FB6F894CF
S11314E0DEBF0FBECDBF8FEF84B915B88AB91BB864
S11314F087B918B880E002D875D90E94930081E0BA
S113150090E0A0E0B0E08093000190930101A093EB
S11315100201B09303018093140190931501A093E9
S11315201601B09317010E94A80010922401209183
S11315302701309128014091290150912A0160919D
S11315402B0170912C0180912D0190912E010E940C
S11315504B01E7E2F1E020833183428353836483C8
S11315607583868397838DB79EB7865B91090FB683
S1131570F8949EBF0FBE8DBFADB7BEB7119686EB74
S1131580E8E3F1E001900D928A95E1F7CE0101962E
S11315900E94600286EBFE013196A8E3B1E001905F
S11315A00D928A95E1F70FB6F894DEBF0FBECDBF5A
S11315B02091F8013091F9014091FA015091FB0119
S11315C06091FC017091FD018091FE019091FF01F9
S11315D00E944B01E8EFF1E020833183428353837F
S11315E0648375838683978310D9E090EE01F0902D
S11315F0EF010091F0011091F1012091F20130917D
S1131600F3014091F4015091F5016091F60170915C
S1131610F701CE0101960E9481018AE0FE01319614
S1131620AEEEB1E001900D928A95E1F760E080EFB3
S113163092E00CD045DCA1DB6FDDFCCFF999FECF45
S113164092BD81BDF89A992780B50895262FF999FE
S1131650FECF92BD81BDF89A019700B4021639F00D
S11316601FBA20BD0FB6F894FA9AF99A0FBE0895DE
S1071670F894FFCF18
S1071674010000006D
S9030000FC
