S00F00007363626F756E642E7372656327
S113000045C0000060C000005EC000005CC000008D
S11300105AC0000058C0000056C0000054C0000080
S113002052C0000050C000004EC000004CC0000090
S11300304AC00000E0C0000046C0000044C0000008
S113004042C0000040C000003EC000003CC00000B0
S11300503AC0000038C0000036C0000034C00000C0
S113006032C0000030C000002EC000002CC00000D0
S11300702AC0000028C0000026C0000024C00000E0
S113008022C0000020C000001EC0000011241FBEBA
S1130090CFEFD0E4DEBFCDBF11E0A0E0B1E0EEEBE6
S11300A0F0E100E00BBF02C007900D92A430B1074D
S11300B0D9F721E0A4E0B1E001C01D92AA3FB20744
S11300C0E1F79DD5FAC79CCF009721F081309105C7
S11300D049F005C0109205011092040103C081305B
S11300E09105F1F48091040190910501019690939A
S11300F00501809304018091090190910A01A09166
S11301000B01B0910C010196A11DB11D8093090151
S113011090930A01A0930B01B0930C0181E090E04D
S11301200895E1E1F1E01182108281E090E0A0E025
S1130130B0E082839383A483B58386839783A08767
S1130140B18784E690E09387828708958BE080935B
S113015081008DE790E0909389008093880082E08D
S113016080936F00109285001092840080910001AA
S113017090910101A0910201B091030180930D01BE
S113018090930E01A0930F01B09310018FB7806874
S11301908FBF0895CF93DF93E1E1F1E086819781EA
S11301A0A085B18542815381648175818417950747
S11301B0A607B70790F0EF010284F385E02D88814C
S11301C0998109959983888381E090E0A0E0B0E06B
S11301D08E839F83A887B9870BC00196A11DB11D8B
S11301E08093170190931801A0931901B0931A01F9
S11301F0DF91CF9108951F920F920FB60F921124A1
S11302000BB60F922F933F934F935F936F937F930C
S11302108F939F93AF93BF93EF93FF9380910D01BF
S113022090910E01A0910F01B09110010197A109C5
S1130230B10980930D0190930E01A0930F01B09327
S11302401001892B8A2B8B2B89F4A4DF8091000168
S113025090910101A0910201B091030180930D01DD
S113026090930E01A0930F01B0931001FF91EF91B1
S1130270BF91AF919F918F917F916F915F914F91BA
S11302803F912F910F900BBE0F900FBE0F901F90B8
S11302901895CF93DF93CDB7DEB760970FB6F89478
S11302A0DEBF0FBECDBF29873A874B875C876D873A
S11302B07E878F87988BFE0139969E012F5E3F4F74
S11302C08FEF8193E217F307E1F788E0FE01399697
S11302D0DE01119601900D928A95E1F729813A8108
S11302E04B815C816D817E818F81988560960FB68C
S11302F0F894DEBF0FBECDBFDF91CF910895EF928A
S1130300FF920F931F93CF93DF93CDB7DEB72A9756
S11303100FB6F894DEBF0FBECDBFBC01E982FA82EE
S11303200B831C832D833E834F835887FE013196B4
S11303309E01275F3F4F9FEF9193E217F307E1F789
S11303409981977F9983198683E08A878AE0FE01E1
S11303503196DB0101900D928A95E1F7CB012A9643
S11303600FB6F894DEBF0FBECDBFDF91CF911F91C2
S11303700F91FF90EF90089585B9299A15B80895C3
S113038020E030E0E1E0F0E071E060E0AF01022E57
S113039002C0440F551F0A94E2F74823972F09F42B
S11303A0962F95B9299A65B92F5F3F4F28303105AB
S11303B069F784E085B90895CF93C8E081E0DCDF74
S11303C0C150E1F784E085B9CF910895F5DFF4DFFA
S11303D0F3CF08950F931F93CF93DF93182FC92F53
S11303E0062FD42FF3DF51E001C0550F0A95EAF729
S11303F0E12FFC2F20E030E0C0E0A1E0B0E09191DB
S1130400952349F0CD01022E02C0880F991F0A944A
S1130410E2F7C82B09C0BD01022E02C0660F771F88
S11304200A94E2F76095C6232F5F3F4F28303105C9
S113043031F7D13071F018F0D23031F00EC0BCDF9A
S11304408C2F9EDFB9DF09C08C2F9ADFB5DFB4DFB4
S113045004C0B2DFB1DF8C2F93DFDF91CF911F9106
S11304600F910895CF92DF92FF920F931F93CF9332
S1130470DF936C01F62EC0E0D0E001E010E09801BB
S11304800C2E02C0220F331F0A94E2F728B94F2D15
S11304906C2FC6019FDF8FE891E00197F1F700C050
S11304A0000094DF2196C830D10549F7DF91CF9140
S11304B01F910F91FF90DF90CF900895CF93DF931A
S11304C0CDB7DEB79C0192E19150F1F7C754DF4FED
S11304D01882C95BD040C654DF4F1882CA5BD04033
S11304E086EBFE013596D90101900D928A95E1F7CC
S11304F0C901DF91CF910895813081F0E1ECF0E002
S1130500808188618083E2ECF0E080818660808372
S113051083E38093C4001092C5000895E9ECF0E0F1
S1130520808188618083EAECF0E08081866080834A
S113053083E38093CC001092CD000895613041F0A4
S1130540E0ECF0E0908195FFFDCF8093C600089524
S1130550E8ECF0E0908195FFFDCF8093CE00089504
S1130560813041F0E0ECF0E080818823ECF7809169
S1130570C6000895E8ECF0E080818823ECF78091D0
S1130580CE000895EF92FF920F931F93CF93DF93C2
S1130590CDB7DEB72A970FB6F894DEBF0FBECDBF36
S11305A080910801811141C0E7EEF1E021E030E0E3
S11305B0018402C0220F331F0A94E2F79091E601EE
S11305C0E085F0E048E0949FE00DF11D1124EF5C1C
S11305D0FE4F9081292361F5E090E701F090E80156
S11305E00091E9011091EA012091EB013091EC01B5
S11305F04091ED015091EE016091EF017091F00195
S1130600CE0101967CDE8AE0FE013196A7EEB1E0D0
S113061001900D928A95E1F78091C00085FF07C093
S113062060E080E08BDF81E003C080E001C081E016
S11306302A960FB6F894DEBF0FBECDBFDF91CF91DF
S11306401F910F91FF90EF900895CF92DF92EF9258
S1130650FF920F931F93CF93DF93CDB7DEB78C0137
S1130660C154DF4F8881CF5BD040811109C086EB34
S1130670FE013B96D80101900D928A95E1F7A6C040
S1130680C054DF4F9881C05CD040981728F0C05404
S1130690DF4F1882C05CD04080910801811112C0E4
S11306A0C054DF4F8881C05CD04060E02BE030E074
S11306B02C0F3D1F48E0849F200D311D1124C901DA
S11306C0D1DE07C0813009F079C060E080E291E0BA
S11306D0C9DE8091080181113CC0C054DF4F88817C
S11306E0C05CD040EDEAF0E0EC0FFD1FE80FF11D17
S11306F0208130E0A901440F551F220F331F220F20
S1130700331F220F331F420F531F052E000C660B9D
S1130710770BC0900901D0900A01E0900B01F09092
S11307200C01C416D506E606F70608F447C091E0A6
S1130730909308018F5FC054DF4F8883C05CD04022
S11307401092090110920A0110920B0110920C01EF
S113075035C0813099F5C054DF4F8881C05CD040EA
S1130760EBE9F0E0EC0FFD1FE80FF11D208130E014
S1130770C901880F991F220F331F220F331F220F25
S1130780331F820F931F092E000CAA0BBB0B409141
S1130790090150910A0160910B0170910C014817F5
S11307A059076A077B0750F010920801109209015B
S11307B010920A0110920B0110920C0186EBFE01BB
S11307C03B96D80101900D928A95E1F7C801DF911B
S11307D0CF911F910F91FF90EF90DF90CF900895EC
S11307E0CF93DF93CDB7DEB7C65BD1090FB6F894CC
S11307F0DEBF0FBECDBF8091F901813041F018F00A
S1130800823071F020C081E08093F90148C080916A
S11308102801882309F443C082E08093F90117C0BA
S113082080912801811113C081E08093F90160E077
S113083080E291E017DE62E080E291E013DE61E0A5
S113084080E291E00FDE8091F901823041F58DB7AD
S11308509EB7865B91090FB6F8949EBF0FBE8DBFFD
S1130860ADB7BEB7119686EBE1E3F1E001900D92CE
S11308708A95E1F7CE010196E8DE86EBFE0131961A
S1130880A1E3B1E001900D928A95E1F70FB6F894D7
S1130890DEBF0FBECDBF61E081EF91E0E3DDCA545E
S11308A0DF4F0FB6F894DEBF0FBECDBFDF91CF91FF
S11308B00895EF92FF920F931F93CF93DF93CDB7D9
S11308C0DEB7C05CD1090FB6F894DEBF0FBECDBF52
S11308D080911D01813051F018F0823091F144C0B3
S11308E081E080931D0110921F013EC080911F0181
S11308F0882309F46AC082E080931D01E090E70137
S1130900F090E8010091E9011091EA012091EB01D6
S11309103091EC014091ED015091EE016091EF01B5
S11309207091F001CE010196EADC8AE0FE01319675
S1130930A7EEB1E001900D928A95E1F71092E601DD
S113094013C080911F01811113C081E080931D01A8
S113095060E080E291E086DD62E080E291E082DDA9
S113096061E080E291E07EDD80911D01823069F5D5
S11309708DB79EB7865B91090FB6F8949EBF0FBEE4
S11309808DBFADB7BEB7119686EBE1E3F1E0019000
S11309900D928A95E1F7CE010B9657DE86EBFE01A8
S11309A03B96A1E3B1E001900D928A95E1F70FB671
S11309B0F894DEBF0FBECDBFE5DD62E087EE91E0C7
S11309C051DD61E081EF91E04DDDC054DF4F0FB6A2
S11309D0F894DEBF0FBECDBFDF91CF911F910F9171
S11309E0FF90EF9008953F924F925F926F927F92A3
S11309F08F929F92AF92BF92CF92DF92EF92FF922B
S1130A000F931F93CF93DF93CDB7DEB7CA52D24073
S1130A100FB6F894DEBF0FBECDBFA09006012AEF3B
S1130A20A29E50011124C50101963FD38093070172
S1130A30750182E0E80EF11C01EF11E00F2EF9EFD1
S1130A40CF2EF1E0DF2EF02DC7012FD3F8018193D3
S1130A508F01FFEFEF1AFF0A0C151D05A9F78DB7DB
S1130A609EB7865B91090FB6F8949EBF0FBE8DBFEB
S1130A70ADB7BEB7119686EBE1E3F1E001900D92BC
S1130A808A95E1F7CE018B589E4F18DD86EBFE0167
S1130A90EB58FE4FA1E3B1E001900D928A95E1F786
S1130AA09BE0A90EB11C0FB6F894DEBF0FBECDBFFC
S1130AB08091070181116BC089C0C701800F911F0C
S1130AC0F4D2F80181938F01EC15FD05B1F7C5014E
S1130AD00896EBD2182FC5010996E7D2E1E3F1E0BD
S1130AE0DE01A954BF4F952D01900D929A95E1F71F
S1130AF0F3019081F401DE01A359BE4F232D01902F
S1130B000D922A95E1F7A7EBB0E0AC0FBD1FF8E01A
S1130B109F9FA00DB11D1124FE01E359FE4F232D0B
S1130B2001900D922A95E1F727EB30E02C0F3D1F41
S1130B30290F311DF901E057FF4F1083729680830E
S1130B409F5FC559DE4F9883CB56D140FE01E954CF
S1130B50FF4FDE011196852D01900D928A95E1F7E4
S1130B60CB54DF4F9883C55BD040FE013196A1E39F
S1130B70B1E0852D01900D928A95E1F72AE0A20E4D
S1130B80B11C4394809107014816D8F01FC0412C32
S1130B900F2EF9E28F2EF1E09F2EF02D0F2EF1E3B0
S1130BA0CF2EF1E0DF2EF02D0F2EF6EB5F2EF02D81
S1130BB00F2EF5EE6F2EF1E07F2EF02D6894332486
S1130BC033F884017501E818F90877CFC65DDD4F65
S1130BD00FB6F894DEBF0FBECDBFDF91CF911F914A
S1130BE00F91FF90EF90DF90CF90BF90AF909F90C8
S1130BF08F907F906F905F904F903F900895CF9328
S1130C00DF93CDB7DEB7CB52D2400FB6F894DEBF38
S1130C100FBECDBF8FEF84B915B88AB91BB887B999
S1130C2018B880E069DC7DDA81E090E0A0E0B0E013
S1130C308093000190930101A0930201B0930301FA
S1130C4080930D0190930E01A0930F01B0931001B6
S1130C507DDA10921D0120912001309121014091F3
S1130C60220150912301609124017091250180910A
S1130C702601909127010DDBE0E2F1E0208331832E
S1130C804283538364837583868397838DB79EB72A
S1130C90865B91090FB6F8949EBF0FBE8DBFADB7AA
S1130CA0BEB7119686EBE1E3F1E001900D928A95CF
S1130CB0E1F7CE018B589E4F01DC86EBFE01EB5829
S1130CC0FE4FA1E3B1E001900D928A95E1F70FB6D2
S1130CD0F894DEBF0FBECDBF2091F1013091F20137
S1130CE04091F3015091F4016091F5017091F60186
S1130CF08091F7019091F801CCDAE1EFF1E02083E3
S1130D00318342835383648375838683978381E02D
S1130D1090E0CBD1682E809307010F2EF1EFEF2ED8
S1130D20F1E0FF2EF02D02E010E0C801BED1F70182
S1130D3081937F010F5F1F4F0A301105B1F76110D6
S1130D4072C097C0C401800F911FAFD1D8018D9399
S1130D508D01A215B305B1F7C6010896A6D1182FC7
S1130D60C6010996A2D1E1E3F1E0DE01A954BF4F27
S1130D70972D01900D929A95E1F7E5EEF1E09081BF
S1130D80F701DE01A359BE4F252D01900D922A953E
S1130D90E1F7A7EBB0E0AC0FBD1FF8E09F9FA00DFB
S1130DA0B11D1124FE01E359FE4F252D01900D9232
S1130DB02A95E1F727EB30E02C0F3D1F290F311D59
S1130DC0F901E057FF4F1083729680839F5FC559E6
S1130DD0DE4F9883CB56D140FE01E954FF4FDE012C
S1130DE01196872D01900D928A95E1F7CB54DF4F30
S1130DF09883C55BD040FE013196A1E3B1E0872D15
S1130E0001900D928A95E1F7C55DDD4F2881CB52A3
S1130E10D240265FC55DDD4F2883CB52D240439438
S1130E2046101BC026C0412C8BE0C55DDD4F888376
S1130E30CB52D2400F2EF9E2EF2EF1E0FF2EF02D2F
S1130E400F2EF1E32F2EF1E03F2EF02D0F2EF6EBB7
S1130E507F2EF02D6894552453F88701C55DDD4F2E
S1130E609881CB52D240C92ED12C46018E189F08AE
S1130E7069CFE090E701F090E8010091E901109159
S1130E80EA012091EB013091EC014091ED01509188
S1130E90EE016091EF017091F001CE018B589E4FED
S1130EA02EDA8AE0FE01EB58FE4FA7EEB1E0019086
S1130EB00D928A95E1F700EC10E00F2EFAEFAF2EB9
S1130EC0F02DBB24B3940F2EF7EEEF2EF1E0FF2E9E
S1130ED0F02DCC24C394D12CECDC82DCD8018C9191
S1130EE08823D4F780E03CDB80931E01811128C065
S1130EF0D7011896EC911897E73070F7C601199648
S1130F000C9002C0880F991F0A94E2F7AE2FB0E04C
S1130F10AF50BE4F11962C912823F1F2EF5FD70109
S1130F201896EC93F0E0DF01AA51BE4F9C91982BE8
S1130F309C93E951FE4F8095908189238083CCCF87
S1130F40813049F5F7012185273030F661E0620FE1
S1130F50808590E0A601062E02C0440F551F0A9416
S1130F60E2F7FC01EF50FE4F3081342309F4B4CF93
S1130F70D70119966C93FC01E951FE4F4095C601C7
S1130F8002C0880F991F2A95E2F79C018081282BC3
S1130F9042234083A1CF823049F5D7011896EC91C2
S1130FA01897EE2309F498CFC60119960C9002C045
S1130FB0880F991F0A94E2F7AE2FB0E0A051BE4FFC
S1130FC02C91282309F488CFE150D7011896EC938B
S1130FD0F0E0DF01A851BE4F9C91982B9C93E951FE
S1130FE0FE4F809590818923808376CF833051F59D
S1130FF0F7012185222309F46FCF6FEF620F8085FB
S113100090E0A601062E02C0440F551F0A94E2F791
S1131010FC01EF50FE4F3081342309F45DCFD7013A
S113102019966C93FC01E951FE4F4095C60102C02C
S1131030880F991F2A95E2F79C018081282B42236F
S113104040834ACF843019F4B0921F0145CF8530D4
S113105019F410921F0140CF863019F4B092280180
S11310603BCF873019F41092280136CF883081F4B1
S113107090900601A99CC001112485509F4F15D062
S1131080882309F429CF939490920601ACDC24CFF1
S1131090893009F021CF80910601882309F41CCFFF
S11310A08150809306019FDC17CFF999FECF92BD42
S11110B081BDF89A992780B50895F894FFCF72
S10710BE0100000029
S9030000FC
