:1000000045C0000062C0000060C000005EC000008B
:100010005CC000005AC0000058C0000056C000007C
:1000200054C0000052C0000050C000004EC000008C
:100030004CC00000E2C0000048C0000046C0000004
:1000400044C0000042C0000040C000003EC00000AC
:100050003CC000003AC0000038C0000036C00000BC
:1000600034C0000032C0000030C000002EC00000CC
:100070002CC000002AC0000028C0000026C00000DC
:1000800024C0000022C0000020C0000011241FBEB8
:10009000CFEFD0E4DEBFCDBF11E0A0E0B1E0E0EEF5
:1000A000F8E100E00BBF02C007900D92A430B10749
:1000B000D9F722E0A4E0B1E001C01D92A130B2075F
:1000C000E1F70E94E30B0C946E0C9ACF009721F09D
:1000D0008130910549F005C010920501109204018C
:1000E00003C081309105F1F48091040190910501E4
:1000F0000A969093050180930401809110019091DC
:100100001101A0911201B09113010A96A11DB11D18
:100110008093100190931101A0931201B0931301E9
:1001200081E090E00895E8E1F1E0118210828AE038
:1001300090E0A0E0B0E082839383A483B5838683BC
:100140009783A087B18786E690E09387828708959A
:100150008BE0809381008DE790E0909389008093FD
:10016000880082E080936F001092850010928400D6
:100170008091000190910101A0910201B0910301D1
:100180008093140190931501A0931601B093170169
:100190008FB780688FBF0895CF93DF93E8E1F1E0D8
:1001A00086819781A085B185428153816481758163
:1001B00084179507A607B70790F0EF010284F3852F
:1001C000E02D888199810995998388838AE090E060
:1001D000A0E0B0E08E839F83A887B9870BC00A9602
:1001E000A11DB11D80931E0190931F01A0932001BA
:1001F000B0932101DF91CF9108951F920F920FB616
:100200000F9211240BB60F922F933F934F935F934E
:100210006F937F938F939F93AF93BF93EF93FF93CE
:100220008091140190911501A0911601B0911701D0
:100230000197A109B1098093140190931501A0932E
:100240001601B0931701892B8A2B8B2B89F4A4DF1D
:100250008091000190910101A0910201B0910301F0
:100260008093140190931501A0931601B093170188
:10027000FF91EF91BF91AF919F918F917F916F917E
:100280005F914F913F912F910F900BBE0F900FBE3A
:100290000F901F901895CF93DF93CDB7DEB760977F
:1002A0000FB6F894DEBF0FBECDBF29873A874B87C4
:1002B0005C876D877E878F87988BFE0139969E01BC
:1002C0002F5E3F4F8FEF8193E217F307E1F788E04E
:1002D000FE013996DE01119601900D928A95E1F7A3
:1002E00029813A814B815C816D817E818F819885E6
:1002F00060960FB6F894DEBF0FBECDBFDF91CF91F1
:100300000895EF92FF920F931F93CF93DF93CDB792
:10031000DEB72A970FB6F894DEBF0FBECDBFBC0183
:10032000E982FA820B831C832D833E834F83588797
:10033000FE0131969E01275F3F4F9FEF9193E21799
:10034000F307E1F79981977F9983198683E08A877C
:100350008AE0FE013196DB0101900D928A95E1F76A
:10036000CB012A960FB6F894DEBF0FBECDBFDF914A
:10037000CF911F910F91FF90EF90089585B9299A21
:1003800015B8089520E030E0E1E0F0E071E060E0D1
:10039000AF01022E02C0440F551F0A94E2F7482312
:1003A000972F09F4962F95B9299A65B92F5F3F4F7A
:1003B0002830310569F784E085B90895CF93C8E006
:1003C00081E0DCDFC150E1F784E085B9CF91089589
:1003D000F5DFF4DFF3CF08950F931F93CF93DF93EF
:1003E000182FC92F062FD42FF3DF51E001C0550F6E
:1003F0000A95EAF7E12FFC2F20E030E0C0E0A1E011
:10040000B0E09191952349F0CD01022E02C0880FF2
:10041000991F0A94E2F7C82B09C0BD01022E02C041
:10042000660F771F0A94E2F76095C6232F5F3F4F50
:100430002830310531F7D13071F018F0D23031F079
:100440000EC0BCDF8C2F9EDFB9DF09C08C2F9ADF76
:10045000B5DFB4DF04C0B2DFB1DF8C2F93DFDF91F3
:10046000CF911F910F910895CF92DF92FF920F933A
:100470001F93CF93DF936C01F62EC0E0D0E001E034
:1004800010E098010C2E02C0220F331F0A94E2F7ED
:1004900028B94F2D6C2FC6019FDF8FE891E001979F
:1004A000F1F700C0000094DF2196C830D10549F76C
:1004B000DF91CF911F910F91FF90DF90CF90089522
:1004C000CF93DF93CDB7DEB79C0192E19150F1F766
:1004D000C754DF4F1882C95BD040C654DF4F188223
:1004E000CA5BD04086EBFE013596D90101900D9292
:1004F0008A95E1F7C901DF91CF910895813081F0AC
:10050000E1ECF0E0808188618083E2ECF0E08081C2
:100510008660808383E38093C4001092C5000895B1
:10052000E9ECF0E0808188618083EAECF0E0808192
:100530008660808383E38093CC001092CD00089581
:10054000613041F0E0ECF0E0908195FFFDCF8093C9
:10055000C6000895E8ECF0E0908195FFFDCF809310
:10056000CE000895813041F0E0ECF0E080818823F6
:10057000ECF78091C6000895E8ECF0E080818823D4
:10058000ECF78091CE000895EF92FF920F931F93A6
:10059000CF93DF93CDB7DEB72A970FB6F894DEBFBF
:1005A0000FBECDBF80910F01811140C0EEEEF1E092
:1005B00081E090E0018402C0880F991F0A94E2F75D
:1005C0009091ED01E085F0E028E0929FE00DF11DB3
:1005D0001124E85CFE4F9081892341F5E090EE0103
:1005E000F090EF010091F0011091F1012091F201E2
:1005F0003091F3014091F4015091F5016091F601C1
:100600007091F701CE0101967CDE8AE0FE01319601
:10061000AEEEB1E001900D928A95E1F7E0ECF0E0EA
:10062000808185FFFDCF60E080E08ADF2A960FB6EB
:10063000F894DEBF0FBECDBFDF91CF911F910F9118
:10064000FF90EF900895CF92DF92EF92FF920F9379
:100650001F93CF93DF93CDB7DEB78C01C154DF4F2B
:100660008881CF5BD040811109C086EBFE013B96AB
:10067000D80101900D928A95E1F7A6C0C054DF4FD2
:100680009881C05CD040981728F0C054DF4F188282
:10069000C05CD04080910F01811112C0C054DF4F67
:1006A0008881C05CD04060E02BE030E02C0F3D1F23
:1006B00048E0849F200D311D1124C901D5DE07C0FB
:1006C000813009F079C060E087E291E0CDDE809171
:1006D0000F0181113CC0C054DF4F8881C05CD04005
:1006E000EDEAF0E0EC0FFD1FE80FF11D208130E096
:1006F000A901440F551F220F331F220F331F220F52
:10070000331F420F531F052E000C660B770BC09052
:100710001001D0901101E0901201F0901301C41665
:10072000D506E606F70608F447C091E090930F015E
:100730008F5FC054DF4F8883C05CD040109210019F
:1007400010921101109212011092130135C08130E4
:1007500099F5C054DF4F8881C05CD040EBE9F0E0F0
:10076000EC0FFD1FE80FF11D208130E0C901880F5B
:10077000991F220F331F220F331F220F331F820FA7
:10078000931F092E000CAA0BBB0B40911001509136
:1007900011016091120170911301481759076A07FE
:1007A0007B0750F010920F0110921001109211016E
:1007B000109212011092130186EBFE013B96D801B4
:1007C00001900D928A95E1F7C801DF91CF911F91B9
:1007D0000F91FF90EF90DF90CF900895CF93DF932C
:1007E000F999FECFC1E0D0E007C090910E019F5F64
:1007F00090930E01C650DF4FCE010E94540C811120
:10080000F4CFDF91CF91089580910C0190E0880F93
:10081000991F880F991F880F991F60E0885C9E4F71
:1008200023DE61E088EF91E01FCE089562E08EEE56
:1008300091E01ACE08952F923F924F925F926F925D
:100840007F928F929F92AF92BF92CF92DF92EF9260
:10085000FF920F931F93CF93DF93CDB7DEB7CA52AA
:10086000D2400FB6F894DEBF0FBECDBFA0900D01F1
:100870002AEFA29E50011124F999FECFC5010196DD
:100880000E94540C282E750182E0E80EF11C08EF3E
:1008900011E00F2EF0E0CF2EF2E0DF2EF02DF999CF
:1008A000FECFC7010E94540CF80181938F01FFEF26
:1008B000EF1AFF0A0C151D0591F78DB79EB7865BE1
:1008C00091090FB6F8949EBF0FBE8DBFADB7BEB7EE
:1008D000119686EBE8E3F1E001900D928A95E1F73D
:1008E000CE018B589E4FECDD86EBFE01EB58FE4FA0
:1008F000A8E3B1E001900D928A95E1F79BE0A90E83
:10090000B11C0FB6F894DEBF0FBECDBF21106FC073
:100910008DC0F999FECFC701800F911FC5D7F8018F
:1009200081938F01EC15FD05A1F7F999FECFC50163
:100930000896BAD7182FF999FECFC5010996B4D7F2
:10094000E8E3F1E0DE01A954BF4F952D01900D922F
:100950009A95E1F7F3019081F401DE01A359BE4FAE
:10096000232D01900D922A95E1F7A7EBB0E0AC0F93
:10097000BD1FF8E09F9FA00DB11D1124FE01E3599A
:10098000FE4F232D01900D922A95E1F727EB30E0E1
:100990002C0F3D1F290F311DF901E057FF4F108328
:1009A000729680839F5FC559DE4F9883CB56D140A6
:1009B000FE01E954FF4FDE011196852D01900D9245
:1009C0008A95E1F7CB54DF4F9883C55BD040FE0199
:1009D0003196A8E3B1E0852D01900D928A95E1F75B
:1009E0002AE0A20EB11C439442101BC01FC0412C30
:1009F0000F2EF0E38F2EF1E09F2EF02D0F2EF8E357
:100A0000CF2EF1E0DF2EF02D0F2EF6EB5F2EF02D26
:100A10000F2EFCEE6F2EF1E07F2EF02D6894332424
:100A200033F884017501E818F90873CFC65DDD4F0E
:100A30000FB6F894DEBF0FBECDBFDF91CF911F91EF
:100A40000F91FF90EF90DF90CF90BF90AF909F906D
:100A50008F907F906F905F904F903F902F90089570
:100A6000EF92FF920F931F93CF93DF93CDB7DEB733
:100A70002A970FB6F894DEBF0FBECDBF8091F60166
:100A80008730C9F5F999FECF10910D012AEF129F19
:100A9000C001112485509F4F07D7882361F11F5F44
:100AA00010930D01C8DEE090EE01F090EF0100918F
:100AB000F0011091F1012091F2013091F301409188
:100AC000F4015091F5016091F6017091F701CE01AA
:100AD000019617DC8AE0FE013196AEEEB1E001909E
:100AE0000D928A95E1F7E0ECF0E0808185FFFDCF83
:100AF00060E082E325DD2A960FB6F894DEBF0FBED4
:100B0000CDBFDF91CF911F910F91FF90EF9008958E
:100B1000EF92FF920F931F93CF93DF9380910E017B
:100B20008A30B8F5F999FECF01E010E004C0065014
:100B30001F4FF999FECFC801B7D68111F8CFF999A7
:100B4000FECF61E0C801B8D6E8012A96780182E1BB
:100B5000E80EF11CF999FECF6FEFCE010997ACD6E4
:100B6000F999FECF6FEFCE01A7D62196CE15DF05FE
:100B700089F7F999FECF60E0C7019ED6F999FECFBB
:100B800060E0C801439698D680910E018F5F8093F4
:100B90000E01DF91CF911F910F91FF90EF9008957B
:100BA000AF92BF92CF92DF92EF92FF921F93CF93BB
:100BB000DF93C0910D018AEFC89FE0011124F999DC
:100BC000FECF6E018FEFC81AD80AC6016DD6182F56
:100BD000823108F03FC07E018BE0E80EF11C11234A
:100BE00099F190E09F5F9113FDCF65962FEF210F54
:100BF00030E07901EE0CFF1C220F331F220F331F50
:100C0000220F331F2E0D3F1D7E01E20EF31E1CC06E
:100C1000F999FECF6FEFCE014FD62196CA15DB05AD
:100C2000B9F7F999FECF60E0C50146D6F999FECF34
:100C300060E0C701099640D661E0610FF999FECFE7
:100C4000C6013AD6F8DD06C0570188E0A80EB11CEF
:100C5000E701DECFDF91CF911F91FF90EF90DF9002
:100C6000CF90BF90AF9008958F929F92BF92CF92F6
:100C7000DF92EF92FF920F931F93CF93DF93E09059
:100C80000D018AEFE89E70011124F999FECF47010A
:100C90008FEF881A980AC40107D6C82E81E08C15F8
:100CA00008F04BC08BE0E80EF11CB0900C01BB20AB
:100CB000A9F090E09F5F9B11FDCF8FEF8B0D90E02F
:100CC0009C01220F331F880F991F880F991F880FCF
:100CD000991F820F931F0A96E80EF91EBC14C8F0E4
:100CE000C0E01DC0F999FECFCE010A96DDD5682F70
:100CF000F999FECFCE01E0D52196C017D10791F723
:100D0000D3948AE0E80EF11CDC1420F0CC2DCB1932
:100D100006C0DB2C8701085F1F4FE701E3CF6FEFB1
:100D20006C0DF999FECFC401C7D5C13029F480916B
:100D30000C01815080930C017EDDDF91CF911F91DA
:100D40000F91FF90EF90DF90CF90BF909F908F908A
:100D500008950F931F93CF93DF9300910D018AEFB6
:100D6000089F80011124055F1F4F90910C0199236A
:100D700061F180E08F5F8913FDCF9150892F90E062
:100D80009C01220F331F880F991F880F991F880F0E
:100D9000991F820F931F0A96080F191F16C0F99901
:100DA000FECF80910C01FE0198E0899FE00DF11DBE
:100DB0001124E85CFE4F6081CE01800F911F7CD52D
:100DC0002196C830D10559F703C0C0E0D0E0E7CF85
:100DD000DF91CF911F910F910895EF92FF920F93A2
:100DE0001F93CF93DF9308EF11E0C0910D018AEFBD
:100DF000C89FE001112422960F2EF0E0EF2EF2E0C2
:100E0000FF2EF02DF999FECFF80161918F01CE01EF
:100E100053D521960E151F05A9F7DF91CF911F918C
:100E20000F91FF90EF900895882351F0E0910C010D
:100E3000AE2FB0E0A853BE4F9C91933658F0089562
:100E4000E0910C01AE2FB0E0A853BE4F9C919111E0
:100E500028C0089520910D019AEF299F9001112437
:100E60002D5E3F4FEE2341F090E0265F3F4F9F5FA6
:100E70009E17D8F3882339F0F0E0E853FE4F8081C5
:100E80008F5F808306C0F0E0E853FE4F8081815081
:100E90008083309308012093070181E0809306014D
:100EA000089520910D019AEF299F900111242D5E44
:100EB0003F4FE111D9CFE7CF882351F0E0910C01EA
:100EC000AE2FB0E0A652BE4F9C91933658F00895D5
:100ED000E0910C01AE2FB0E0A652BE4F9C91911153
:100EE00028C0089520910D019AEF299F90011124A7
:100EF0002C5E3F4FEE2341F090E0265F3F4F9F5F17
:100F00009E17D8F3882339F0F0E0E652FE4F808137
:100F10008F5F808306C0F0E0E652FE4F80818150F3
:100F2000808330930B0120930A0181E080930901B3
:100F3000089520910D019AEF299F900111242C5EB4
:100F40003F4FE111D9CFE7CFCF93DF93CDB7DEB7D6
:100F5000C65BD1090FB6F894DEBF0FBECDBF8DB70B
:100F60009EB7865B91090FB6F8949EBF0FBE8DBFEA
:100F7000ADB7BEB7119686EBE8E3F1E001900D92B4
:100F80008A95E1F7CE0101965EDB86EBFE01319694
:100F9000A8E3B1E001900D928A95E1F70FB6F894BD
:100FA000DEBF0FBECDBF61E088EF91E05DDACA54CD
:100FB000DF4F0FB6F894DEBF0FBECDBFDF91CF91EC
:100FC0000895C2DFE1DA4CDD62E08EEE91E04CCABA
:100FD000089562E087E291E047DA61E087E291E01C
:100FE00043DA60E087E291E03FCA0895EF92FF9212
:100FF0000F931F93CF93DF93CDB7DEB72A970FB62A
:10100000F894DEBF0FBECDBF80912401813051F036
:1010100018F08230A1F13BC081E08093240110924E
:10102000260135C0809126018823B1F182E08093AA
:101030002401E090EE01F090EF010091F001109199
:10104000F1012091F2013091F3014091F4015091AE
:10105000F5016091F6017091F701CE01019651D929
:101060008AE0FE013196AEEEB1E001900D928A95D4
:10107000E1F71092ED0110920D01DDDB08C08091C7
:101080002601811108C081E080932401A2DF8091B4
:101090002401823009F495DF2A960FB6F894DEBF5A
:1010A0000FBECDBFDF91CF911F910F91FF90EF90B9
:1010B0000895E0ECF0E0808185FFFDCF60E0809155
:1010C0000D013EDAE0ECF0E0808185FFFDCFF9997B
:1010D000FECF80910D012AEF829FC001112401965D
:1010E000E3D360E080682CCA0895CF92DF92EF923C
:1010F000FF920F931F93CF93DF9380910E01823065
:1011000008F443C000910D018AEF089F800111246B
:10111000F999FECF05501F4F11C0F999FECFC701B5
:101120008C0F9D1FC1D3682FF999FECFCE01C4D378
:101130002196C017D10789F706501F4F780181E02B
:10114000E81AF10868018BEFC81AD108C801ACD3BE
:10115000882331F0E801CA5FD109EC18FD08DDCF22
:10116000F999FECF60E0C6010196A6D380910E01E9
:101170009FEF980F90930E0120910D01921303C0E1
:10118000825080930D0157DB94DFDF91CF911F9147
:101190000F91FF90EF90DF90CF900895E0ECF0E09A
:1011A000808185FFFDCFE0910C01F0E0E652FE4F1B
:1011B00060E08081C5D9E0ECF0E0808185FFFDCF63
:1011C000E0910C01F0E0E853FE4F808160E0806820
:1011D000B7C90895E0ECF0E0808185FFFDCFE09194
:1011E0000C01F0E0E853FE4F808160E08068A8C900
:1011F000089580910601882379F0F999FECFE09156
:101200000C01F0E0E853FE4F60818091070190915E
:10121000080152D31092060180910901882379F0C8
:10122000F999FECFE0910C01F0E0E652FE4F6081AB
:1012300080910A0190910B013FD31092090108950A
:1012400080910002823091F128F4882351F081309E
:1012500079F080C0833009F449C0843009F461C05A
:1012600079C081E08093000210922F01B2DE72C03B
:1012700080912F01882309F47BC0813051F482E0F2
:101280008093000210920D011092ED01D4DA11DF6B
:1012900061C0823021F483E08093000265C0833016
:1012A00009F066C084E08093000260C080912F0145
:1012B000811105C081E0809300028BDE4BC081303C
:1012C00009F450C0823059F483E0809300021092F8
:1012D00009011092060110920C0160DF3BC08330BF
:1012E00009F040C084E08093000240C080912F014B
:1012F000811106C081E0809300026BDE7ADF2AC094
:10130000813041F482E08093000273DFD2DE1092DC
:10131000ED0120C0833041F584E08093000269DF55
:1013200019C080912F01811107C081E080930002D4
:1013300010DD53DD4EDE0EC0813021F482E080935B
:10134000000210C0823091F483E08093000226DF17
:1013500000DD43DD80910002833031F0843031F0D4
:10136000823031F4F1CD08954FCA08954DDA5ECA46
:1013700008958823C1F1E091F601E73008F067C0D5
:1013800080912F01833091F081E090E00090F7018F
:1013900002C0880F991F0A94E2F7AE2FB0E0A85060
:1013A000BE4F11969C91892309F451C0EF5FAEEEB8
:1013B000B1E01896EC931897F0E081E090E0199670
:1013C0000C9002C0880F991F0A94E2F7DF01A35125
:1013D000BE4F9C91982B9C93E251FE4F809590813B
:1013E000892380830895E091F601EE2381F18091B5
:1013F0002F01833081F081E090E00090F70102C07E
:10140000880F991F0A94E2F7AE2FB0E0A950BE4FA3
:101410009C918923E1F0E150AEEEB1E01896EC9397
:101420001897F0E081E090E019960C9002C0880FC8
:10143000991F0A94E2F7DF01A151BE4F9C91982BAE
:101440009C93E251FE4F809590818923808308957B
:101450008823B9F18091F701873008F066C0909138
:101460002F01933091F091E0980F21E030E002C01D
:10147000220F331F9A95E2F7E091F601F0E0E85071
:10148000FE4F9081292309F450C091E0980FEEEEB1
:10149000F1E09187E085F0E0E251FE4F21E030E09D
:1014A000A90102C0440F551F9A95E2F7409502C06A
:1014B000220F331F8A95E2F78081282B2423208373
:1014C00008952091F701222381F180912F0183302B
:1014D00089F03FEF320F81E090E002C0880F991F42
:1014E0003A95E2F7E091F601F0E0E850FE4F908186
:1014F0008923D9F03FEF320FEEEEF1E03187E0853E
:10150000F0E0E251FE4F81E090E0AC0102C0440FF8
:10151000551F3A95E2F7409502C0880F991F2A950A
:10152000E2F79081892B842380830895CF93F999E2
:10153000FECF882389F0C0910D012AEFC29FC00120
:10154000112485509F4FB0D1882379F0CF5FC0938D
:101550000D0171D9AEDD09C080910D01882329F0FC
:10156000815080930D0167D9A4DDCF910895882320
:10157000D1F020910C0130E08091EC0190E00197D6
:1015800028173907A4F435DE80910C018F5F809312
:101590000C0104CE08952DDE80910C0181508093C2
:1015A0000C01FCCD089580910C018111F4CF0895B8
:1015B000CF93DF9320910C01CEEED1E0888590E0AF
:1015C000E22FF0E0DC0138E0239FA00DB11D1124D3
:1015D000A85CBE4F4C9121E030E0098402C0220F8C
:1015E000331F0A94E2F7542F5223A1F4EE0FFF1F8A
:1015F000EE0FFF1FEE0FFF1FE80FF91FE85CFE4F15
:10160000422B4083FC01E850FE4F20959081292316
:10161000208319C0DC01A850BE4F5C91652F622366
:1016200021F4FD01252B20830EC0EE0FFF1FEE0FCE
:10163000FF1FEE0FFF1F8E0F9F1FFC01E85CFE4F88
:10164000209524232083DF91CF9108958091C000BD
:1016500088230CF0B7C080E00E94B202809325017D
:101660008E3009F47AC008F5843009F44FC058F47C
:10167000813009F445C0F0F1823009F43EC0833076
:1016800009F441C00895873009F44BC038F485301F
:1016900009F440C0863009F440C00895883009F448
:1016A00043C0893009F44CC00895803509F45BC00B
:1016B00078F4803309F46BC020F48F3009F46BC0E8
:1016C0000895833309F479C0803409F474C008950F
:1016D000803D09F46AC038F4803609F44EC0803C7D
:1016E00009F466C00895803E09F45CC0803F09F4A7
:1016F00056C0089581E03DCE089580E03ACE089529
:1017000081E0A6CE089580E0A3CE089581E0809385
:101710002601089510922601089581E080932F01FB
:10172000089510922F01089580912F01813011F4B6
:10173000FDCE0895823009F045C081E018CF0895AC
:1017400080912F01813019F480E0F0CE089582302D
:1017500009F038C080E00BCF089580912F018F5F92
:1017600080932F01089580912F01813011F4D0C909
:101770000895823039F514CA089580912F0182307E
:1017800011F472CA08958130E9F4AFCC089582E073
:1017900080932F01089581E080932F01089581E0C7
:1017A0008BCB089581E040CB089580E085CB0895F0
:1017B00080E03ACB0895FCCE089580912F018230CD
:1017C00009F408CD0895CF93DF93CDB7DEB72A97FC
:1017D0000FB6F894DEBF0FBECDBF8FEF84B915B83A
:1017E0008AB91BB887B918B880E00E947E020E94AF
:1017F000EE030E9493008AE090E0A0E0B0E08093C6
:10180000000190930101A0930201B0930301809322
:10181000140190931501A0931601B09317010E9433
:10182000A8001092240120912701309128014091B5
:10183000290150912A0160912B0170912C01809116
:101840002D0190912E010E944B01E7E2F1E02083EF
:101850003183428353836483758386839783E090C7
:10186000EE01F090EF010091F0011091F101209153
:10187000F2013091F3014091F4015091F501609132
:10188000F6017091F701CE0101960E9481018AE074
:10189000FE013196AEEEB1E001900D928A95E1F72E
:1018A000A5DBCEDCD3DEFCCFF999FECF92BD81BDA6
:1018B000F89A992780B50895262FF999FECF92BD01
:1018C00081BDF89A019700B4021639F01FBA20BD05
:1018D0000FB6F894FA9AF99A0FBE0895F894FFCFCC
:0418E0000100000003
:00000001FF
