:1000000045C0000062C0000060C000005EC000008B
:100010005CC000005AC0000058C0000056C000007C
:1000200054C0000052C0000050C000004EC000008C
:100030004CC00000E2C0000048C0000046C0000004
:1000400044C0000042C0000040C000003EC00000AC
:100050003CC000003AC0000038C0000036C00000BC
:1000600034C0000032C0000030C000002EC00000CC
:100070002CC000002AC0000028C0000026C00000DC
:1000800024C0000022C0000020C0000011241FBEB8
:10009000CFEFD0E4DEBFCDBF11E0A0E0B1E0E8EDEE
:1000A000F3E100E00BBF02C007900D92A430B1074E
:1000B000D9F721E0A4E0B1E001C01D92AB3FB20747
:1000C000E1F70E941F090C94EA099ACF009721F0EA
:1000D0008130910549F005C010920501109204018C
:1000E00003C081309105F1F48091040190910501E4
:1000F0000196909305018093040180910A019091EB
:100100000B01A0910C01B0910D010196A11DB11D33
:1001100080930A0190930B01A0930C01B0930D0101
:1001200081E090E00895E2E1F1E01182108281E047
:1001300090E0A0E0B0E082839383A483B5838683BC
:100140009783A087B18786E690E09387828708959A
:100150008BE0809381008DE790E0909389008093FD
:10016000880082E080936F001092850010928400D6
:100170008091000190910101A0910201B0910301D1
:1001800080930E0190930F01A0931001B093110181
:100190008FB780688FBF0895CF93DF93E2E1F1E0DE
:1001A00086819781A085B185428153816481758163
:1001B00084179507A607B70790F0EF010284F3852F
:1001C000E02D8881998109959983888381E090E069
:1001D000A0E0B0E08E839F83A887B9870BC001960B
:1001E000A11DB11D8093180190931901A0931A01CC
:1001F000B0931B01DF91CF9108951F920F920FB61C
:100200000F9211240BB60F922F933F934F935F934E
:100210006F937F938F939F93AF93BF93EF93FF93CE
:1002200080910E0190910F01A0911001B0911101E8
:100230000197A109B10980930E0190930F01A0933A
:100240001001B0931101892B8A2B8B2B89F4A4DF29
:100250008091000190910101A0910201B0910301F0
:1002600080930E0190930F01A0931001B0931101A0
:10027000FF91EF91BF91AF919F918F917F916F917E
:100280005F914F913F912F910F900BBE0F900FBE3A
:100290000F901F901895CF93DF93CDB7DEB760977F
:1002A0000FB6F894DEBF0FBECDBF29873A874B87C4
:1002B0005C876D877E878F87988BFE0139969E01BC
:1002C0002F5E3F4F8FEF8193E217F307E1F788E04E
:1002D000FE013996DE01119601900D928A95E1F7A3
:1002E00029813A814B815C816D817E818F819885E6
:1002F00060960FB6F894DEBF0FBECDBFDF91CF91F1
:100300000895EF92FF920F931F93CF93DF93CDB792
:10031000DEB72A970FB6F894DEBF0FBECDBFBC0183
:10032000E982FA820B831C832D833E834F83588797
:10033000FE0131969E01275F3F4F9FEF9193E21799
:10034000F307E1F79981977F9983198683E08A877C
:100350008AE0FE013196DB0101900D928A95E1F76A
:10036000CB012A960FB6F894DEBF0FBECDBFDF914A
:10037000CF911F910F91FF90EF90089585B9299A21
:1003800015B8089520E030E0E1E0F0E071E060E0D1
:10039000AF01022E02C0440F551F0A94E2F7482312
:1003A000972F09F4962F95B9299A65B92F5F3F4F7A
:1003B0002830310569F784E085B90895CF93C8E006
:1003C00081E0DCDFC150E1F784E085B9CF91089589
:1003D000F5DFF4DFF3CF08950F931F93CF93DF93EF
:1003E000182FC92F062FD42FF3DF51E001C0550F6E
:1003F0000A95EAF7E12FFC2F20E030E0C0E0A1E011
:10040000B0E09191952349F0CD01022E02C0880FF2
:10041000991F0A94E2F7C82B09C0BD01022E02C041
:10042000660F771F0A94E2F76095C6232F5F3F4F50
:100430002830310531F7D13071F018F0D23031F079
:100440000EC0BCDF8C2F9EDFB9DF09C08C2F9ADF76
:10045000B5DFB4DF04C0B2DFB1DF8C2F93DFDF91F3
:10046000CF911F910F910895CF92DF92FF920F933A
:100470001F93CF93DF936C01F62EC0E0D0E001E034
:1004800010E098010C2E02C0220F331F0A94E2F7ED
:1004900028B94F2D6C2FC6019FDF8FE891E001979F
:1004A000F1F700C0000094DF2196C830D10549F76C
:1004B000DF91CF911F910F91FF90DF90CF90089522
:1004C000CF93DF93CDB7DEB79C0192E19150F1F766
:1004D000C754DF4F1882C95BD040C654DF4F188223
:1004E000CA5BD04086EBFE013596D90101900D9292
:1004F0008A95E1F7C901DF91CF910895813081F0AC
:10050000E1ECF0E0808188618083E2ECF0E08081C2
:100510008660808383E38093C4001092C5000895B1
:10052000E9ECF0E0808188618083EAECF0E0808192
:100530008660808383E38093CC001092CD00089581
:10054000613041F0E0ECF0E0908195FFFDCF8093C9
:10055000C6000895E8ECF0E0908195FFFDCF809310
:10056000CE000895813041F0E0ECF0E080818823F6
:10057000ECF78091C6000895E8ECF0E080818823D4
:10058000ECF78091CE000895EF92FF920F931F93A6
:10059000CF93DF93CDB7DEB72A970FB6F894DEBFBF
:1005A0000FBECDBF80910901811141C0E8EEF1E09D
:1005B00021E030E0018402C0220F331F0A94E2F7E9
:1005C0009091E701E085F0E048E0949FE00DF11D97
:1005D0001124EE5CFE4F9081292361F5E090E80143
:1005E000F090E9010091EA011091EB012091EC01FA
:1005F0003091ED014091EE015091EF016091F001D9
:100600007091F101CE0101967CDE8AE0FE01319607
:10061000A8EEB1E001900D928A95E1F78091C000BB
:1006200085FF07C060E080E08BDF81E003C080E0F1
:1006300001C081E02A960FB6F894DEBF0FBECDBF91
:10064000DF91CF911F910F91FF90EF900895CF927E
:10065000DF92EF92FF920F931F93CF93DF93CDB76B
:10066000DEB78C01C154DF4F8881CF5BD040811150
:1006700009C086EBFE013B96D80101900D928A9548
:10068000E1F7A6C0C054DF4F9881C05CD0409817F6
:1006900028F0C054DF4F1882C05CD040809109011F
:1006A000811112C0C054DF4F8881C05CD04060E02F
:1006B0002BE030E02C0F3D1F48E0849F200D311DC2
:1006C0001124C901D1DE07C0813009F079C060E092
:1006D00081E291E0C9DE8091090181113CC0C054E2
:1006E000DF4F8881C05CD040EDEAF0E0EC0FFD1FE9
:1006F000E80FF11D208130E0A901440F551F220FA2
:10070000331F220F331F220F331F420F531F052E9B
:10071000000C660B770BC0900A01D0900B01E090A3
:100720000C01F0900D01C416D506E606F70608F494
:1007300047C091E0909309018F5FC054DF4F8883D9
:10074000C05CD04010920A0110920B0110920C0173
:1007500010920D0135C0813099F5C054DF4F88816A
:10076000C05CD040EBE9F0E0EC0FFD1FE80FF11D9D
:10077000208130E0C901880F991F220F331F220FFB
:10078000331F220F331F820F931F092E000CAA0B59
:10079000BB0B40910A0150910B0160910C017091CB
:1007A0000D01481759076A077B0750F0109209019D
:1007B00010920A0110920B0110920C0110920D017F
:1007C00086EBFE013B96D80101900D928A95E1F7E8
:1007D000C801DF91CF911F910F91FF90EF90DF90B3
:1007E000CF900895CF93DF93C1E0D0E007C0909100
:1007F00008019F5F90930801C650DF4FCE01D0D50E
:100800008111F5CFDF91CF9108952F923F924F92B2
:100810005F926F927F928F929F92AF92BF92CF9290
:10082000DF92EF92FF920F931F93CF93DF93CDB799
:10083000DEB7CA52D2400FB6F894DEBF0FBECDBFAE
:10084000A09007012AEFA29E50011124C501019634
:10085000A7D5282E750182E0E80EF11C02EF11E009
:100860000F2EFAEFCF2EF1E0DF2EF02DC70198D535
:10087000F80181938F01FFEFEF1AFF0A0C151D0598
:10088000A9F78DB79EB7865B91090FB6F8949EBF06
:100890000FBE8DBFADB7BEB7119686EBE2E3F1E0B8
:1008A00001900D928A95E1F7CE018B589E4F08DE9C
:1008B00086EBFE01EB58FE4FA2E3B1E001900D92F2
:1008C0008A95E1F79BE0A90EB11C0FB6F894DEBF44
:1008D0000FBECDBF211069C087C0C701800F911F17
:1008E0005FD5F80181938F01EC15FD05B1F7C501C6
:1008F000089656D5182FC501099652D5E2E3F1E0C6
:10090000DE01A954BF4F952D01900D929A95E1F704
:10091000F3019081F401DE01A359BE4F232D019014
:100920000D922A95E1F7A7EBB0E0AC0FBD1FF8E000
:100930009F9FA00DB11D1124FE01E359FE4F232DF1
:1009400001900D922A95E1F727EB30E02C0F3D1F27
:10095000290F311DF901E057FF4F108372968083F4
:100960009F5FC559DE4F9883CB56D140FE01E954B5
:10097000FF4FDE011196852D01900D928A95E1F7CA
:10098000CB54DF4F9883C55BD040FE013196A2E384
:10099000B1E0852D01900D928A95E1F72AE0A20E33
:1009A000B11C439442101BC01FC0412C0F2EFAE211
:1009B0008F2EF1E09F2EF02D0F2EF2E3CF2EF1E0DF
:1009C000DF2EF02D0F2EF6EB5F2EF02D0F2EF6EE14
:1009D0006F2EF1E07F2EF02D6894332433F88401DC
:1009E0007501E818F90879CFC65DDD4F0FB6F894A8
:1009F000DEBF0FBECDBFDF91CF911F910F91FF9052
:100A0000EF90DF90CF90BF90AF909F908F907F90AE
:100A10006F905F904F903F902F900895EF92FF92CC
:100A20000F931F93CF93DF93CDB7DEB72A970FB6FF
:100A3000F894DEBF0FBECDBF8091F001873089F5FD
:100A4000109107012AEF129FC001112485509F4F7A
:100A5000A7D4882331F11F5F10930701D6DEE09001
:100A6000E801F090E9010091EA011091EB01209179
:100A7000EC013091ED014091EE015091EF01609158
:100A8000F0017091F101CE0101963BDC8AE0FE019C
:100A90003196A8EEB1E001900D928A95E1F7809130
:100AA000C0002A960FB6F894DEBF0FBECDBFDF910F
:100AB000CF911F910F91FF90EF900895CF93DF9307
:100AC000CDB7DEB7C65BD1090FB6F894DEBF0FBE57
:100AD000CDBF8DB79EB7865B91090FB6F8949EBFC8
:100AE0000FBE8DBFADB7BEB7119686EBE2E3F1E066
:100AF00001900D928A95E1F7CE010196A8DD86EB73
:100B0000FE013196A2E3B1E001900D928A95E1F7E2
:100B10000FB6F894DEBF0FBECDBF61E082EF91E06B
:100B2000A3DCCA54DF4F0FB6F894DEBF0FBECDBFB3
:100B3000DF91CF910895C2DF27DD70DF62E088EE9C
:100B400091E092CC089562E081E291E08DDC61E079
:100B500081E291E089DC60E081E291E085CC08955A
:100B60008091FA01823059F128F4882349F08130CC
:100B700059F067C08330D9F1843009F44DC061C0A9
:100B800081E08093FA01089580912901882309F476
:100B900089C0813039F482E08093FA011092070114
:100BA00034DE4FC0823021F483E08093FA0153C0D9
:100BB000833009F077C084E08093FA015EC08091B1
:100BC0002901811105C081E08093FA01BCDF39C0A1
:100BD000813009F43EC0823021F483E08093FA0131
:100BE0003AC08330B1F584E08093FA0146C0809129
:100BF0002901811105C081E08093FA01A4DF21C0A1
:100C0000813021F482E08093FA0123C0833019F50A
:100C100084E08093FA0131C080912901811105C0DF
:100C200081E08093FA018FDF0CC0813021F482E0F3
:100C30008093FA010EC0823001F583E08093FA01BF
:100C40000AC08091FA01833031F08430B1F08230F3
:100C500049F534CF08958091060190E0880F991FDF
:100C6000880F991F880F991F60E08E5C9E4FFCDBF8
:100C700061E082EF91E0F8CB089562E088EE91E0C8
:100C8000F3DB8091060190E0880F991F880F991F70
:100C9000880F991F60E08E5C9E4FE6DB61E082EF7B
:100CA00091E0E2CB0895EF92FF920F931F93CF93C1
:100CB000DF93CDB7DEB72A970FB6F894DEBF0FBE2D
:100CC000CDBF80911E01813051F018F08230A1F12A
:100CD0003BC081E080931E011092200135C08091BD
:100CE00020018823B1F182E080931E01E090E801A9
:100CF000F090E9010091EA011091EB012091EC01E3
:100D00003091ED014091EE015091EF016091F001C1
:100D10007091F101CE010196F4DA8AE0FE0131967C
:100D2000A8EEB1E001900D928A95E1F71092E701EB
:100D3000109207016ADD08C080912001811108C06E
:100D400081E080931E01FFDE80911E01823009F454
:100D5000F2DE2A960FB6F894DEBF0FBECDBFDF914C
:100D6000CF911F910F91FF90EF9008958091C00057
:100D700085FF04C060E080910701E2DB8091C00044
:100D800085FF0BC0809107012AEF829FC0011124CB
:100D9000019606D360E08068D3CB08958091C000AF
:100DA00085FF08C0E0910601F0E0EC52FE4F60E0E4
:100DB0008081C6DB8091C00085FF09C0E0910601FB
:100DC000F0E0EE53FE4F808160E08068B9CB08957B
:100DD0000F931F93CF93DF93082FC09107018AEFE2
:100DE000C89FE00111246396209106012223A9F0F7
:100DF00090E09F5F9213FDCF215030E0C901880F32
:100E0000991F220F331F220F331F220F331F280F6A
:100E1000391F265F3F4FC20FD31FCE01C1D200231F
:100E200019F011E0180F02C01FEF180F612FCE014B
:100E3000BFD2E0910601F0E0EE53FE4F1083AEDF2B
:100E4000DF91CF911F910F9108950F931F93CF932F
:100E5000DF93082FC09107018AEFC89FE00111249A
:100E60006496209106012223A9F090E09F5F9213DF
:100E7000FDCF215030E0C901880F991F220F331F89
:100E8000220F331F220F331F280F391F265F3F4FBA
:100E9000C20FD31FCE0184D2002319F011E0180F26
:100EA00002C01FEF180F612FCE0182D2E091060120
:100EB000F0E0EC52FE4F108371DFDF91CF911F9174
:100EC0000F910895CF93DF938091C00088230CF099
:100ED000B3C180E047DB80931F01811128C0E091FE
:100EE000F001E73008F0A8C181E090E00090F10146
:100EF00002C0880F991F0A94E2F7AE2FB0E0AE50FF
:100F0000BE4F11962C91282309F496C1EF5FE09310
:100F1000F001F0E0DF01A951BE4F9C91982B9C930A
:100F2000E851FE4F809590818923808385C181306F
:100F300059F54091F101473008F07EC161E0640F3E
:100F40008091F00190E021E030E0062E02C0220FF7
:100F5000331F0A94E2F7FC01EE50FE4F50815223FA
:100F600009F46AC16093F101FC01E851FE4F20953C
:100F700081E090E002C0880F991F4A95E2F79081C6
:100F8000892B2823208358C1823039F5E091F00164
:100F9000EE2309F451C181E090E00090F10102C01C
:100FA000880F991F0A94E2F7AE2FB0E0AF50BE4F02
:100FB0002C91282309F440C1E150E093F001F0E0C6
:100FC000DF01A751BE4F9C91982B9C93E851FE4F97
:100FD00080959081892380832FC1833059F540917A
:100FE000F101442309F428C16FEF640F8091F001EF
:100FF00090E021E030E0062E02C0220F331F0A9459
:10100000E2F7FC01EE50FE4F5081522309F414C167
:101010006093F101FC01E851FE4F209581E090E0E2
:1010200002C0880F991F4A95E2F79081892B2823E7
:10103000208302C1843021F481E080932001FCC030
:10104000853019F410922001F7C0863029F481E030
:10105000809329018BDEF0C0873051F41092290172
:101060001092070110920601D0DB1092E701E4C054
:10107000883051F580912901813091F4C0910701A8
:101080002AEFC29FC001112485509F4F89D1882328
:1010900009F4D2C0CF5FC0930701B7DB67DECCC0D5
:1010A000823009F0C9C020910601422F50E08091A2
:1010B000E60190E00197481759070CF0BDC02F5F7B
:1010C000209306016BDEB8C08930E1F480912901DC
:1010D000813059F480910701882309F4ADC0815013
:1010E0008093070192DB42DEA7C0823009F0A4C0E2
:1010F00080910601882309F49FC0815080930601E6
:101100004DDE9AC08E3081F480912901813029F41E
:1011100082E08093290142DE8FC0823009F08CC0CA
:1011200083E08093290188C0803329F482E0809392
:10113000290134DE81C08F3049F481E08093290198
:1011400015DE1092E7011092060176C0803F61F42F
:10115000E0910601F0E0EC52FE4F8081833608F00A
:101160006BC081E072DE68C0803E61F4E0910601F0
:10117000F0E0EE53FE4F8081833608F05DC081E0E1
:1011800027DE5AC0803D61F4E0910601F0E0EC52A8
:10119000FE4F8081882309F44FC080E056DE4CC0AA
:1011A000803C61F4E0910601F0E0EE53FE4F808157
:1011B000882309F441C080E00BDE3EC08034E1F5B5
:1011C000809129018330C1F520910601C8EED1E05C
:1011D000E885F0E0822F90E0DF0138E0239FA00D4A
:1011E000B11D1124AE5CBE4F4C9121E030E009846A
:1011F00002C0220F331F0A94E2F7542F522381F0CA
:10120000880F991F880F991F880F991FE80FF91FE2
:10121000EE5CFE4F822F8095282F242320830CC064
:10122000880F991F880F991F880F991FE80FF91FC2
:10123000EE5CFE4F242B2083DF91CF910895CF9356
:10124000DF93CDB7DEB7C65BD1090FB6F894DEBF2A
:101250000FBECDBF8FEF84B915B88AB91BB887B957
:1012600018B880E04BD9BEDA0E94930081E090E08C
:10127000A0E0B0E08093000190930101A0930201EF
:10128000B093030180930E0190930F01A09310017E
:10129000B09311010E94A80010921E01209121011B
:1012A0003091220140912301509124016091250148
:1012B0007091260180912701909128010E944B0195
:1012C000E1E2F1E0208331834283538364837583B9
:1012D000868397838DB79EB7865B91090FB6F89486
:1012E0009EBF0FBE8DBFADB7BEB7119686EBE2E3D2
:1012F000F1E001900D928A95E1F7CE010196E0D8D8
:1013000086EBFE013196A2E3B1E001900D928A9541
:10131000E1F70FB6F894DEBF0FBECDBF2091F2010A
:101320003091F3014091F4015091F5016091F60183
:101330007091F7018091F8019091F9010E944B01A1
:10134000E2EFF1E02083318342835383648375832A
:10135000868397835ADAE090E801F090E9010091E2
:10136000EA011091EB012091EC013091ED014091E7
:10137000EE015091EF016091F0017091F101CE0109
:1013800001960E9481018AE0FE013196A8EEB1E04B
:1013900001900D928A95E1F786DCE2DB93DDFCCFCC
:1013A000F999FECF92BD81BDF89A992780B508952D
:1013B000262FF999FECF92BD81BDF89A019700B40E
:1013C000021639F01FBA20BD0FB6F894FA9AF99AAE
:0813D0000FBE0895F894FFCF51
:0413D8000100000010
:00000001FF
