S00F00007363626F756E642E7372656327
S113000045C0000061C000005FC000005DC000008A
S11300105BC0000059C0000057C0000055C000007C
S113002053C0000051C000004FC000004DC000008C
S11300304BC00000E1C0000047C0000045C0000004
S113004043C0000041C000003FC000003DC00000AC
S11300503BC0000039C0000037C0000035C00000BC
S113006033C0000031C000002FC000002DC00000CC
S11300702BC0000029C0000027C0000025C00000DC
S113008023C0000021C000001FC0000011241FBEB7
S1130090CFEFD0E4DEBFCDBF11E0A0E0B1E0E4E6F5
S11300A0FCE100E00BBF02C007900D92A430B10741
S11300B0D9F721E0A4E0B1E001C01D92AE3FB20740
S11300C0E1F727D40C94300E9BCF009721F08130B8
S11300D0910549F005C0109205011092040103C076
S11300E081309105F1F4809104019091050101960C
S11300F09093050180930401809107019091080178
S1130100A0910901B0910A010196A11DB11D80932E
S1130110070190930801A0930901B0930A0181E0BB
S113012090E00895EFE0F1E01182108281E090E028
S1130130A0E0B0E082839383A483B583868397830E
S1130140A087B18785E690E09387828708958BE046
S1130150809381008DE790E09093890080938800DC
S113016082E080936F001092850010928400809149
S1130170000190910101A0910201B09103018093CB
S11301800B0190930C01A0930D01B0930E018FB756
S113019080688FBF0895CF93DF93EFE0F1E086810D
S11301A09781A085B18542815381648175818417CB
S11301B09507A607B70790F0EF010284F385E02DB9
S11301C08881998109959983888381E090E0A0E0F2
S11301D0B0E08E839F83A887B9870BC00196A11DC9
S11301E0B11D8093150190931601A0931701B0934C
S11301F01801DF91CF9108951F920F920FB60F92BD
S113020011240BB60F922F933F934F935F936F93E9
S11302107F938F939F93AF93BF93EF93FF938091BB
S11302200B0190910C01A0910D01B0910E01019769
S1130230A109B10980930B0190930C01A0930D01C6
S1130240B0930E01892B8A2B8B2B89F4A4DF809128
S1130250000190910101A0910201B09103018093EA
S11302600B0190930C01A0930D01B0930E01FF912B
S1130270EF91BF91AF919F918F917F916F915F911A
S11302804F913F912F910F900BBE0F900FBE0F9087
S11302901F901895CF93DF93CDB7DEB760970FB655
S11302A0F894DEBF0FBECDBF29873A874B875C87A2
S11302B06D877E878F87988BFE0139969E012F5E0E
S11302C03F4F8FEF8193E217F307E1F788E0FE01D8
S11302D03996DE01119601900D928A95E1F72981F4
S11302E03A814B815C816D817E818F819885609696
S11302F00FB6F894DEBF0FBECDBFDF91CF91089546
S1130300EF92FF920F931F93CF93DF93CDB7DEB796
S11303102A970FB6F894DEBF0FBECDBFBC01E982A9
S1130320FA820B831C832D833E834F835887FE01FF
S113033031969E01275F3F4F9FEF9193E217F3079A
S1130340E1F79981977F9983198683E08A878AE008
S1130350FE013196DB0101900D928A95E1F7CB0104
S11303602A960FB6F894DEBF0FBECDBFDF91CF91B2
S11303701F910F91FF90EF90089585B9299A15B8B0
S1130380089520E030E0E1E0F0E071E060E0AF01EA
S1130390022E02C0440F551F0A94E2F74823972FF8
S11303A009F4962F95B9299A65B92F5F3F4F2830E4
S11303B0310569F784E085B90895CF93C8E081E0F9
S11303C0DCDFC150E1F784E085B9CF910895F5DF12
S11303D0F4DFF3CF08950F931F93CF93DF93182F78
S11303E0C92F062FD42FF3DF51E001C0550F0A9512
S11303F0EAF7E12FFC2F20E030E0C0E0A1E0B0E01C
S11304009191952349F0CD01022E02C0880F991FC6
S11304100A94E2F7C82B09C0BD01022E02C0660F80
S1130420771F0A94E2F76095C6232F5F3F4F283069
S1130430310531F7D13071F018F0D23031F00EC0FF
S1130440BCDF8C2F9EDFB9DF09C08C2F9ADFB5DFAC
S1130450B4DF04C0B2DFB1DF8C2F93DFDF91CF9123
S11304601F910F910895CF92DF92FF920F931F93E4
S1130470CF93DF936C01F62EC0E0D0E001E010E0F2
S113048098010C2E02C0220F331F0A94E2F728B9F8
S11304904F2D6C2FC6019FDF8FEA94E00197F1F78F
S11304A000C0000094DF2196C830D10549F7DF91E0
S11304B0CF911F910F91FF90DF90CF900895CF932C
S11304C0DF93CDB7DEB79C0192E19150F1F7C754A9
S11304D0DF4F1882C95BD040C654DF4F1882CA5B15
S11304E0D04086EBFE013596D90101900D928A9594
S11304F0E1F7C901DF91CF910895813081F0E1ECFA
S1130500F0E0808188618083E2ECF0E080818660A5
S1130510808383E38093C4001092C5000895E9ECBE
S1130520F0E0808188618083EAECF0E0808186607D
S1130530808383E38093CC001092CD0008956130D2
S113054041F0E0ECF0E0908195FFFDCF8093C60090
S11305500895E8ECF0E0908195FFFDCF8093CE0004
S11305600895813041F0E0ECF0E080818823ECF7DD
S11305708091C6000895E8ECF0E080818823ECF7D0
S11305808091CE000895EF92FF920F931F93CF9323
S1130590DF93CDB7DEB72A970FB6F894DEBF0FBE50
S11305A0CDBF80910601811141C0E2EEF1E021E06E
S11305B030E0018402C0220F331F0A94E2F79091C5
S11305C0E101E085F0E048E0949FE00DF11D112485
S11305D0E45DFE4F9081292361F5E090E201F09003
S11305E0E3010091E4011091E5012091E6013091CD
S11305F0E7014091E8015091E9016091EA017091AD
S1130600EB01CE0101967CDE8AE0FE013196A2EE7A
S1130610B1E001900D928A95E1F78091C00085FFC9
S113062007C060E080E08BDF81E003C080E001C0B0
S113063081E02A960FB6F894DEBF0FBECDBFDF91DE
S1130640CF911F910F91FF90EF900895CF92DF9279
S1130650EF92FF920F931F93CF93DF93CDB7DEB743
S11306608C01C154DF4F8881CF5BD040811109C018
S113067086EBFE013B96D80101900D928A95E1F735
S1130680A6C0C054DF4F9881C05CD040981728F0B2
S1130690C054DF4F1882C05CD040809106018111A4
S11306A012C0C054DF4F8881C05CD04060E02BE0B2
S11306B030E02C0F3D1F48E0849F200D311D112494
S11306C0C901D1DE07C0813009F079C060E08CE156
S11306D091E0C9DE8091060181113CC0C054DF4F16
S11306E08881C05CD040EDEAF0E0EC0FFD1FE80F1C
S11306F0F11D208130E0A901440F551F220F331F43
S1130700220F331F220F331F420F531F052E000CDD
S1130710660B770BC0900701D0900801E0900901A7
S1130720F0900A01C416D506E606F70608F447C099
S113073091E0909306018F5FC054DF4F8883C05CC3
S1130740D0401092070110920801109209011092F2
S11307500A0135C0813099F5C054DF4F8881C05CEF
S1130760D040EBE9F0E0EC0FFD1FE80FF11D208114
S113077030E0C901880F991F220F331F220F331F46
S1130780220F331F820F931F092E000CAA0BBB0BE1
S113079040910701509108016091090170910A018B
S11307A0481759076A077B0750F010920601109208
S11307B00701109208011092090110920A0186EBB8
S11307C0FE013B96D80101900D928A95E1F7C8018C
S11307D0DF91CF911F910F91FF90EF90DF90CF9019
S11307E00895EF92FF920F931F93CF93DF93CDB7AA
S11307F0DEB7C05CD1090FB6F894DEBF0FBECDBF23
S11308008091EC01813051F018F0823081F142C0C6
S113081081E08093EC011092FD013CC08091FD01C8
S1130820882309F468C082E08093EC01E090E2013F
S1130830F090E3010091E4011091E5012091E601BB
S11308403091E7014091E8015091E9016091EA019A
S11308507091EB01CE01019653DD8AE0FE013196E1
S1130860A2EEB1E001900D928A95E1F713C0809158
S1130870FD01811113C081E08093EC0160E08CE103
S113088091E0F1DD62E08CE191E0EDDD61E08CE18D
S113089091E0E9DD8091EC01823069F58DB79EB776
S11308A0865B91090FB6F8949EBF0FBE8DBFADB79E
S11308B0BEB7119686EBECE2F1E001900D928A95B9
S11308C0E1F7CE010B96C2DE86EBFE013B96ACE26D
S11308D0B1E001900D928A95E1F70FB6F894DEBF6E
S11308E00FBECDBF50DE62E082EE91E0BCDD61E080
S11308F08DEE91E0B8DDC054DF4F0FB6F894DEBF43
S11309000FBECDBFDF91CF911F910F91FF90EF905C
S11309100895CF93DF93CDB7DEB7CA56D9410FB64A
S1130920F894DEBF0FBECDBF8FEF84B915B88AB976
S11309301BB887B918B880E0E0DDF4DB81E090E013
S1130940A0E0B0E08093000190930101A093020124
S1130950B093030180930B0190930C01A0930D01BC
S1130960B0930E01F4DB1092EC0120911C01309144
S11309701D0140911E0150911F0160912001709151
S11309802101809122019091230184DCECE1F1E0CA
S1130990208331834283538364837583868397835F
S11309A08DB79EB7865B91090FB6F8949EBF0FBEB4
S11309B08DBFADB7BEB7119686EBECE2F1E00190C6
S11309C00D928A95E1F7CE018B54974E78DD86EB34
S11309D0FE01EB54F74EACE2B1E001900D928A9522
S11309E0E1F70FB6F894DEBF0FBECDBF209124010E
S11309F030912501409126015091270160912801F1
S1130A007091290180912A0190912B0143DC04E229
S1130A1011E0F801208342835383648375839783B1
S1130A203E7F31838E7F868386EBECE2F1E0DE014C
S1130A30A958B84E01900D928A95E1F70F2EF0EE69
S1130A40CF2EF1E0DF2EF02DD6018C9198E0F80145
S1130A50DE01A355B74E01900D929A95E1F7A7E7F1
S1130A60B7E1AC0FBD1FE8E08E9FA00DB11D1124AE
S1130A7098E0FE01E355F74E01900D929A95E1F747
S1130A8027E737E12C0F3D1F280F311DF901E057EF
S1130A90FF4F108272966894FF24F1F8F0828F5F02
S1130AA0C55DD74E8883CB52D84196EBFE01E958F9
S1130AB0F84EDE01AF53B94E01900D929A95E1F7CD
S1130AC0CB58D84E8883C557D74186EBFE01EF53E8
S1130AD0F94EACE2B1E001900D928A95E1F72091D4
S1130AE02401309125014091260150912701609104
S1130AF028017091290180912A0190912B01CADB70
S1130B00D8012C9312964C93129713965C931397D7
S1130B1014966C93149715967C93159717969C933B
S1130B2017973D7F11963C9311978D7F16968C9362
S1130B3086EBECE2F1E0DE01A55FB94E01900D9287
S1130B408A95E1F7F601808198E0F801DE01AB5562
S1130B50B74E01900D929A95E1F7ABE0B6E1AC0F78
S1130B60BD1FF8E08F9FA00DB11D112498E0FE0178
S1130B70EB55F74E01900D929A95E1F72BE036E193
S1130B802C0F3D1F280F311DF901E057FF4F108234
S1130B907296F0828F5FC154D94E8883CF5BD64161
S1130BA096EBFE01E55FF94EDE01AB5ABA4E0190B9
S1130BB00D929A95E1F7C75FD94E8883C950D64103
S1130BC086EBFE01EB5AFA4EACE2B1E001900D92D5
S1130BD08A95E1F720912401309125014091260165
S1130BE050912701609128017091290180912A0177
S1130BF090912B014FDBD8012C9312964C931297B2
S1130C0013965C93139714966C93149715967C9390
S1130C10159717969C9317973B7F11963C931197C2
S1130C208B7F16968C9386EBECE2F1E0DE01A15605
S1130C30BB4E01900D928A95E1F7F601808198E010
S1130C40F801DE01A356B74E01900D929A95E1F793
S1130C50AFE9B4E1AC0FBD1FF8E08F9FA00DB11D4B
S1130C60112498E0FE01E356F74E01900D929A95F7
S1130C70E1F72FE934E12C0F3D1F280F311DF90155
S1130C80E057FF4F10827296F0828F5FCD5ADA4E92
S1130C908883C355D54196EBFE01E156FB4EDE0138
S1130CA0A751BC4E01900D929A95E1F7C356DB4EC5
S1130CB08883CD59D44186EBFE01E751FC4EACE26A
S1130CC0B1E001900D928A95E1F7209124013091D1
S1130CD025014091260150912701609128017091CE
S1130CE0290180912A0190912B01D4DAD8012C9307
S1130CF012964C93129713965C93139714966C93D5
S1130D00149715967C93159717969C931797377F8E
S1130D1011963C931197877F16968C9386EBECE2A1
S1130D20F1E0DE01AD5CBC4E01900D928A95E1F7D5
S1130D30F601808198E0F801DE01AB56B74E0190D0
S1130D400D929A95E1F7A3E3B3E1AC0FBD1FF8E070
S1130D508F9FA00DB11D112498E0FE01EB56F74EB4
S1130D6001900D929A95E1F723E333E12C0F3D1F97
S1130D70280F311DF901E057FF4F10827296F0825F
S1130D808F5FC951DC4E8883C75ED34196EBFE0169
S1130D90ED5CFC4EDE01A358BD4E01900D929A9578
S1130DA0E1F7CF5CDC4E8883C153D34186EBFE016F
S1130DB0E358FD4EACE2B1E001900D928A95E1F763
S1130DC02091240130912501409126015091270161
S1130DD0609128017091290180912A0190912B0141
S1130DE059DAD8012C9312964C93129713965C936C
S1130DF0139714966C93149715967C9315971796DE
S1130E009C9317973F7E11963C9311978F7E16966D
S1130E108C9386EBECE2F1E0DE01A953BE4E019027
S1130E200D928A95E1F7F601808198E0F801DE01E0
S1130E30A357B74E01900D929A95E1F7A7ECB1E153
S1130E40AC0FBD1FF8E08F9FA00DB11D112498E0D9
S1130E50FE01E357F74E01900D929A95E1F727ECC6
S1130E6031E12C0F3D1F280F311DF901E057FF4FD1
S1130E7010827296F0828F5FC558DD4E8883CB57FF
S1130E80D24196EBFE01E953FE4EDE01AF5EBE4E4B
S1130E9001900D929A95E1F7CB53DE4E8883C55CA1
S1130EA0D14186EBFE01EF5EFE4EACE2B1E0019073
S1130EB00D928A95E1F7209124013091250140910A
S1130EC02601509127016091280170912901809198
S1130ED02A0190912B01DED9D8012C9312964C93C0
S1130EE0129713965C93139714966C931497159614
S1130EF07C93159717969C9317973F7D11963C9377
S1130F0011978F7D16968C9386EBECE2F1E0DE016F
S1130F10A55ABF4E01900D928A95E1F7F6018081A2
S1130F2098E0F801DE01AB57B74E01900D929A9507
S1130F30E1F7ABE5B0E1AC0FBD1FF8E08F9FA00D6A
S1130F40B11D112498E0FE01EB57F74E01900D926C
S1130F509A95E1F72BE530E12C0F3D1F280F311D49
S1130F60F901E057FF4F10827296F0828F5FC15FE4
S1130F70DE4E8883CF50D14196EBFE01E55AFF4EF9
S1130F80DE01AB55B04F01900D929A95E1F7C75A27
S1130F90DF4E8883C955D04186EBFE01EB55F04FF7
S1130FA0ACE2B1E001900D928A95E1F72091240121
S1130FB0309125014091260150912701609128012B
S1130FC07091290180912A0190912B0163D9D80154
S1130FD02C9312964C93129713965C931397149632
S1130FE06C93149715967C93159717969C93179763
S1130FF03F7B11963C9311978F7B16968C9386EBCF
S1131000ECE2F1E0DE01A151B14F01900D928A951D
S1131010E1F7F601808198E0F801DE01A358B74EAC
S113102001900D929A95E1F7AFEEBEE0AC0FBD1FB3
S1131030F8E08F9FA00DB11D112498E0FE01E35844
S1131040F74E01900D929A95E1F72FEE3EE02C0FAA
S11310503D1F280F311DF901E057FF4F1082729692
S1131060F0828F5FCD55D04F8883C35ADF4096EB13
S1131070FE01E151F14FDE01A75CB14F01900D92E9
S11310809A95E1F7C351D14F8883CD5EDE4086EB5C
S1131090FE01E75CF14FACE2B1E001900D928A955C
S11310A0E1F72091240130912501409126015091CE
S11310B02701609128017091290180912A01909162
S11310C02B01E8D8D8012C9312964C9312971396BF
S11310D05C93139714966C93149715967C931597B9
S11310E017969C9317973F7711963C9311978F7798
S11310F016968C9386EBECE2F1E0DE01AD57B24F2D
S113110001900D928A95E1F7F601808198E0F8014B
S1131110DE01AB58B74E01900D929A95E1F7A3E822
S1131120BDE0AC0FBD1FF8E08F9FA00DB11D1124D1
S113113098E0FE01EB58F74E01900D929A95E1F775
S113114023E83DE02C0F3D1F280F311DF901E05726
S1131150FF4F10827296F0828F5FC95CD14F8883F3
S1131160C753DE4096EBFE01ED57F24FDE01A35369
S1131170B34F01900D929A95E1F7CF57D24F8883E0
S1131180C158DD4086EBFE01E353F34FACE2B1E01E
S113119001900D928A95E1F7209124013091250167
S11311A040912601509127016091280170912901F5
S11311B080912A0190912B016DD8D8012C9311961E
S11311C03C93119713965C93139714966C9314970E
S11311D016968C93169717969C9317974F7712969B
S11311E04C9312977F7715967C9386EBECE2F1E0B3
S11311F0DE01A95EB34F01900D928A95E1F7F601E5
S1131200808198E0F801DE01A359B74E01900D9258
S11312109A95E1F7A7E1BCE0AC0FBD1FF8E08F9F02
S1131220A00DB11D112498E0FE01E359F74E019081
S11312300D929A95E1F727E13CE02C0F3D1F280F12
S1131240311DF901E057FF4F10827296F0828F5FD3
S1131250C553D34F8883CB5CDC4096EBFE01E95E3B
S1131260F34FDE01AF59B44F01900D929A95E1F717
S1131270CB5ED34F8883C551DC4086EBFE01EF592A
S1131280F44FACE2B1E001900D928A95E1F7209120
S1131290240130912501409126015091270160914C
S11312A028017091290180912A0190912B010E94BB
S11312B04A01D8012C9311963C93119713965C9391
S11312C0139714966C93149716968C9316971796F7
S11312D09C9317974F7B12964C9312977F7B15968E
S11312E07C9386EBECE2F1E0DE01A555B54F01906D
S11312F00D928A95E1F7F601808198E0F801DE010C
S1131300AB59B74E01900D929A95E1F7ABEABAE06A
S1131310AC0FBD1FF8E08F9FA00DB11D112498E004
S1131320FE01EB59F74E01900D929A95E1F72BEAE5
S11313303AE02C0F3D1F280F311DF901E057FF4FF4
S113134010827296F0828F5FC15AD44F8883CF5532
S1131350DB4096EBFE01E555F54FDE01AB50B64F91
S113136001900D929A95E1F7C755D54F8883C95AD4
S1131370DA4086EBFE01EB50F64FACE2B1E00190AF
S11313800D928A95E1F72091240130912501409135
S113139026015091270160912801709129018091C3
S11313A02A0190912B010E944A01D8012C93119695
S11313B03C93119713965C93139714966C9314971C
S11313C016968C93169717969C9317974F7D1296A3
S11313D04C9312977F7D15967C9386EBECE2F1E0BB
S11313E0DE01A15CB64F01900D928A95E1F7F601FA
S11313F0808198E0F801DE01A35AB74E01900D9266
S11314009A95E1F7AFE3B9E0AC0FBD1FF8E08F9F09
S1131410A00DB11D112498E0FE01E35AF74E01908E
S11314200D929A95E1F72FE339E02C0F3D1F280F19
S1131430311DF901E057FF4F10827296F0828F5FE1
S1131440CD50D64F8883C35FD94096EBFE01E15C53
S1131450F64FDE01A757B74F01900D929A95E1F729
S1131460C35CD64F8883CD53D94086EBFE01E75742
S1131470F74FACE2B1E001900D928A95E1F720912B
S1131480240130912501409126015091270160915A
S113149028017091290180912A0190912B010E94C9
S11314A04A01D8012C9311963C93119713965C939F
S11314B0139714966C93149716968C931697179605
S11314C09C9317974F7E12964C9312977F7E159696
S11314D07C9386EBECE2F1E0DE01AD52B84F019073
S11314E00D928A95E1F7F601808198E0F801DE011A
S11314F0AB5AB74E01900D929A95E1F7A3EDB7E080
S1131500AC0FBD1FF8E08F9FA00DB11D112498E012
S1131510FE01EB5AF74E01900D929A95E1F723EDF7
S113152037E02C0F3D1F280F311DF901E057FF4F05
S113153010827296F0828F5FC957D74F8883C7583D
S1131540D84096EBFE01ED52F84FDE01A35EB84F92
S113155001900D929A95E1F7CF52D84F8883C15DDF
S1131560D74086EBFE01E35EF84FACE2B1E00190B8
S11315700D928A95E1F72091240130912501409143
S113158026015091270160912801709129018091D1
S11315902A0190912B010E944A01D8012C931196A3
S11315A03C93119713965C93139714966C9314972A
S11315B016968C93169717969C931797477F1296B7
S11315C04C931297777F15967C9386EBECE2F1E0CF
S11315D0DE01A959B94F01900D928A95E1F7F60100
S11315E0808198E0F801DE01A35BB74E01900D9273
S11315F09A95E1F7A7E6B6E0AC0FBD1FF8E08F9F20
S1131600A00DB11D112498E0FE01E35BF74E01909B
S11316100D929A95E1F727E636E02C0F3D1F280F2F
S1131620311DF901E057FF4F10827296F0828F5FEF
S1131630C55ED84F8883CB51D74096EBFE01E9595C
S1131640F94FDE01AF54BA4F01900D929A95E1F72C
S1131650CB59D94F8883C556D64086EBFE01EF544B
S1131660FA4FACE2B1E001900D928A95E1F7209136
S11316702401309125014091260150912701609168
S113168028017091290180912A0190912B010E94D7
S11316904A01D8012C9311963C93119713965C93AD
S11316A0139714966C93149716968C931697179613
S11316B09C9317974B7F12964C9312977B7F1596AA
S11316C07C9386EBECE2F1E0DE01A550BB4F019088
S11316D00D928A95E1F7F601808198E0F801DE0128
S11316E0AB5BB74E01900D929A95E1F7ABEFB4E086
S11316F0AC0FBD1FF8E08F9FA00DB11D112498E021
S1131700FE01EB5BF74E01900D929A95E1F72BEFFA
S113171034E02C0F3D1F280F311DF901E057FF4F16
S113172010827296F0828F5FC155DA4F8883CF5A48
S1131730D54096EBFE01E550FB4FDE01AB5BBB4FA2
S113174001900D929A95E1F7C750DB4F8883C95FEA
S1131750D44086EBFE01EB5BFB4FACE2B1E00190C1
S11317600D928A95E1F72091240130912501409151
S113177026015091270160912801709129018091DF
S11317802A0190912B010E944A01D8012C931196B1
S11317903C93119713965C93139714966C93149738
S11317A016968C93169717969C9317974D7F1296BF
S11317B04C9312977D7F15967C9386EBECE2F1E0D7
S11317C0DE01A157BC4F01900D928A95E1F7F60115
S11317D0808198E0F801DE01A35CB74E01900D9280
S11317E09A95E1F7AFE8B3E0AC0FBD1FF8E08F9F27
S11317F0A00DB11D112498E0FE01E35CF74E0190A9
S11318000D929A95E1F72FE833E02C0F3D1F280F36
S1131810311DF901E057FF4F10827296F0828F5FFD
S1131820CD5BDB4F8883C354D44096EBFE01E15774
S1131830FC4FDE01A752BD4F01900D929A95E1F73E
S1131840C357DC4F8883CD58D34086EBFE01E75263
S1131850FD4FACE2B1E001900D928A95E1F7209141
S11318602401309125014091260150912701609176
S113187028017091290180912A0190912B010E94E5
S11318804A01D8012C9311963C93119713965C93BB
S1131890139714966C93149716968C931697179621
S11318A09C9317974E7F12964C9312977E7F1596B2
S11318B07C9386EBECE2F1E0DE01AD5DBD4F01907F
S11318C00D928A95E1F7F601808198E0F801DE0136
S11318D0AB5CB74E01900D929A95E1F7A3E2B2E0AA
S11318E0AC0FBD1FF8E08F9FA00DB11D112498E02F
S11318F0FE01EB5CF74E01900D929A95E1F723E21D
S113190032E02C0F3D1F280F311DF901E057FF4F26
S113191010827296F0828F5FC952DD4F8883C75D53
S1131920D24096EBFE01ED5DFD4FDE01A359BE4FA3
S113193001900D929A95E1F7CF5DDD4F8883C152F6
S1131940D24086EBFE01E359FE4FACE2B1E00190D8
S11319500D928A95E1F7209124013091250140915F
S113196026015091270160912801709129018091ED
S11319702A0190912B010E944A01D8012C931196BF
S11319803C93119712964C93129715967C93159746
S113199016968C93169717969C93179713961C92EA
S11319A0139714961C9286EBECE2F1E0DE01A95445
S11319B0BF4F01900D928A95E1F7F601808198E07E
S11319C0F801DE01A35DB74E01900D929A95E1F7FF
S11319D0A7EBB0E0AC0FBD1FF8E08F9FA00DB11DC9
S11319E0112498E0FE01E35DF74E01900D929A9563
S11319F0E1F727EB30E02C0F3D1F280F311DF901D3
S1131A00E057FF4F10827296F0828F5FC559DE4F08
S1131A108883CB56D14096EBFE01E954FF4FDE019B
S1131A20119601900D929A95E1F7CB54DF4F88837C
S1131A30C55BD04086EBFE013196ACE2B1E001908B
S1131A400D928A95E1F7E090E201F090E3010091B4
S1131A50E4011091E5012091E6013091E701409104
S1131A60E8015091E9016091EA017091EB01CE0126
S1131A708B54974E0E9480018AE0FE01EB54F74E8E
S1131A80A2EEB1E001900D928A95E1F72091ED016B
S1131A903091EE014091EF015091F0016091F1011C
S1131AA07091F2018091F3019091F4010E944A0136
S1131AB0EDEEF1E020833183428353837583868383
S1131AC097838CEC848300EC10E0BB24B3940F2E3A
S1131AD0F2EEEF2EF1E0FF2EF02DCC24C394D12CA6
S1131AE00E94F103D8018C918823D4F780E00E94EE
S1131AF0B10280931B01811128C0D7011896EC9183
S1131B001897E73068F7C60119960C9002C0880F41
S1131B10991F0A94E2F7AE2FB0E0A351BE4F11967D
S1131B202C912823E9F2EF5FD7011896EC93F0E0AB
S1131B30DF01AF51BE4F9C91982B9C93EE51FE4F09
S1131B408095908189238083CBCF813041F5F70143
S1131B502185273028F661E0620F808590E0A60198
S1131B60062E02C0440F551F0A94E2F7FC01E3510C
S1131B70FE4F3081342309F4B3CFD70119966C9307
S1131B80FC01EE51FE4F4095C60102C0880F991F1B
S1131B902A95E2F79081892B48234083A1CF823094
S1131BA049F5D7011896EC911897EE2309F498CFCC
S1131BB0C60119960C9002C0880F991F0A94E2F787
S1131BC0AE2FB0E0A451BE4F2C91282309F488CF46
S1131BD0E150D7011896EC93F0E0DF01AD51BE4F10
S1131BE09C91982B9C93EE51FE4F80959081892374
S1131BF0808376CF833049F5F7012185222309F4C8
S1131C006FCF6FEF620F808590E0A601062E02C0B1
S1131C10440F551F0A94E2F7FC01E351FE4F308153
S1131C20342309F45DCFD70119966C93FC01EE516E
S1131C30FE4F4095C60102C0880F991F2A95E2F70E
S1131C409081892B482340834BCF843019F4B09280
S1131C50FD0146CF853009F043CF1092FD0140CFFE
S1071C60F894FFCF22
S1071C640100000077
S9030000FC
