:1000000045C0000060C000005EC000005CC0000091
:100010005AC0000058C0000056C0000054C0000084
:1000200052C0000050C000004EC000004CC0000094
:100030004AC00000E0C0000046C0000044C000000C
:1000400042C0000040C000003EC000003CC00000B4
:100050003AC0000038C0000036C0000034C00000C4
:1000600032C0000030C000002EC000002CC00000D4
:100070002AC0000028C0000026C0000024C00000E4
:1000800022C0000020C000001EC0000011241FBEBE
:10009000CFEFD0E4DEBFCDBF11E0A0E0B1E0E0E4FF
:1000A000F0E100E00BBF02C007900D92A430B10751
:1000B000D9F721E0A4E0B1E001C01D92AB3FB20747
:1000C000E1F708D7BBC79CCF009721F0813091059D
:1000D00049F005C0109205011092040103C081305F
:1000E0009105F1F48091040190910501019690939E
:1000F00005018093040180910A0190910B01A09168
:100100000C01B0910D010196A11DB11D80930A0152
:1001100090930B01A0930C01B0930D0181E090E04E
:100120000895E2E1F1E01182108281E090E0A0E028
:10013000B0E082839383A483B58386839783A0876B
:10014000B18784E690E09387828708958BE080935F
:1001500081008DE790E0909389008093880082E091
:1001600080936F00109285001092840080910001AE
:1001700090910101A0910201B091030180930E01C1
:1001800090930F01A0931001B09311018FB7806875
:100190008FBF0895CF93DF93E2E1F1E086819781ED
:1001A000A085B1854281538164817581841795074B
:1001B000A607B70790F0EF010284F385E02D888150
:1001C000998109959983888381E090E0A0E0B0E06F
:1001D0008E839F83A887B9870BC00196A11DB11D8F
:1001E0008093180190931901A0931A01B0931B01F9
:1001F000DF91CF9108951F920F920FB60F921124A5
:100200000BB60F922F933F934F935F936F937F9310
:100210008F939F93AF93BF93EF93FF9380910E01C2
:1002200090910F01A0911001B09111010197A109C6
:10023000B10980930E0190930F01A0931001B09328
:100240001101892B8A2B8B2B89F4A4DF809100016B
:1002500090910101A0910201B091030180930E01E0
:1002600090930F01A0931001B0931101FF91EF91B2
:10027000BF91AF919F918F917F916F915F914F91BE
:100280003F912F910F900BBE0F900FBE0F901F90BC
:100290001895CF93DF93CDB7DEB760970FB6F8947C
:1002A000DEBF0FBECDBF29873A874B875C876D873E
:1002B0007E878F87988BFE0139969E012F5E3F4F78
:1002C0008FEF8193E217F307E1F788E0FE0139969B
:1002D000DE01119601900D928A95E1F729813A810C
:1002E0004B815C816D817E818F81988560960FB690
:1002F000F894DEBF0FBECDBFDF91CF910895EF928E
:10030000FF920F931F93CF93DF93CDB7DEB72A975A
:100310000FB6F894DEBF0FBECDBFBC01E982FA82F2
:100320000B831C832D833E834F835887FE013196B8
:100330009E01275F3F4F9FEF9193E217F307E1F78D
:100340009981977F9983198683E08A878AE0FE01E5
:100350003196DB0101900D928A95E1F7CB012A9647
:100360000FB6F894DEBF0FBECDBFDF91CF911F91C6
:100370000F91FF90EF90089585B9299A15B80895C7
:1003800020E030E0E1E0F0E071E060E0AF01022E5B
:1003900002C0440F551F0A94E2F74823972F09F42F
:1003A000962F95B9299A65B92F5F3F4F28303105AF
:1003B00069F784E085B90895CF93C8E081E0DCDF78
:1003C000C150E1F784E085B9CF910895F5DFF4DFFE
:1003D000F3CF08950F931F93CF93DF93182FC92F57
:1003E000062FD42FF3DF51E001C0550F0A95EAF72D
:1003F000E12FFC2F20E030E0C0E0A1E0B0E09191DF
:10040000952349F0CD01022E02C0880F991F0A944E
:10041000E2F7C82B09C0BD01022E02C0660F771F8C
:100420000A94E2F76095C6232F5F3F4F28303105CD
:1004300031F7D13071F018F0D23031F00EC0BCDF9E
:100440008C2F9EDFB9DF09C08C2F9ADFB5DFB4DFB8
:1004500004C0B2DFB1DF8C2F93DFDF91CF911F910A
:100460000F910895CF92DF92FF920F931F93CF9336
:10047000DF936C01F62EC0E0D0E001E010E09801BF
:100480000C2E02C0220F331F0A94E2F728B94F2D19
:100490006C2FC6019FDF8FE891E00197F1F700C054
:1004A000000094DF2196C830D10549F7DF91CF9144
:1004B0001F910F91FF90DF90CF900895CF93DF931E
:1004C000CDB7DEB79C0192E19150F1F7C754DF4FF1
:1004D0001882C95BD040C654DF4F1882CA5BD04037
:1004E00086EBFE013596D90101900D928A95E1F7D0
:1004F000C901DF91CF910895813081F0E1ECF0E006
:10050000808188618083E2ECF0E080818660808376
:1005100083E38093C4001092C5000895E9ECF0E0F5
:10052000808188618083EAECF0E08081866080834E
:1005300083E38093CC001092CD000895613041F0A8
:10054000E0ECF0E0908195FFFDCF8093C600089528
:10055000E8ECF0E0908195FFFDCF8093CE00089508
:10056000813041F0E0ECF0E080818823ECF780916D
:10057000C6000895E8ECF0E080818823ECF78091D4
:10058000CE000895EF92FF920F931F93CF93DF93C6
:10059000CDB7DEB72A970FB6F894DEBF0FBECDBF3A
:1005A00080910901811141C0E8EEF1E021E030E0E5
:1005B000018402C0220F331F0A94E2F79091E701F1
:1005C000E085F0E048E0949FE00DF11D1124EE5C21
:1005D000FE4F9081292361F5E090E801F090E90158
:1005E0000091EA011091EB012091EC013091ED01B5
:1005F0004091EE015091EF016091F0017091F10195
:10060000CE0101967CDE8AE0FE013196A8EEB1E0D3
:1006100001900D928A95E1F78091C00085FF07C097
:1006200060E080E08BDF81E003C080E001C081E01A
:100630002A960FB6F894DEBF0FBECDBFDF91CF91E3
:100640001F910F91FF90EF900895CF92DF92EF925C
:10065000FF920F931F93CF93DF93CDB7DEB78C013B
:10066000C154DF4F8881CF5BD040811109C086EB38
:10067000FE013B96D80101900D928A95E1F7A6C044
:10068000C054DF4F9881C05CD040981728F0C05408
:10069000DF4F1882C05CD04080910901811112C0E7
:1006A000C054DF4F8881C05CD04060E02BE030E078
:1006B0002C0F3D1F48E0849F200D311D1124C901DE
:1006C000D1DE07C0813009F079C060E081E291E0BD
:1006D000C9DE8091090181113CC0C054DF4F88817F
:1006E000C05CD040EDEAF0E0EC0FFD1FE80FF11D1B
:1006F000208130E0A901440F551F220F331F220F24
:10070000331F220F331F420F531F052E000C660BA1
:10071000770BC0900A01D0900B01E0900C01F09093
:100720000D01C416D506E606F70608F447C091E0A9
:10073000909309018F5FC054DF4F8883C05CD04025
:1007400010920A0110920B0110920C0110920D01EF
:1007500035C0813099F5C054DF4F8881C05CD040EE
:10076000EBE9F0E0EC0FFD1FE80FF11D208130E018
:10077000C901880F991F220F331F220F331F220F29
:10078000331F820F931F092E000CAA0BBB0B409145
:100790000A0150910B0160910C0170910D014817F5
:1007A00059076A077B0750F01092090110920A015D
:1007B00010920B0110920C0110920D0186EBFE01BC
:1007C0003B96D80101900D928A95E1F7C801DF911F
:1007D000CF911F910F91FF90EF90DF90CF900895F0
:1007E000CF93DF93C1E0D0E007C0909108019F5FF5
:1007F00090930801C650DF4FCE0118D48111F5CF78
:10080000DF91CF9108952F923F924F925F926F9216
:100810007F928F929F92AF92BF92CF92DF92EF9290
:10082000FF920F931F93CF93DF93CDB7DEB7CA52DA
:10083000D2400FB6F894DEBF0FBECDBFA090070127
:100840002AEFA29E50011124C5010196EFD3282E54
:10085000750182E0E80EF11C02EF11E00F2EFAEFB5
:10086000CF2EF1E0DF2EF02DC701E0D3F801819308
:100870008F01FFEFEF1AFF0A0C151D05A9F78DB7C1
:100880009EB7865B91090FB6F8949EBF0FBE8DBFD1
:10089000ADB7BEB7119686EBE2E3F1E001900D92A1
:1008A0008A95E1F7CE018B589E4F08DE86EBFE015C
:1008B000EB58FE4FA2E3B1E001900D928A95E1F76B
:1008C0009BE0A90EB11C0FB6F894DEBF0FBECDBFE2
:1008D000211069C087C0C701800F911FA7D3F801FD
:1008E00081938F01EC15FD05B1F7C50108969ED3E4
:1008F000182FC50109969AD3E2E3F1E0DE01A9546D
:10090000BF4F952D01900D929A95E1F7F3019081DB
:10091000F401DE01A359BE4F232D01900D922A95BB
:10092000E1F7A7EBB0E0AC0FBD1FF8E09F9FA00D73
:10093000B11D1124FE01E359FE4F232D01900D92AC
:100940002A95E1F727EB30E02C0F3D1F290F311DD1
:10095000F901E057FF4F1083729680839F5FC5595E
:10096000DE4F9883CB56D140FE01E954FF4FDE01A4
:100970001196852D01900D928A95E1F7CB54DF4FAA
:100980009883C55BD040FE013196A2E3B1E0852D8E
:1009900001900D928A95E1F72AE0A20EB11C4394D2
:1009A00042101BC01FC0412C0F2EFAE28F2EF1E027
:1009B0009F2EF02D0F2EF2E3CF2EF1E0DF2EF02D43
:1009C0000F2EF6EB5F2EF02D0F2EF6EE6F2EF1E0D0
:1009D0007F2EF02D6894332433F884017501E818D4
:1009E000F90879CFC65DDD4F0FB6F894DEBF0FBEB4
:1009F000CDBFDF91CF911F910F91FF90EF90DF90CE
:100A0000CF90BF90AF909F908F907F906F905F90AE
:100A10004F903F902F900895CF93DF93CDB7DEB7DF
:100A2000C65BD1090FB6F894DEBF0FBECDBF8DB740
:100A30009EB7865B91090FB6F8949EBF0FBE8DBF1F
:100A4000ADB7BEB7119686EBE2E3F1E001900D92EF
:100A50008A95E1F7CE010196F8DD86EBFE0131962D
:100A6000A2E3B1E001900D928A95E1F70FB6F894F8
:100A7000DEBF0FBECDBF61E082EF91E0F3DCCA5470
:100A8000DF4F0FB6F894DEBF0FBECDBFDF91CF9121
:100A90000895C2DF77DD62E088EE91E0E3CC08954F
:100AA00062E081E291E0DEDC61E081E291E0DADCAB
:100AB00060E081E291E0D6CC08958091FA01813026
:100AC00051F028F08230C1F0833029F133C081E049
:100AD0008093FA01089580912901882309F440C088
:100AE000813021F482E08093FA012BC08230C1F57D
:100AF00083E08093FA0127C080912901811105C00C
:100B000081E08093FA01CCDF15C08230D1F483E01C
:100B10008093FA0118C080912901811105C081E0FC
:100B20008093FA01BDDF06C0813069F482E08093D2
:100B3000FA0107C08091FA01823019F0833019F070
:100B400008956ACF08958091060190E0880F991F5B
:100B5000880F991F880F991F60E08E5C9E4F82CC92
:100B60000895EF92FF920F931F93CF93DF93CDB72A
:100B7000DEB72A970FB6F894DEBF0FBECDBF8091C7
:100B80001E01813051F018F0823089F138C081E0C7
:100B900080931E011092200132C080912001882391
:100BA00099F182E080931E01E090E801F090E90164
:100BB0000091EA011091EB012091EC013091ED01DF
:100BC0004091EE015091EF016091F0017091F101BF
:100BD000CE01019694DB8AE0FE013196A8EEB1E0E9
:100BE00001900D928A95E1F71092E70108C080917B
:100BF0002001811108C081E080931E0151DF8091A6
:100C00001E01823009F445DF2A960FB6F894DEBF44
:100C10000FBECDBFDF91CF911F910F91FF90EF904D
:100C200008958091C00085FF04C060E080910701B5
:100C300085DC8091C00085FF0BC0809107012AEF01
:100C4000829FC00111240196F1D160E0806876CCCA
:100C500008958091C00085FF08C0E0910601F0E092
:100C6000EC52FE4F60E0808169DC8091C00085FF1E
:100C700009C0E0910601F0E0EE53FE4F808160E094
:100C800080685CCC0895CF938091C00088230CF0DD
:100C90001FC180E065DC80931F01811128C0E091B5
:100CA000F001E73008F014C181E090E00090F1011C
:100CB00002C0880F991F0A94E2F7AE2FB0E0AE5041
:100CC000BE4F11962C91282309F402C1EF5FE093E7
:100CD000F001F0E0DF01A951BE4F9C91982B9C934D
:100CE000E851FE4F8095908189238083F1C0813047
:100CF00059F54091F101473008F0EAC061E0640F16
:100D00008091F00190E021E030E0062E02C0220F39
:100D1000331F0A94E2F7FC01EE50FE4F508152233C
:100D200009F4D6C06093F101FC01E851FE4F209513
:100D300081E090E002C0880F991F4A95E2F7908108
:100D4000892B28232083C4C0823039F5E091F0013B
:100D5000EE2309F4BDC081E090E00090F10102C0F3
:100D6000880F991F0A94E2F7AE2FB0E0AF50BE4F44
:100D70002C91282309F4ACC0E150E093F001F0E09D
:100D8000DF01A751BE4F9C91982B9C93E851FE4FD9
:100D900080959081892380839BC0833059F5409151
:100DA000F101442309F494C06FEF640F8091F001C6
:100DB00090E021E030E0062E02C0220F331F0A949B
:100DC000E2F7FC01EE50FE4F5081522309F480C03F
:100DD0006093F101FC01E851FE4F209581E090E025
:100DE00002C0880F991F4A95E2F79081892B28232A
:100DF00020836EC0843021F481E08093200168C09C
:100E0000853019F41092200163C0863029F481E006
:100E10008093290106DF5CC0873041F410922901DC
:100E20001092070110920601EEDC52C0883041F5A5
:100E300080912901813091F4C09107012AEFC29F6E
:100E4000C001112485509F4FF1D0882309F440C080
:100E5000CF5FC0930701D7DCE4DE3AC08230C1F532
:100E600020910601422F50E08091E60190E0019729
:100E7000481759076CF52F5F20930601EADE28C05A
:100E80008930C9F480912901813051F480910701A2
:100E90008823F1F0815080930701B5DCC2DE18C0D1
:100EA0008230B1F480910601882391F081508093C3
:100EB0000601CFDE0DC08E3029F482E08093290137
:100EC000C8DE06C08F3021F481E080932901A9DEBD
:100ED000CF910895CF93DF93CDB7DEB7C65BD1092D
:100EE0000FB6F894DEBF0FBECDBF8FEF84B915B833
:100EF0008AB91BB887B918B880E0FEDA71DC11D95D
:100F000081E090E0A0E0B0E08093000190930101C7
:100F1000A0930201B093030180930E0190930F01FF
:100F2000A0931001B093110111D910921E012091CC
:100F300021013091220140912301509124016091BF
:100F40002501709126018091270190912801A1D956
:100F5000E1E2F1E02083318342835383648375832C
:100F6000868397838DB79EB7865B91090FB6F894F9
:100F70009EBF0FBE8DBFADB7BEB7119686EBE2E345
:100F8000F1E001900D928A95E1F7CE01019696DA93
:100F900086EBFE013196A2E3B1E001900D928A95B5
:100FA000E1F70FB6F894DEBF0FBECDBF2091F2017E
:100FB0003091F3014091F4015091F5016091F601F7
:100FC0007091F7018091F8019091F90162D9E2EFF7
:100FD000F1E0208331834283538364837583868366
:100FE000978311DCE090E801F090E9010091EA01BB
:100FF0001091EB012091EC013091ED014091EE0157
:101000005091EF016091F0017091F101CE010196D4
:1010100076D98AE0FE013196A8EEB1E001900D92FA
:101020008A95E1F79EDD49DD2EDEFCCFF999FECFF2
:1010300092BD81BDF89A992780B50895F894FFCFA5
:0410400001000000AB
:00000001FF
