S00F00007363626F756E642E7372656327
S113000045C0000060C000005EC000005CC000008D
S11300105AC0000058C0000056C0000054C0000080
S113002052C0000050C000004EC000004CC0000090
S11300304AC000001AC1000046C0000044C00000CD
S113004042C0000040C000003EC000003CC00000B0
S11300503AC0000038C0000036C0000034C00000C0
S113006032C0000030C000002EC000002CC00000D0
S11300702AC0000028C0000026C0000024C00000E0
S113008022C0000020C000001EC0000011241FBEBA
S1130090CFEFD0E4DEBFCDBF11E0A0E0B1E0EEE1F0
S11300A0FEE000E00BBF02C007900D92A630B1073E
S11300B0D9F722E0A6E0B1E001C01D92A73BB20748
S11300C0E1F778D4AAC69CCF009721F0813091053E
S11300D049F005C0109207011092060103C0813057
S11300E09105C9F5809106019091070101969093BD
S11300F007018093060140910B0150910C0160911E
S11301000D0170910E014F5F5F4F6F4F7F4F409312
S11301100B0150930C0160930D0170930E0120911B
S11301200001309101012817390798F480910A01E0
S1130130811104C081E080930A0104C0813011F46C
S113014010920A01109207011092060181E090E0DA
S1130150089581E090E00895E3E1F1E011821082D6
S113016084E190E0A0E0B0E082839383A483B5832C
S113017086839783A087B18786EE92E093878287F0
S11301801586148681E090E0A0E0B0E0868797872A
S1130190A08BB18B828B938BA48BB58B84E690E080
S11301A0978B868B08958BE0809381008DE790E098
S11301B0909389008093880082E080936F0010926E
S11301C08500109284008091020190910301A09116
S11301D00401B091050180930F0190931001A09345
S11301E01101B09312018FB780688FBF0895EF9209
S11301F0FF920F931F93CF93DF93C3E1D1E00F2EB0
S1130200FBE2EF2EF1E0FF2EF02D8E014E815F8197
S1130210688579858A819B81AC81BD81481759079E
S11302206A077B0758F0EA85FB85888199810995DF
S1130230998388831E821F8218861986F801868115
S11302409781A085B1850196A11DB11D86839783F1
S1130250A087B1872C96CE15DF05B9F6DF91CF9133
S11302601F910F91FF90EF9008951F920F920FB678
S11302700F9211240BB60F922F933F934F935F93DA
S11302806F937F938F939F93AF93BF93EF93FF935A
S113029080910F0190911001A0911101B091120170
S11302A00197A109B10980930F0190931001A093C4
S11302B01101B0931201892B8A2B8B2B89F497DFC0
S11302C08091020190910301A0910401B091050174
S11302D080930F0190931001A0931101B093120128
S11302E0FF91EF91BF91AF919F918F917F916F910A
S11302F05F914F913F912F910F900BBE0F900FBEC6
S11303000F901F901895CF93DF93CDB7DEB760970A
S11303100FB6F894DEBF0FBECDBF29873A874B874F
S11303205C876D877E878F87988BFE0139969E0147
S11303302F5E3F4F8FEF8193E217F307E1F788E0D9
S1130340FE013996DE01119601900D928A95E1F72E
S113035029813A814B815C816D817E818F81988571
S113036060960FB6F894DEBF0FBECDBFDF91CF917C
S11303700895EF92FF920F931F93CF93DF93CDB71E
S1130380DEB72A970FB6F894DEBF0FBECDBFBC010F
S1130390E982FA820B831C832D833E834F83588723
S11303A0FE0131969E01275F3F4F9FEF9193E21725
S11303B0F307E1F79981977F9983198683E08A8708
S11303C08AE0FE013196DB0101900D928A95E1F7F6
S11303D0CB012A960FB6F894DEBF0FBECDBFDF91D6
S11303E0CF911F910F91FF90EF90089585B9299AAD
S11303F015B8089520E030E0E1E0F0E071E060E05D
S1130400AF01022E02C0440F551F0A94E2F748239D
S1130410972F09F4962F95B9299A65B92F5F3F4F05
S11304202830310569F784E085B90895CF93C8E091
S113043081E0DCDFC150E1F784E085B9CF91089514
S1130440F5DFF4DFF3CF08950F931F93CF93DF937A
S1130450182FC92F062FD42FF3DF51E001C0550FF9
S11304600A95EAF7E12FFC2F20E030E0C0E0A1E09C
S1130470B0E09191952349F0CD01022E02C0880F7E
S1130480991F0A94E2F7C82B09C0BD01022E02C0CD
S1130490660F771F0A94E2F76095C6232F5F3F4FDC
S11304A02830310531F7D13071F018F0D23031F005
S11304B00EC0BCDF8C2F9EDFB9DF09C08C2F9ADF02
S11304C0B5DFB4DF04C0B2DFB1DF8C2F93DFDF917F
S11304D0CF911F910F910895CF92DF92FF920F93C6
S11304E01F93CF93DF936C01F62EC0E0D0E001E0C0
S11304F010E098010C2E02C0220F331F0A94E2F779
S11305002BB94F2D6C2FC6019FDF8FEA94E0019722
S1130510F1F700C0000094DF2196C830D10549F7F7
S1130520DF91CF911F910F91FF90DF90CF900895AD
S11305308FEE88B90000309B29C0319B29C0329BC3
S113054029C0339B29C08FED88B90000309B26C099
S1130550319B26C0329B26C0339B26C08FEB88B9C3
S11305600000309B23C0319B23C0329B23C0339BAC
S113057023C08FE788B90000309B20C0319B20C086
S1130580329B20C0339B20C080E0089581E308950E
S113059084E3089587E308958AE2089582E3089541
S11305A085E3089588E3089580E3089583E3089537
S11305B086E3089589E3089583E2089581E4089524
S11305C082E4089583E4089584E40895CF93DF9347
S11305D0EC018130910551F08230910509F4A1C0FC
S11305E0892B09F0B4C0C1E0D0E0B1C0A1DF809391
S11305F00801882309F4ABC0843321F5E091AD02EE
S1130600E73008F093C0EF5FA5EAB2E01896EC93E8
S11306101897F0E081E090E019960C9002C0880FE2
S1130620991F0A94E2F7DF01AC55BD4F9C91982BBA
S11306309C93EB55FD4F8095908189238083C2E084
S1130640D0E085C0823319F52091AE02273008F03E
S113065070C031E0320FE5EAF2E03187E085F0E086
S1130660EB55FD4F81E090E0AC0102C0440F551FF3
S11306703A95E2F7409502C0880F991F2A95E2F750
S11306809081892B84238083C2E0D0E060C08533CD
S113069021F5E091AD02EE2309F44EC0E150A5EA44
S11306A0B2E01896EC931897F0E081E090E0199688
S11306B00C9002C0880F991F0A94E2F7DF01AA5533
S11306C0BD4F9C91982B9C93EB55FD4F8095908149
S11306D089238083C2E0D0E03AC0883381F5209139
S11306E0AE02222379F13FEF320FE5EAF2E03187DF
S11306F0E085F0E0EB55FD4F81E090E0AC0102C0F5
S1130700440F551F3A95E2F7409502C0880F991F90
S11307102A95E2F79081892B84238083C2E0D0E07C
S113072016C006DF882389F003DF11C0C2E0D0E0E1
S11307300EC0C2E0D0E00BC0C2E0D0E008C0C2E00E
S1130740D0E005C0C2E0D0E002C0C1E0D0E0CE01FC
S1130750DF91CF910895CF93DF93CDB7DEB79C019E
S11307609EE19150F1F7C359DE4F1882CD56D14026
S1130770C259DE4F1882CE56D1408AE691E0FE017E
S11307803596D90101900D920197E1F7C901DF91E6
S1130790CF910895EF92FF920F931F93CF93DF931E
S11307A0CDB7DEB72A970FB6F894DEBF0FBECDBF24
S11307B08091090181113AC0E5EAF2E021E030E0DC
S11307C0018402C0220F331F0A94E2F79091A4021D
S11307D0E085F0E048E0949FE00DF11D1124E55C14
S11307E0FE4F9081292319F5E090A502F090A6020E
S11307F00091A7021091A8022091A9023091AA02A7
S11308004091AB025091AC026091AD027091AE0286
S1130810CE010196AEDD8AE0FE013196A5EAB2E092
S113082001900D928A95E1F781E001C080E02A965B
S11308300FB6F894DEBF0FBECDBFDF91CF911F91ED
S11308400F91FF90EF9008950F931F93CF93DF9331
S1130850CDB7DEB78C01C159DE4F8881CF56D14068
S113086081110AC08AE691E0FE013796D801019011
S11308700D920197E1F798C0C059DE4F9881C05797
S1130880D140981728F0C059DE4F1882C057D14084
S113089080910901811112C0C059DE4F8881C0576F
S11308A0D14060E027E030E02C0F3D1F48E0849FFA
S11308B0200D311D1124C9010FDE07C0813009F05C
S11308C06AC060E08BE291E007DE8091090181114A
S11308D035C0C059DE4F2881C057D140E22FF0E027
S11308E0EA56FF4FEE0FFF1F87E090E08C0F9D1F2D
S11308F0E80FF91F80819181A0E0B0E040910B01E5
S113090050910C0160910D0170910E014817590727
S11309106A077B0708F43FC081E0809309012F5FD9
S1130920C059DE4F2883C057D14010920B0110925A
S11309300C0110920D0110920E012DC0813059F559
S1130940C059DE4FE881C057D140F0E0E858FF4F6E
S1130950EE0FFF1F27E030E02C0F3D1FE20FF31FC7
S113096080819181A0E0B0E040910B0150910C0195
S113097060910D0170910E01481759076A077B07B2
S113098050F01092090110920B0110920C01109278
S11309900D0110920E018AE691E0FE013796D8010E
S11309A001900D920197E1F7C801DF91CF911F915A
S11309B00F910895CF93DF93CDB7DEB7C252D740DE
S11309C00FB6F894DEBF0FBECDBF8FEF84B915B854
S11309D08AB91BB880EF87B98FE088B9BDDB81E0A5
S11309E090E0A0E0B0E08093020190930301A09313
S11309F00401B093050180930F0190931001A0931B
S1130A001101B0931201CFDB2091330130913401F5
S1130A104091350150913601609137017091380150
S1130A208091390190913A016EDCE3E3F1E0208397
S1130A303183428353836483758386839783E4E39A
S1130A40F1E00AE311E020E0A12CB12C61E070E0B8
S1130A50CC24C394F12CEC2CDF2C2AC0308122232B
S1130A6069F0AB01082E02C0440F551F0A94E2F747
S1130A70342B3C93213069F42D2D0BC0AB01082E8F
S1130A8002C0440F551F0A94E2F7409534233C9367
S1130A902E2D01968830910509F7213021F021117E
S1130AA003C02C2D01C02F2D3196E017F10721F042
S1130AB08A2D9B2DDF01D2CF2091AF023091B0025D
S1130AC04091B1025091B2026091B3027091B402AC
S1130AD08091B5029091B60216DCEFEAF2E0208331
S1130AE03183428353836483758386839783E0EBE6
S1130AF0F2E006EB12E021E0A12CB12C61E070E001
S1130B00CC24C394F12CEC2CDF2C2AC0308122237A
S1130B1069F0AB01082E02C0440F551F0A94E2F796
S1130B20342B3C93213069F42D2D0BC0AB01082EDE
S1130B3002C0440F551F0A94E2F7409534233C93B6
S1130B402E2D01968830910509F7213021F02111CD
S1130B5003C02C2D01C02F2D3196E017F10721F091
S1130B608A2D9B2DDF01D2CF20912B0130912C01B6
S1130B7040912D0150912E0160912F01709130010F
S1130B808091310190913201BEDBEBE2F1E02083F0
S1130B9031834283538364837583868397834DB7FC
S1130BA05EB74A5651400FB6F8945EBF0FBE4DBFB4
S1130BB0ADB7BEB711968AE691E0EBE3F1E00190A0
S1130BC00D920197E1F7CE0187549A4FC4DD8AE66E
S1130BD091E0FE01E754FA4FABE3B1E001900D92CE
S1130BE00197E1F78AE691E0EBE3F1E0DE01A15C35
S1130BF0BB4F01900D920197E1F703EA12E0D8018F
S1130C002C9188E0E3E3F1E0DE01AF54BA4F0190A8
S1130C100D928A95E1F7822F90E0AFE3B4E0AC0F38
S1130C20BD1FE8E02E9FA00DB11D112438E0FE0188
S1130C30EF54FA4F01900D923A95E1F7FC01E85810
S1130C40FF4FEE0FFF1F4FE354E04C0F5D1FE40F07
S1130C50F51F6EE571E071836083FC01EA56FF4F76
S1130C60EE0FFF1FE40FF51F48EC50E05183408363
S1130C702F5FC955DA4F2883C75AD5408AE691E0D9
S1130C80FE01E15CFB4FDE01AB52BD4F01900D92C2
S1130C900197E1F7C35CDB4F2883CD53D4408AE648
S1130CA091E0FE01EB52FD4FABE3B1E001900D92F8
S1130CB00197E1F78AE691E0EBE3F1E0DE01A55963
S1130CC0BE4F01900D920197E1F7D8012C9188E075
S1130CD0EFEAF2E0DE01A755BA4F01900D928A9532
S1130CE0E1F7822F90E0ABE6B1E0AC0FBD1FE8E086
S1130CF02E9FA00DB11D112438E0FE01E755FA4FD7
S1130D0001900D923A95E1F7FC01E858FF4FEE0F80
S1130D10FF1FABE6B1E0AC0FBD1FEA0FFB1F7183F1
S1130D206083FC01EA56FF4FEE0FFF1FEA0FFB1F23
S1130D30518340832F5FCD52DD4F2883C35DD24062
S1130D408AE691E0FD01AA56B14001900D92019707
S1130D50E1F7C759DE4F2883C956D1408AE691E0AE
S1130D60FE013196ABE3B1E001900D920197E1F7FA
S1130D700FB6F894DEBF0FBECDBFE090A502F09091
S1130D80A6020091A7021091A8022091A902309115
S1130D90AA024091AB025091AC026091AD027091F5
S1130DA0AE02CE0187549A4FE4DA8AE0FE01E7549A
S1130DB0FA4FA5EAB2E001900D928A95E1F70AE6AE
S1130DC011E04DB75EB74A5651400FB6F8945EBF76
S1130DD00FBE4DBFADB7BEB71196EBE3F1E0C8014E
S1130DE001900D920197E1F7CE0187549A4F2CDDC3
S1130DF0FE01E754FA4FABE3B1E0C80101900D9254
S1130E000197E1F70FB6F894DEBF0FBECDBFC2DC89
S1110E1062E085EA92E060DBD4CFF894FFCF75
S1090E1EF40101000000D4
S9030000FC
