:1000000045C0000060C000005EC000005CC0000091
:100010005AC0000058C0000056C0000054C0000084
:1000200052C0000050C000004EC000004CC0000094
:100030004AC000001AC1000046C0000044C00000D1
:1000400042C0000040C000003EC000003CC00000B4
:100050003AC0000038C0000036C0000034C00000C4
:1000600032C0000030C000002EC000002CC00000D4
:100070002AC0000028C0000026C0000024C00000E4
:1000800022C0000020C000001EC0000011241FBEBE
:10009000CFEFD0E4DEBFCDBF11E0A0E0B1E0E4ECF3
:1000A000FDE000E00BBF02C007900D92A630B10743
:1000B000D9F726E0A6E0B1E001C01D92AB32B2074D
:1000C000E1F75ED47DC69CCF009721F08130910589
:1000D00049F005C0109207011092060103C081305B
:1000E0009105C9F5809106019091070101969093C1
:1000F00007018093060140910B0150910C01609122
:100100000D0170910E014F5F5F4F6F4F7F4F409316
:100110000B0150930C0160930D0170930E0120911F
:100120000001309101012817390798F480910A01E4
:10013000811104C081E080930A0104C0813011F470
:1001400010920A01109207011092060181E090E0DE
:10015000089581E090E00895E3E1F1E011821082DA
:1001600084E190E0A0E0B0E082839383A483B58330
:1001700086839783A087B18788EC92E093878287F4
:100180001586148681E090E0A0E0B0E0868797872E
:10019000A08BB18B828B938BA48BB58B84E690E084
:1001A000978B868B08958BE0809381008DE790E09C
:1001B000909389008093880082E080936F00109272
:1001C0008500109284008091020190910301A0911A
:1001D0000401B091050180930F0190931001A09349
:1001E0001101B09312018FB780688FBF0895EF920D
:1001F000FF920F931F93CF93DF93C3E1D1E00F2EB4
:10020000FBE2EF2EF1E0FF2EF02D8E014E815F819B
:10021000688579858A819B81AC81BD8148175907A2
:100220006A077B0758F0EA85FB85888199810995E3
:10023000998388831E821F8218861986F801868119
:100240009781A085B1850196A11DB11D86839783F5
:10025000A087B1872C96CE15DF05B9F6DF91CF9137
:100260001F910F91FF90EF9008951F920F920FB67C
:100270000F9211240BB60F922F933F934F935F93DE
:100280006F937F938F939F93AF93BF93EF93FF935E
:1002900080910F0190911001A0911101B091120174
:1002A0000197A109B10980930F0190931001A093C8
:1002B0001101B0931201892B8A2B8B2B89F497DFC4
:1002C0008091020190910301A0910401B091050178
:1002D00080930F0190931001A0931101B09312012C
:1002E000FF91EF91BF91AF919F918F917F916F910E
:1002F0005F914F913F912F910F900BBE0F900FBECA
:100300000F901F9018950F931F93CF93DF93CDB746
:10031000DEB78C01AE01495F5F4FBE01695B7F4F65
:1003200030E021E009C021939F5F9830E1F7485FFA
:100330005F4F4617570719F0FA01932FF4CF80E467
:10034000FE013796D80101900D928A95E1F7C80118
:10035000DF91CF911F910F9108950F931F93CF932A
:10036000DF93CDB7DEB78C01AE01495F5F4FBE01B1
:10037000695B7F4F38E021E008C021939150E9F795
:10038000485F5F4F4617570719F0FA01932FF5CFD3
:100390001A8628961FAE289783E029968FAF299753
:1003A00082E4FE013796D80101900D928A95E1F71B
:1003B000C801DF91CF911F910F91089585B9299AB6
:1003C00015B80895CF93DF93C8E0D0E081E0F6DF61
:1003D0002197E1F784E085B9DF91CF910895F2DFAD
:1003E000F1DFF0CF08950F931F93CF93DF93EC01CC
:1003F0008C01085F1F4F8991E1DFC017D107D9F742
:1004000084E085B9DF91CF911F910F910895EF920C
:10041000FF920F931F93CF93DF93CDB7DEB728974B
:100420000FB6F894DEBF0FBECDBF8C01E62EF42EC2
:10043000D6DFF801EE0DF11DDE0111969E01275F5A
:100440003F4F80818D933896A217B307D1F781E093
:10045000F81691F0F81620F082E0F81639F011C085
:10046000B1DFCE010196BFDFADDF0BC0CE0101963B
:10047000BADFA8DFA7DF05C0A5DFA4DFCE010196A4
:10048000B2DF28960FB6F894DEBF0FBECDBFDF9166
:10049000CF911F910F91FF90EF900895CF92DF922F
:1004A000FF920F931F93CF93DF936C01F62EC0E062
:1004B000D0E001E010E098010C2E02C0220F331FA3
:1004C0000A94E2F72BB94F2D6C2FC601A0DF8FEAFB
:1004D00094E00197F1F700C0000081DF2196C83059
:1004E000D10549F7DF91CF911F910F91FF90DF90D8
:1004F000CF9008958FEE88B90000309B29C0319BC2
:1005000029C0329B29C0339B29C08FED88B90000D8
:10051000309B26C0319B26C0329B26C0339B26C011
:100520008FEB88B90000309B23C0319B23C0329BE6
:1005300023C0339B23C08FE788B90000309B20C0C5
:10054000319B20C0329B20C0339B20C080E00895A7
:1005500081E3089584E3089587E308958AE2089586
:1005600082E3089585E3089588E3089580E308957C
:1005700083E3089586E3089589E3089583E2089567
:1005800081E4089582E4089583E4089584E408955D
:10059000CF93DF93EC018130910551F082309105CA
:1005A00009F4AAC0892B09F0BDC0C1E0D0E0BAC0EF
:1005B000A1DF80930801882309F4B4C0843349F58E
:1005C0008091E905873008F09CC08F5F8093E90532
:1005D00090E02091EA0530E0FC013197EE0FFF1F1B
:1005E000EE0FFF1FEE0FFF1FE20FF31FE755FA4F4D
:1005F00041E04083880F991F880F991F880F991F2A
:10060000820F931FFC01E755FA4F1082C2E0D0E041
:1006100089C0823311F58091EA05873008F074C0F3
:100620008F5F8093EA05E091E905F0E090E0EE0F3E
:10063000FF1FEE0FFF1FEE0FFF1FDC01AE0FBF1FEE
:10064000A855BA4F21E02C938E0F9F1FFC01E75550
:10065000FA4F1082C2E0D0E065C0853349F5809141
:10066000E905882309F453C081508093E90590E09F
:100670002091EA0530E0FC013196EE0FFF1FEE0FEE
:10068000FF1FEE0FFF1FE20FF31FE755FA4F41E088
:100690004083880F991F880F991F880F991F820F19
:1006A000931FFC01E755FA4F1082C2E0D0E03AC038
:1006B000883381F58091EA05882379F18150809310
:1006C000EA05E091E905F0E090E0EE0FFF1FEE0F84
:1006D000FF1FEE0FFF1FDF01A755BA4FA80FB91F6D
:1006E00021E011962C938E0F9F1FFC01E755FA4FC6
:1006F0001082C2E0D0E016C0FDDE882389F0FADE69
:1007000011C0C2E0D0E00EC0C2E0D0E00BC0C2E039
:10071000D0E008C0C2E0D0E005C0C2E0D0E002C036
:10072000C1E0D0E0CE01DF91CF910895CF93DF9368
:10073000CDB7DEB7CF5FDB4F1882C150D440CE5F5C
:10074000DB4F1882C250D4402EEF33E0FE013596C5
:10075000DC0101900D9221503040D9F7DF91CF910B
:100760000895CF93DF93CDB7DEB7C254D1090FB64A
:10077000F894DEBF0FBECDBF8091090181113FC04B
:100780009091A805E091E905F0E028E0929FE00D46
:10079000F11D11249091EA05EE0FFF1FEE0FFF1FD0
:1007A000EE0FFF1FE90FF11DE555FE4F90819111EE
:1007B00027C08DB79EB7825491090FB6F8949EBF9B
:1007C0000FBE8DBFADB7BEB7119682E4E9EAF5E082
:1007D00001900D928A95E1F7CE010196BEDD82E48B
:1007E000FE013196A9EAB5E001900D928A95E1F7F4
:1007F0000FB6F894DEBF0FBECDBF81E001C080E030
:10080000CE5BDF4F0FB6F894DEBF0FBECDBFDF91DA
:10081000CF9108950F931F93CF93DF93CDB7DEB79A
:100820008C01CD5FDB4F8881C350D44081110AC059
:100830008EEF93E0FE013796D80101900D9201975B
:10084000E1F798C0CC5FDB4F9881C450D440981733
:1008500028F0CC5FDB4F1882C450D440809109014E
:10086000811112C0CC5FDB4F8881C450D44060E05E
:1008700027E030E02C0F3D1F40E4849F200D311D08
:100880001124C9010BDE07C0813009F06AC060E0A5
:100890008BE291E003DE80910901811135C0CC5FCC
:1008A000DB4F2881C450D440E22FF0E0E151FE4FED
:1008B000EE0FFF1F87E090E08C0F9D1FE80FF91FE0
:1008C00080819181A0E0B0E040910B0150910C013A
:1008D00060910D0170910E01481759076A077B0757
:1008E00008F43FC081E0809309012F5FCC5FDB4FAC
:1008F0002883C450D44010920B0110920C01109226
:100900000D0110920E012DC0813059F5CC5FDB4FE7
:10091000E881C450D440F0E0E052FE4FEE0FFF1FDC
:1009200027E030E02C0F3D1FE20FF31F8081918103
:10093000A0E0B0E040910B0150910C0160910D01DD
:1009400070910E01481759076A077B0750F0109203
:10095000090110920B0110920C0110920D011092DE
:100960000E018EEF93E0FE013796D80101900D92B3
:100970000197E1F7C801DF91CF911F910F91089581
:10098000CF93DF93CDB7DEB7C65BD4410FB6F894F3
:10099000DEBF0FBECDBF8FEF84B915B88AB91BB8C3
:1009A00080EF87B98FE088B9D7DB81E090E0A0E0E5
:1009B000B0E08093020190930301A0930401B093EF
:1009C000050180930F0190931001A0931101B09342
:1009D0001201E9DB4DB75EB7405451090FB6F894E8
:1009E0005EBF0FBE4DBFADB7BEB7119680E4EBE65C
:1009F000F1E001900D928A95E1F7CE0187589F4E64
:100A000082DC80E4FE01E758FF4EABE6B1E00190E6
:100A10000D928A95E1F72BE731E0ABEAB1E00FB632
:100A2000F894DEBF0FBECDBF80E040E091E0642FC0
:100A3000592F17C08193813021F0811103C0852F78
:100A400001C0862FE217F307A9F7813021F0811149
:100A500003C0892F01C0842F285F3F4F2A173B070F
:100A600019F0F9013897E6CFADB7BEB7A054B10978
:100A70000FB6F894BEBF0FBEADBF119680E4EBEE8B
:100A8000F5E001900D928A95E1F7CE0187589F4ECF
:100A90003ADC80E4FE01E758FF4EABEEB5E0019092
:100AA0000D928A95E1F72BEF35E0ABE2B6E00FB699
:100AB000F894DEBF0FBECDBF81E040E091E0642F2F
:100AC000592F17C08193813021F0811103C0852FE8
:100AD00001C0862F2E173F07A9F7813021F0811121
:100AE00003C0892F01C0842F285F3F4F2A173B077F
:100AF00019F0F9013897E6CF4DB75EB74054510968
:100B00000FB6F8945EBF0FBE4DBFADB7BEB711961E
:100B100080E4EBE2F1E001900D928A95E1F7CE01DD
:100B200087589F4EF0DB80E4FE01E758FF4EABE2B2
:100B3000B1E001900D928A95E1F70FB6F894DEBF0F
:100B40000FBECDBFADB7BEB7AE5FB3400FB6F89422
:100B5000BEBF0FBEADBF11968EEF93E0EBEAF1E0A2
:100B600001900D920197E1F7CE0187549F4EDEDD93
:100B70008EEF93E0FE01E754FF4EABEAB1E0019047
:100B80000D920197E1F78EEF93E0EBEAF1E0DE01E1
:100B9000A550B44F01900D920197E1F707EA15E0D7
:100BA000F801208180E4EBE6F1E0DE01A75CBF4EB6
:100BB00001900D928A95E1F7822F90E0ABEFBBE0B8
:100BC000AC0FBD1FF0E42F9FA00DB11D112430E428
:100BD000FE01E75CFF4E01900D923A95E1F7FC01B2
:100BE000E052FE4FEE0FFF1F4BEF5BE04C0F5D1F1F
:100BF000E40FF51F6EE571E071836083FC01E15144
:100C0000FE4FEE0FFF1FE40FF51F48EC50E051833D
:100C100040832F5FC950D04F2883C75FDF408EEFDE
:100C200093E0FE01E550F44FDE01A350B84F019070
:100C30000D920197E1F7C750D44F2883C95FDB407D
:100C40008EEF93E0FE01E350F84FABEAB1E0019084
:100C50000D920197E1F78EEF93E0EBEAF1E0DE0110
:100C6000A150BC4F01900D920197E1F7D8012C9152
:100C700080E4EBEEF5E0DE01A750B04F01900D925D
:100C80008A95E1F7822F90E0AFEFB3E0AC0FBD1F84
:100C9000E0E42E9FA00DB11D112430E4FE01E750C9
:100CA000F04F01900D923A95E1F7FC01E052FE4FB2
:100CB000EE0FFF1FAFEFB3E0AC0FBD1FEA0FFB1F3E
:100CC00071836083FC01E151FE4FEE0FFF1FEA0FBD
:100CD000FB1F518340832F5FC550D84F2883CB5FC4
:100CE000D7408EEF93E0FD01AE5FB34001900D92CF
:100CF0000197E1F7C350DC4F2883CD5FD3408EEFDF
:100D000093E0FE013196ABEAB1E001900D920197BC
:100D1000E1F70FB6F894DEBF0FBECDBF4DB75EB79B
:100D2000425451090FB6F8945EBF0FBE4DBFADB728
:100D3000BEB7119682E4E9EAF5E001900D928A953A
:100D4000E1F7CE0187589F4E08DB82E4FE01E758A9
:100D5000FF4EA9EAB5E001900D928A95E1F70FB632
:100D6000F894DEBF0FBECDBF0EEF13E0ADB7BEB738
:100D7000AE5FB3400FB6F894BEBF0FBEADBF1196C5
:100D8000EBEAF1E0C80101900D920197E1F7CE0185
:100D900087589F4E3FDDFE01E758FF4EABEAB1E0BA
:100DA000C80101900D920197E1F70FB6F894DEBFEC
:100DB0000FBECDBFD6DC62E089EA95E06FDBD6CF0F
:040DC000F894FFCFD5
:060DC400F4010100000033
:00000001FF
