:1000000045C0000061C000005FC000005DC000008E
:100010005BC0000059C0000057C0000055C0000080
:1000200053C0000051C000004FC000004DC0000090
:100030004BC0000000C1000047C0000045C00000E8
:1000400043C0000041C000003FC000003DC00000B0
:100050003BC0000039C0000037C0000035C00000C0
:1000600033C0000031C000002FC000002DC00000D0
:100070002BC0000029C0000027C0000025C00000E0
:1000800023C0000021C000001FC0000011241FBEBB
:10009000CFEFD0E4DEBFCDBF11E0A0E0B1E0E4E4FB
:1000A000F9E100E00BBF02C007900D92A430B10748
:1000B000D9F722E0A4E0B1E001C01D92AA3AB2074C
:1000C000E1F775D40C94A00C9BCF009721F0813000
:1000D000910549F005C0109205011092040103C07A
:1000E00081309105F1F48091040190910501019610
:1000F000909305018093040180910801909109017A
:10010000A0910A01B0910B010196A11DB11D809330
:10011000080190930901A0930A01B0930B0181E0BB
:1001200090E00895E0E1F1E01182108284E190E036
:10013000A0E0B0E082839383A483B5838683978312
:10014000A087B1878CEC92E093878287158614860E
:1001500081E090E0A0E0B0E086879787A08BB18B2C
:10016000828B938BA48BB58B85E690E0978B868BE7
:1001700008958BE0809381008DE790E09093890053
:100180008093880082E080936F0010928500109227
:1001900084008091000190910101A0910201B09131
:1001A000030180930C0190930D01A0930E01B09375
:1001B0000F018FB780688FBF0895EF92FF920F9362
:1001C0001F93CF93DF93C0E1D1E00F2EF8E2EF2E23
:1001D000F1E0FF2EF02D8E014E815F8168857985DB
:1001E0008A819B81AC81BD81481759076A077B07CB
:1001F00058F0EA85FB8588819981099599838883E0
:100200001E821F8218861986F80186819781A08533
:10021000B1850196A11DB11D86839783A087B18703
:100220002C96CE15DF05B9F6DF91CF911F910F9176
:10023000FF90EF9008951F920F920FB60F92112426
:100240000BB60F922F933F934F935F936F937F93D0
:100250008F939F93AF93BF93EF93FF9380910C0184
:1002600090910D01A0910E01B0910F010197A1098C
:10027000B10980930C0190930D01A0930E01B093EE
:100280000F01892B8A2B8B2B89F497DF809100013A
:1002900090910101A0910201B091030180930C01A2
:1002A00090930D01A0930E01B0930F01FF91EF9178
:1002B000BF91AF919F918F917F916F915F914F917E
:1002C0003F912F910F900BBE0F900FBE0F901F907C
:1002D0001895CF93DF93CDB7DEB760970FB6F8943C
:1002E000DEBF0FBECDBF29873A874B875C876D87FE
:1002F0007E878F87988BFE0139969E012F5E3F4F38
:100300008FEF8193E217F307E1F788E0FE0139965A
:10031000DE01119601900D928A95E1F729813A81CB
:100320004B815C816D817E818F81988560960FB64F
:10033000F894DEBF0FBECDBFDF91CF910895EF924D
:10034000FF920F931F93CF93DF93CDB7DEB72A971A
:100350000FB6F894DEBF0FBECDBFBC01E982FA82B2
:100360000B831C832D833E834F835887FE01319678
:100370009E01275F3F4F9FEF9193E217F307E1F74D
:100380009981977F9983198683E08A878AE0FE01A5
:100390003196DB0101900D928A95E1F7CB012A9607
:1003A0000FB6F894DEBF0FBECDBFDF91CF911F9186
:1003B0000F91FF90EF90089585B9299A15B8089587
:1003C00020E030E0E1E0F0E071E060E0AF01022E1B
:1003D00002C0440F551F0A94E2F74823972F09F4EF
:1003E000962F95B9299A65B92F5F3F4F283031056F
:1003F00069F784E085B90895CF93C8E081E0DCDF38
:10040000C150E1F784E085B9CF910895F5DFF4DFBD
:10041000F3CF08950F931F93CF93DF93182FC92F16
:10042000062FD42FF3DF51E001C0550F0A95EAF7EC
:10043000E12FFC2F20E030E0C0E0A1E0B0E091919E
:10044000952349F0CD01022E02C0880F991F0A940E
:10045000E2F7C82B09C0BD01022E02C0660F771F4C
:100460000A94E2F76095C6232F5F3F4F283031058D
:1004700031F7D13071F018F0D23031F00EC0BCDF5E
:100480008C2F9EDFB9DF09C08C2F9ADFB5DFB4DF78
:1004900004C0B2DFB1DF8C2F93DFDF91CF911F91CA
:1004A0000F910895CF92DF92FF920F931F93CF93F6
:1004B000DF936C01F62EC0E0D0E001E010E098017F
:1004C0000C2E02C0220F331F0A94E2F72BB94F2DD6
:1004D0006C2FC6019FDF8FEA94E00197F1F700C00F
:1004E000000094DF2196C830D10549F7DF91CF9104
:1004F0001F910F91FF90DF90CF9008958FEE88B9F4
:100500000000309B29C0319B29C0329B29C0339BFE
:1005100029C08FED88B90000309B26C0319B26C0D2
:10052000329B26C0339B26C08FEB88B90000309BDE
:1005300023C0319B23C0329B23C0339B23C08FE752
:1005400088B90000309B20C0319B20C0329B20C066
:10055000339B20C080E0089581E3089584E30895EB
:1005600087E308958AE2089582E3089585E3089574
:1005700088E3089580E3089583E3089586E308956A
:1005800089E3089583E2089581E4089582E408955B
:1005900083E4089584E40895CF93DF93EC018130E0
:1005A000910551F08230910509F4A1C0892B09F021
:1005B000B4C0C1E0D0E0B1C0A1DF809306018823C0
:1005C00009F4ABC0843321F5E091A002E73008F0D4
:1005D00093C0EF5FA8E9B2E01896EC931897F0E0AB
:1005E00081E090E019960C9002C0880F991F0A9440
:1005F000E2F7DF01A956BD4F9C91982B9C93E856DA
:10060000FD4F8095908189238083C2E0D0E085C032
:10061000823319F52091A102273008F070C031E033
:10062000320FE8E9F2E03187E085F0E0E856FD4F6F
:1006300081E090E0AC0102C0440F551F3A95E2F70B
:10064000409502C0880F991F2A95E2F79081892B67
:1006500084238083C2E0D0E060C0853321F5E0913F
:10066000A002EE2309F44EC0E150A8E9B2E01896CA
:10067000EC931897F0E081E090E019960C9002C09E
:10068000880F991F0A94E2F7DF01A756BD4F9C918E
:10069000982B9C93E856FD4F809590818923808309
:1006A000C2E0D0E03AC0883381F52091A102222334
:1006B00079F13FEF320FE8E9F2E03187E085F0E0D1
:1006C000E856FD4F81E090E0AC0102C0440F551F99
:1006D0003A95E2F7409502C0880F991F2A95E2F7F4
:1006E0009081892B84238083C2E0D0E016C006DF8E
:1006F000882389F003DF11C0C2E0D0E00EC0C2E061
:10070000D0E00BC0C2E0D0E008C0C2E0D0E005C03D
:10071000C2E0D0E002C0C1E0D0E0CE01DF91CF91D5
:100720000895CF93DF93CDB7DEB79C0193E291504C
:10073000F1F7CD59DE4F1882C356D140CC59DE4F68
:100740001882C456D14080E691E0FE013596D90169
:1007500001900D920197E1F7C901DF91CF910895C2
:10076000EF92FF920F931F93CF93DF93CDB7DEB736
:100770002A970FB6F894DEBF0FBECDBF8091070158
:1007800081113AC0E8E9F2E021E030E0018402C0E2
:10079000220F331F0A94E2F790919702E085F0E070
:1007A00048E0949FE00DF11D1124E85CFE4F90811C
:1007B000292319F5E0909802F090990200919A028D
:1007C00010919B0220919C0230919D0240919E02CB
:1007D00050919F026091A0027091A102CE010196FA
:1007E000AEDD8AE0FE013196A8E9B2E001900D92FB
:1007F0008A95E1F781E001C080E02A960FB6F8946F
:10080000DEBF0FBECDBFDF91CF911F910F91FF9043
:10081000EF900895CF92DF92EF92FF920F931F9384
:10082000CF93DF93CDB7DEB78C01C759DE4F8881F8
:10083000C956D14081110AC080E691E0FE013B9685
:10084000D80101900D920197E1F7A7C0C659DE4F7C
:100850009881CA56D140981728F0C659DE4F1882A1
:10086000CA56D14080910701811112C0C659DE4F8E
:100870008881CA56D14060E02BE030E02C0F3D1F4C
:1008800048E0849F200D311D1124C9010BDE07C0F3
:10089000813009F079C060E088E291E003DE809168
:1008A000070181113CC0C659DE4F8881CA56D1402C
:1008B000E6E4F1E0EC0FFD1FE80FF11D208130E0D0
:1008C000A901440F551F220F331F220F331F220F80
:1008D000331F420F531F052E000C660B770BC09081
:1008E0000801D0900901E0900A01F0900B01C416B4
:1008F000D506E606F70608F447C091E09093070195
:100900008F5FC659DE4F8883CA56D14010920801C6
:100910001092090110920A0110920B0135C081302A
:1009200099F5C659DE4F8881CA56D140E3E2F1E01D
:10093000EC0FFD1FE80FF11D208130E0C901880F89
:10094000991F220F331F220F331F220F331F820FD5
:10095000931F092E000CAA0BBB0B4091080150916C
:10096000090160910A0170910B01481759076A0744
:100970007B0750F0109207011092080110920901B4
:1009800010920A0110920B0180E691E0FE013B9665
:10099000D80101900D920197E1F7C801DF91CF9145
:1009A0001F910F91FF90EF90DF90CF900895CF931C
:1009B000DF93CDB7DEB7C85AD0430FB6F894DEBF89
:1009C0000FBECDBF8FEF84B915B88AB91BB880EFC1
:1009D00087B98FE088B9A6DB81E090E0A0E0B0E0C5
:1009E0008093000190930101A0930201B093030151
:1009F00080930C0190930D01A0930E01B0930F0111
:100A0000B8DB209130013091310140913201509199
:100A100033016091340170913501809136019091DC
:100A2000370157DCE0E3F1E02083318342835383D5
:100A300064837583868397832091280130912901EF
:100A400040912A0150912B0160912C0170912D0150
:100A500080912E0190912F013CDCE8E2F1E02083AF
:100A600031834283538364837583868397838DB7F1
:100A70009EB7805691400FB6F8949EBF0FBE8DBFB3
:100A8000ADB7BEB7119680E691E0E8E3F1E00190E2
:100A90000D920197E1F7CE01875B904D42DE80E633
:100AA00091E0FE01E75BF04DA8E3B1E001900D920B
:100AB0000197E1F70F2EF0E3EF2EF1E0FF2EF02D7E
:100AC0000FB6F894DEBF0FBECDBF670100E010E0A7
:100AD000C8012ED7F60181936F010F5F1F4F0830B9
:100AE0001105B1F780E691E0E8E3F1E0DE01AF59EE
:100AF000B24D01900D920197E1F78091960298E036
:100B0000E0E3F1E0DE01AF5BB04D01900D929A950C
:100B1000E1F7A1E6BDE2AC0FBD1FF8E08F9FA00D8D
:100B2000B11D112498E0FE01EF5BF04D01900D9294
:100B30009A95E1F721E63DE22C0F3D1F280F311D6C
:100B4000F901E85EFE4F1082B39692E090838F5FCA
:100B5000C154D14D8883CF5BDE4220E631E0FE01F7
:100B6000EF59F24DDE01AF5FB34D01900D92215070
:100B70003040D9F7C15AD24D8883CF55DD4280E647
:100B800091E0FE01EF5FF34DA8E3B1E001900D921B
:100B90000197E1F70F2EF0E3CF2EF1E0DF2EF02DDD
:100BA00008E010E0C801C4D6F60181936F010F5F21
:100BB0001F4F00311105B1F780E691E0E8E3F1E065
:100BC000DE01AF55B54D01900D920197E1F780918F
:100BD000960298E0E0E3F1E0DE01A75CB04D019001
:100BE0000D929A95E1F7A1EABAE2AC0FBD1FF8E0C9
:100BF0008F9FA00DB11D112498E0FE01E75CF04D20
:100C000001900D929A95E1F721EA3AE22C0F3D1FEF
:100C1000280F311DF901E85EFE4F1082B39692E075
:100C200090838F5FC150D44D8883CF5FDB4220E635
:100C300031E0FE01EF55F54DDE01AF5BB64D0190A1
:100C40000D9221503040D9F7C156D54D8883CF59E8
:100C5000DA4280E691E0FE01EF5BF64DA8E3B1E0F9
:100C600001900D920197E1F70F2EF0E3CF2EF1E006
:100C7000DF2EF02DC8015CD6F60181936F010F5F66
:100C80001F4F08311105B1F780E691E0E8E3F1E08C
:100C9000DE01AF51B84D01900D920197E1F78091BF
:100CA000960298E0E0E3F1E0DE01AF5CB04D019028
:100CB0000D929A95E1F7A1EEB7E2AC0FBD1FF8E0F7
:100CC0008F9FA00DB11D112498E0FE01EF5CF04D47
:100CD00001900D929A95E1F721EE37E22C0F3D1F1E
:100CE000280F311DF901E85EFE4F1082B39692E0A5
:100CF00090838F5FC15CD64D8883CF53D94220E665
:100D000031E0FE01EF51F84DDE01AF57B94D0190D2
:100D10000D9221503040D9F7C152D84D8883CF5D14
:100D2000D74280E691E0FE01EF57F94DA8E3B1E02C
:100D300001900D920197E1F70F2EF0E3CF2EF1E035
:100D4000DF2EF02DC801F4D5F60181936F010F5FFE
:100D50001F4F00321105B1F780E691E0E8E3F1E0C2
:100D6000DE01AF5DBA4D01900D920197E1F78091E0
:100D7000960298E0E0E3F1E0DE01A75DB04D01905E
:100D80000D929A95E1F7A1E2B5E2AC0FBD1FF8E034
:100D90008F9FA00DB11D112498E0FE01E75DF04D7D
:100DA00001900D929A95E1F721E235E22C0F3D1F5B
:100DB000280F311DF901E85EFE4F1082B39692E0D4
:100DC00090838F5FC158D94D8883CF57D64220E694
:100DD00031E0FE01EF5DFA4DDE01AF53BC4D0190F5
:100DE0000D9221503040D9F7C15EDA4D8883CF5142
:100DF000D54280E691E0FE01EF53FC4DA8E3B1E05F
:100E000001900D920197E1F70F2EF0E3CF2EF1E064
:100E1000DF2EF02DC8018CD5F60181936F010F5F95
:100E20001F4F08321105B1F780E691E0E8E3F1E0E9
:100E3000DE01AF59BD4D01900D920197E1F7809110
:100E4000960298E0E0E3F1E0DE01AF5DB04D019085
:100E50000D929A95E1F7A1E6B2E2AC0FBD1FF8E062
:100E60008F9FA00DB11D112498E0FE01EF5DF04DA4
:100E700001900D929A95E1F721E632E22C0F3D1F89
:100E8000280F311DF901E85EFE4F1082B39692E003
:100E900090838F5FC154DC4D8883CF5BD34220E6C3
:100EA00031E0FE01EF59FD4DDE01AF5FBE4D019017
:100EB0000D9221503040D9F7C15ADD4D8883CF556E
:100EC000D24280E691E0FE01EF5FFE4DA8E3B1E083
:100ED00001900D920197E1F70F2EF0E3CF2EF1E094
:100EE000DF2EF02DC80124D5F60181936F010F5F2D
:100EF0001F4F00331105B1F780E691E0E8E3F1E020
:100F0000DE01AF55B04E01900D920197E1F780914F
:100F1000960298E0E0E3F1E0DE01A75EB04D0190BB
:100F20000D929A95E1F7A1EABFE1AC0FBD1FF8E081
:100F30008F9FA00DB11D112498E0FE01E75EF04DDA
:100F400001900D929A95E1F721EA3FE12C0F3D1FA8
:100F5000280F311DF901E85EFE4F1082B39692E032
:100F600090838F5FC150DF4D8883CF5FD04220E6F2
:100F700031E0FE01EF55F04EDE01AF5BB14E019066
:100F80000D9221503040D9F7C156D04E8883CF59A9
:100F9000DF4180E691E0FE01EF5BF14EA8E3B1E0B6
:100FA00001900D920197E1F70F2EF0E3CF2EF1E0C3
:100FB000DF2EF02DC801BCD4F60181936F010F5FC5
:100FC0001F4F08331105B1F780E691E0E8E3F1E047
:100FD000DE01AF51B34E01900D920197E1F7809180
:100FE000960298E0E0E3F1E0DE01AF5EB04D0190E3
:100FF0000D929A95E1F7A1EEBCE1AC0FBD1FF8E0B0
:101000008F9FA00DB11D112498E0FE01EF5EF04D01
:1010100001900D929A95E1F721EE3CE12C0F3D1FD6
:10102000280F311DF901E85EFE4F1082B39692E061
:1010300090838F5FC15CD14E8883CF53DE4120E621
:1010400031E0FE01EF51F34EDE01AF57B44E019097
:101050000D9221503040D9F7C152D34E8883CF5DD5
:10106000DC4180E691E0FE01EF57F44EA8E3B1E0E9
:1010700001900D920197E1F70F2EF0E3CF2EF1E0F2
:10108000DF2EF02DC80154D4F60181936F010F5F5C
:101090001F4F00341105B1F780E691E0E8E3F1E07D
:1010A000DE01AF5DB54E01900D920197E1F78091A1
:1010B000960298E0E0E3F1E0DE01A75FB04D019019
:1010C0000D929A95E1F7A1E2BAE1AC0FBD1FF8E0ED
:1010D0008F9FA00DB11D112498E0FE01E75FF04D38
:1010E00001900D929A95E1F721E23AE12C0F3D1F14
:1010F000280F311DF901E85EFE4F1082B39692E091
:1011000090838F5FC158D44E8883CF57DB4120E650
:1011100031E0FE01EF5DF54EDE01AF53B74E0190B9
:101120000D9221503040D9F7C15ED54E8883CF5102
:10113000DA4180E691E0FE01EF53F74EA8E3B1E01B
:1011400001900D920197E1F70F2EF0E3CF2EF1E021
:10115000DF2EF02DC801ECD3F60181936F010F5FF4
:101160001F4F08341105B1F780E691E0E8E3F1E0A4
:10117000DE01AF59B84E01900D920197E1F78091D1
:10118000960298E0E0E3F1E0DE01AF5FB04D019040
:101190000D929A95E1F7A1E6B7E1AC0FBD1FF8E01B
:1011A0008F9FA00DB11D112498E0FE01EF5FF04D5F
:1011B00001900D929A95E1F721E637E12C0F3D1F42
:1011C000280F311DF901E85EFE4F1082B39692E0C0
:1011D00090838F5FC154D74E8883CF5BD84120E680
:1011E00031E0FE01EF59F84EDE01AF5FB94E0190DC
:1011F0000D9221503040D9F7C15AD84E8883CF552F
:10120000D74180E691E0FE01EF5FF94EA8E3B1E03F
:1012100001900D920197E1F70F2EF0E3CF2EF1E050
:10122000DF2EF02DC80184D3F60181936F010F5F8B
:101230001F4F00351105B1F780E691E0E8E3F1E0DA
:10124000DE01AF55BB4E01900D920197E1F7809101
:10125000960298E0E0E3F1E0DE01A750B14D019085
:101260000D929A95E1F7A1EAB4E1AC0FBD1FF8E049
:101270008F9FA00DB11D112498E0FE01E750F14DA4
:1012800001900D929A95E1F721EA34E12C0F3D1F70
:10129000280F311DF901E85EFE4F1082B39692E0EF
:1012A00090838F5FC150DA4E8883CF5FD54120E6AF
:1012B00031E0FE01EF55FB4EDE01AF5BBC4E01900D
:1012C0000D9221503040D9F7C156DB4E8883CF595B
:1012D000D44180E691E0FE01EF5BFC4EA8E3B1E073
:1012E00001900D920197E1F70F2EF0E3CF2EF1E080
:1012F000DF2EF02DC8011CD3F60181936F010F5F23
:101300001F4F08351105B1F780E691E0E8E3F1E001
:10131000DE01AF51BE4E01900D920197E1F7809131
:10132000960298E0E0E3F1E0DE01AF50B14D0190AC
:101330000D929A95E1F7A1EEB1E1AC0FBD1FF8E077
:101340008F9FA00DB11D112498E0FE01EF50F14DCB
:1013500001900D929A95E1F721EE31E12C0F3D1F9E
:10136000280F311DF901E85EFE4F1082B39692E01E
:1013700090838F5FC15CDC4E8883CF53D34120E6DE
:1013800031E0FE01EF51FE4EDE01AF57BF4E01903E
:101390000D9221503040D9F7C152DE4E8883CF5D87
:1013A000D14180E691E0FE01EF57FF4EA8E3B1E0A6
:1013B00001900D920197E1F70F2EF0E3CF2EF1E0AF
:1013C000DF2EF02DC801B4D2F60181936F010F5FBB
:1013D0001F4F00361105B1F780E691E0E8E3F1E038
:1013E000DE01AF5DB04F01900D920197E1F7809162
:1013F000960298E0E0E3F1E0DE01A751B14D0190E3
:101400000D929A95E1F7A1E2BFE0AC0FBD1FF8E0A5
:101410008F9FA00DB11D112498E0FE01E751F14D01
:1014200001900D929A95E1F721E23FE02C0F3D1FCC
:10143000280F311DF901E85EFE4F1082B39692E04D
:1014400090838F5FC158DF4E8883CF57D04120E60D
:1014500031E0FE01EF5DF04FDE01AF53B24F01907E
:101460000D9221503040D9F7C15ED04F8883CF51C3
:10147000DF4080E691E0FE01EF53F24FA8E3B1E0D8
:1014800001900D920197E1F70F2EF0E3CF2EF1E0DE
:10149000DF2EF02DC8014CD2F60181936F010F5F52
:1014A0001F4F08361105B1F780E691E0E8E3F1E05F
:1014B000DE01AF59B34F01900D920197E1F7809192
:1014C000960298E0E0E3F1E0DE01AF51B14D01900A
:1014D0000D929A95E1F7A1E6BCE0AC0FBD1FF8E0D4
:1014E0008F9FA00DB11D112498E0FE01EF51F14D29
:1014F00001900D929A95E1F721E63CE02C0F3D1FFB
:10150000280F311DF901E85EFE4F1082B39692E07C
:1015100090838F5FC154D24F8883CF5BDD4020E63C
:1015200031E0FE01EF59F34FDE01AF5FB44F0190A0
:101530000D9221503040D9F7C15AD34F8883CF55EF
:10154000DC4080E691E0FE01EF5FF44FA8E3B1E0FC
:1015500001900D920197E1F70F2EF0E3CF2EF1E00D
:10156000DF2EF02DC801E4D1F60181936F010F5FEA
:101570001F4F00371105B1F780E691E0E8E3F1E095
:10158000DE01AF55B64F01900D920197E1F78091C2
:10159000960298E0E0E3F1E0DE01A752B14D019040
:1015A0000D929A95E1F7A1EAB9E0AC0FBD1FF8E002
:1015B0008F9FA00DB11D112498E0FE01E752F14D5F
:1015C00001900D929A95E1F721EA39E02C0F3D1F29
:1015D000280F311DF901E85EFE4F1082B39692E0AC
:1015E00090838F5FC150D54F8883CF5FDA4020E66C
:1015F00031E0FE01EF55F64FDE01AF5BB74F0190D2
:101600000D9221503040D9F7C156D64F8883CF591B
:10161000D94080E691E0FE01EF5BF74FA8E3B1E02F
:1016200001900D920197E1F70F2EF0E3CF2EF1E03C
:10163000DF2EF02DC8017CD1F60181936F010F5F81
:101640001F4F08371105B1F780E691E0E8E3F1E0BC
:10165000DE01AF51B94F01900D920197E1F78091F2
:10166000960298E0E0E3F1E0DE01AF52B14D019067
:101670000D929A95E1F7A1EEB6E0AC0FBD1FF8E030
:101680008F9FA00DB11D112498E0FE01EF52F14D86
:1016900001900D929A95E1F721EE36E02C0F3D1F57
:1016A000280F311DF901E85EFE4F1082B39692E0DB
:1016B00090838F5FC15CD74F8883CF53D84020E69B
:1016C00031E0FE01EF51F94FDE01AF57BA4F019003
:1016D0000D9221503040D9F7C152D94F8883CF5D48
:1016E000D64080E691E0FE01EF57FA4FA8E3B1E063
:1016F00001900D920197E1F70F2EF0E3CF2EF1E06C
:10170000DF2EF02DC80114D1F60181936F010F5F18
:101710001F4F00381105B1F780E691E0E8E3F1E0F2
:10172000DE01AF5DBB4F01900D920197E1F7809113
:10173000960298E0E0E3F1E0DE01A753B14D01909D
:101740000D929A95E1F7A1E2B4E0AC0FBD1FF8E06D
:101750008F9FA00DB11D112498E0FE01E753F14DBC
:1017600001900D929A95E1F721E234E02C0F3D1F94
:10177000280F311DF901E85EFE4F1082B39692E00A
:1017800090838F5FC158DA4F8883CF57D54020E6CA
:1017900031E0FE01EF5DFB4FDE01AF53BD4F019025
:1017A0000D9221503040D9F7C15EDB4F8883CF5175
:1017B000D44080E691E0FE01EF53FD4FA8E3B1E095
:1017C00001900D920197E1F7C801B2D0F701819322
:1017D0007F010F5F1F4F08381105B1F780E691E0D8
:1017E000E8E3F1E0DE01AF59BE4F01900D920197A1
:1017F000E1F78091960298E0E0E3F1E0DE01AF537B
:10180000B14D01900D929A95E1F7A1E6B1E0AC0FD0
:10181000BD1FF8E08F9FA00DB11D112498E0FE01BF
:10182000EF53F14D01900D929A95E1F721E631E0E9
:101830002C0F3D1F280F311DF901E85EFE4F10826D
:10184000B39692E090838F5FC154DD4F8883CF5B66
:10185000D24020E631E0FE01EF59FE4FDE01119645
:1018600001900D9221503040D9F7C15ADE4F888344
:10187000CF55D14080E691E0FE013196A8E3B1E07A
:1018800001900D920197E1F7E0909802F090990293
:1018900000919A0210919B0220919C0230919D022E
:1018A00040919E0250919F026091A0027091A1020E
:1018B000CE01875B904D0E949F018AE0FE01E75BAD
:1018C000F04DA8E9B2E001900D928A95E1F700E6AB
:1018D00011E08DB79EB7805691400FB6F8949EBF29
:1018E0000FBE8DBFADB7BEB71196E8E3F1E0C801FA
:1018F00001900D920197E1F7CE01875B904D0E9418
:101900000A04FE01E75BF04DA8E3B1E0C8010190D5
:101910000D920197E1F70FB6F894DEBF0FBECDBF71
:101920000E94B00362E088E992E00E945202D1CFA7
:10193000F999FECF92BD81BDF89A992780B5089597
:04194000F894FFCF49
:04194400010000009E
:00000001FF
