S00F00007363626F756E642E7372656327
S113000045C0000061C000005FC000005DC000008A
S11300105BC0000059C0000057C0000055C000007C
S113002053C0000051C000004FC000004DC000008C
S11300304BC000001BC1000047C0000045C00000C9
S113004043C0000041C000003FC000003DC00000AC
S11300503BC0000039C0000037C0000035C00000BC
S113006033C0000031C000002FC000002DC00000CC
S11300702BC0000029C0000027C0000025C00000DC
S113008023C0000021C000001FC0000011241FBEB7
S1130090CFEFD0E4DEBFCDBF11E0A0E0B1E0E8E7F0
S11300A0FBE100E00BBF02C007900D92A630B10740
S11300B0D9F722E0A6E0B1E001C01D92AF33B20748
S11300C0E1F776D40C94BA0D9BCF009721F08130E0
S11300D0910549F005C0109207011092060103C072
S11300E081309105C9F5809106019091070101962F
S11300F0909307018093060140910B0150910C01EC
S113010060910D0170910E014F5F5F4F6F4F7F4FF4
S113011040930B0150930C0160930D0170930E01F9
S113012020910001309101012817390798F480913A
S11301300A01811104C081E080930A0104C0813066
S113014011F410920A01109207011092060181E045
S113015090E0089581E090E00895E3E1F1E01182F8
S1130160108284E190E0A0E0B0E082839383A483D2
S1130170B58386839783A087B18787EE92E09387C0
S113018082871586148681E090E0A0E0B0E086873F
S11301909787A08BB18B828B938BA48BB58B85E6D1
S11301A090E0978B868B08958BE0809381008DE798
S11301B090E0909389008093880082E080936F00A0
S11301C010928500109284008091020190910301A5
S11301D0A0910401B091050180930F019093100147
S11301E0A0931101B09312018FB780688FBF089557
S11301F0EF92FF920F931F93CF93DF93C3E1D1E06C
S11302000F2EFBE2EF2EF1E0FF2EF02D8E014E813A
S11302105F81688579858A819B81AC81BD8148171E
S113022059076A077B0758F0EA85FB85888199811D
S11302300995998388831E821F8218861986F8017E
S113024086819781A085B1850196A11DB11D868304
S11302509783A087B1872C96CE15DF05B9F6DF9179
S1130260CF911F910F91FF90EF9008951F920F92DD
S11302700FB60F9211240BB60F922F933F934F9307
S11302805F936F937F938F939F93AF93BF93EF93FA
S1130290FF9380910F0190911001A0911101B091F1
S11302A012010197A109B10980930F0190931001E4
S11302B0A0931101B0931201892B8A2B8B2B89F403
S11302C097DF8091020190910301A0910401B09104
S11302D0050180930F0190931001A0931101B09335
S11302E01201FF91EF91BF91AF919F918F917F91F7
S11302F06F915F914F913F912F910F900BBE0F9093
S11303000FBE0F901F901895CF93DF93CDB7DEB734
S113031060970FB6F894DEBF0FBECDBF29873A872A
S11303204B875C876D877E878F87988BFE01399614
S11303309E012F5E3F4F8FEF8193E217F307E1F7A2
S113034088E0FE013996DE01119601900D928A959E
S1130350E1F729813A814B815C816D817E818F81B6
S1130360988560960FB6F894DEBF0FBECDBFDF91BF
S1130370CF910895EF92FF920F931F93CF93DF9342
S1130380CDB7DEB72A970FB6F894DEBF0FBECDBF48
S1130390BC01E982FA820B831C832D833E834F8345
S11303A05887FE0131969E01275F3F4F9FEF91933F
S11303B0E217F307E1F79981977F9983198683E020
S11303C08A878AE0FE013196DB0101900D928A95BD
S11303D0E1F7CB012A960FB6F894DEBF0FBECDBF6E
S11303E0DF91CF911F910F91FF90EF90089585B900
S11303F0299A15B8089520E030E0E1E0F0E071E0DA
S113040060E0AF01022E02C0440F551F0A94E2F7C8
S11304104823972F09F4962F95B9299A65B92F5F28
S11304203F4F2830310569F784E085B90895CF93AB
S1130430C8E081E0DCDFC150E1F784E085B9CF9109
S11304400895F5DFF4DFF3CF08950F931F93CF934F
S1130450DF93182FC92F062FD42FF3DF51E001C0EB
S1130460550F0A95EAF7E12FFC2F20E030E0C0E0B9
S1130470A1E0B0E09191952349F0CD01022E02C094
S1130480880F991F0A94E2F7C82B09C0BD01022EF8
S113049002C0660F771F0A94E2F76095C6232F5FA8
S11304A03F4F2830310531F7D13071F018F0D23098
S11304B031F00EC0BCDF8C2F9EDFB9DF09C08C2F5A
S11304C09ADFB5DFB4DF04C0B2DFB1DF8C2F93DF76
S11304D0DF91CF911F910F910895CF92DF92FF92F8
S11304E00F931F93CF93DF936C01F62EC0E0D0E0FF
S11304F001E010E098010C2E02C0220F331F0A9471
S1130500E2F72BB94F2D6C2FC6019FDF8FEA94E0E1
S11305100197F1F700C0000094DF2196C830D1059F
S113052049F7DF91CF911F910F91FF90DF90CF900A
S113053008958FEE88B90000309B29C0319B29C0F3
S1130540329B29C0339B29C08FED88B90000309BB2
S113055026C0319B26C0329B26C0339B26C08FEB1E
S113056088B90000309B23C0319B23C0329B23C039
S1130570339B23C08FE788B90000309B20C0319B98
S113058020C0329B20C0339B20C080E0089581E3CB
S1130590089584E3089587E308958AE2089582E341
S11305A0089585E3089588E3089580E3089583E337
S11305B0089586E3089589E3089583E2089581E424
S11305C0089582E4089583E4089584E40895CF931C
S11305D0DF93EC018130910551F08230910509F4EB
S11305E0A1C0892B09F0B4C0C1E0D0E0B1C0A1DF43
S11305F080930801882309F4ABC0843321F5E0918A
S11306003502E73008F093C0EF5FADE2B2E0189630
S1130610EC931897F0E081E090E019960C9002C0FA
S1130620880F991F0A94E2F7DF01A45DBD4F9C91E6
S1130630982B9C93E35DFD4F809590818923808363
S1130640C2E0D0E085C0823319F52091360227300C
S113065008F070C031E0320FEDE2F2E03187E0855E
S1130660F0E0E35DFD4F81E090E0AC0102C0440F97
S1130670551F3A95E2F7409502C0880F991F2A95B5
S1130680E2F79081892B84238083C2E0D0E060C0AC
S1130690853321F5E0913502EE2309F44EC0E15093
S11306A0ADE2B2E01896EC931897F0E081E090E0A8
S11306B019960C9002C0880F991F0A94E2F7DF0183
S11306C0A25DBD4F9C91982B9C93E35DFD4F80955B
S11306D0908189238083C2E0D0E03AC0883381F5D9
S11306E020913602222379F13FEF320FEDE2F2E05E
S11306F03187E085F0E0E35DFD4F81E090E0AC01FF
S113070002C0440F551F3A95E2F7409502C0880F86
S1130710991F2A95E2F79081892B84238083C2E074
S1130720D0E016C006DF882389F003DF11C0C2E0E1
S1130730D0E00EC0C2E0D0E00BC0C2E0D0E008C000
S1130740C2E0D0E005C0C2E0D0E002C0C1E0D0E029
S1130750CE01DF91CF910895CF93DF93CDB7DEB76C
S11307609C0194E19150F1F7CB50DF4F1882C55FA3
S1130770D040CA50DF4F1882C65FD04082EFFE01DE
S11307803596D90101900D928A95E1F7C901DF915F
S1130790CF910895EF92FF920F931F93CF93DF931E
S11307A0CDB7DEB72A970FB6F894DEBF0FBECDBF24
S11307B08091090181113AC0EDE2F2E021E030E0DC
S11307C0018402C0220F331F0A94E2F790912C0295
S11307D0E085F0E048E0949FE00DF11D1124E55C14
S11307E0FE4F9081292319F5E0902D02F0902E02FE
S11307F000912F0210913002209131023091320287
S11308004091330250913402609135027091360266
S1130810CE010196AFDD8AE0FE013196ADE2B2E091
S113082001900D928A95E1F781E001C080E02A965B
S11308300FB6F894DEBF0FBECDBFDF91CF911F91ED
S11308400F91FF90EF9008950F931F93CF93DF9331
S1130850CDB7DEB78C01C950DF4F8881C75FD04068
S1130860811109C082EFFE013796D80101900D92E3
S11308708A95E1F797C0C850DF4F9881C85FD04090
S1130880981728F0C850DF4F1882C85FD040809175
S11308900901811112C0C850DF4F8881C85FD04060
S11308A060E027E030E02C0F3D1F48E0849F200DDE
S11308B0311D1124C90111DE07C0813009F06AC05D
S11308C060E08BE291E009DE80910901811135C07D
S11308D0C850DF4F2881C85FD040E22FF0E0EC59C8
S11308E0FF4FEE0FFF1F87E090E08C0F9D1FE80F76
S11308F0F91F80819181A0E0B0E040910B015091FB
S11309000C0160910D0170910E01481759076A0797
S11309107B0708F43FC081E0809309012F5FC85032
S1130920DF4F2883C85FD04010920B0110920C0156
S113093010920D0110920E012DC0813059F5C8504E
S1130940DF4FE881C85FD040F0E0E05BFF4FEE0F7F
S1130950FF1F27E030E02C0F3D1FE20FF31F8081C3
S11309609181A0E0B0E040910B0150910C016091A5
S11309700D0170910E01481759076A077B0750F063
S11309801092090110920B0110920C0110920D01AA
S113099010920E0182EFFE013796D80101900D925C
S11309A08A95E1F7C801DF91CF911F910F910895C6
S11309B0CF93DF93CDB7DEB7CE59D1420FB6F894BB
S11309C0DEBF0FBECDBF8FEF84B915B88AB91BB88F
S11309D080EF87B98FE088B9C0DB81E090E0A0E0C8
S11309E0B0E08093020190930301A0930401B093BB
S11309F0050180930F0190931001A0931101B0930E
S1130A001201D2DB20913301309134014091350140
S1130A10509136016091370170913801809139010C
S1130A2090913A0171DC03E311E0F80120833183F2
S1130A3042835383648375838683978320912B0138
S1130A4030912C0140912D0150912E0160912F0184
S1130A5070913001809131019091320155DCEBE2CB
S1130A60F1E02083318342835383648375838683D7
S1130A7097834DB75EB7425F51090FB6F8945EBFD6
S1130A800FBE4DBFADB7BEB7119682EFEBE3F1E0F9
S1130A9001900D928A95E1F7CE0183559F4D5CDE5E
S1130AA082EFFE01E355FF4DABE3B1E001900D92FF
S1130AB08A95E1F70FB6F894DEBF0FBECDBF209143
S1130AC033013091340140913501509136016091E8
S1130AD03701709138018091390190913A0114DC09
S1130AE0F8012083428353836483758397833E7F15
S1130AF031838E7F868382EFEBE3F1E0DE01AD5C30
S1130B00B04E01900D928A95E1F70F2EFBE2CF2EA5
S1130B10F2E0DF2EF02DF601208188E0F801DE01FD
S1130B20AB55BF4D01900D928A95E1F7822F90E06D
S1130B30A3E3BFE1AC0FBD1FF8E02F9FA00DB11DD3
S1130B40112438E0FE01EB55FF4D01900D923A95CA
S1130B50E1F7FC01E05BFF4FEE0FFF1F43E35FE1B2
S1130B604C0F5D1FE40FF51F11821082FC01EC593C
S1130B70FF4FEE0FFF1FE40FF51F0F2EF4E1EF2ED2
S1130B80F12CF02DF182E0822F5FCD5DDF4D2883C3
S1130B90C352D04282EFFA01DE01AF5BB14E019045
S1130BA00D928A95E1F7CF5CD04E2883C153DF4183
S1130BB082EFFE01EF5BF14EABE3B1E001900D92E9
S1130BC08A95E1F720913301309134014091350148
S1130BD0509136016091370170913801809139014B
S1130BE090913A0191DBF80120834283538364831B
S1130BF0758397833D7F31838D7F868382EFEBE31B
S1130C00F1E0DE01A15BB24E01900D928A95E1F70D
S1130C10F601208188E0F801DE01A356BF4D019062
S1130C200D928A95E1F7822F90E0AFE4BDE1AC0F1D
S1130C30BD1FF8E02F9FA00DB11D112438E0FE0167
S1130C40E356FF4D01900D923A95E1F7FC01E05B0C
S1130C50FF4FEE0FFF1F4FE45DE14C0F5D1FE40FEC
S1130C60F51F11821082FC01EC59FF4FEE0FFF1F9C
S1130C70E40FF51FF182E0822F5FC15CD14E28831F
S1130C80CF53DE4182EFFA01DE01A35AB34E019045
S1130C900D928A95E1F7C35BD24E2883CD54DD4192
S1130CA082EFFE01E35AF34EABE3B1E001900D9203
S1130CB08A95E1F720913301309134014091350157
S1130CC0509136016091370170913801809139015A
S1130CD090913A0119DBF8012083428353836483A2
S1130CE0758397833B7F31838B7F868382EFEBE32E
S1130CF0F1E0DE01A559B44E01900D928A95E1F719
S1130D00F601208188E0F801DE01AB56BF4D019069
S1130D100D928A95E1F7822F90E0ABE6BBE1AC0F30
S1130D20BD1FF8E02F9FA00DB11D112438E0FE0176
S1130D30EB56FF4D01900D923A95E1F7FC01E05B13
S1130D40FF4FEE0FFF1F4BE65BE14C0F5D1FE40FFF
S1130D50F51F11821082FC01EC59FF4FEE0FFF1FAB
S1130D60E40FF51FF182E0822F5FC55AD34E28832A
S1130D70CB55DC4182EFFA01DE01A758B54E019054
S1130D800D928A95E1F7C759D44E2883C956DB41A1
S1130D9082EFFE01E758F54EABE3B1E001900D920E
S1130DA08A95E1F720913301309134014091350166
S1130DB05091360160913701709138018091390169
S1130DC090913A01A1DAF80120834283538364832A
S1130DD075839783377F3183877F868382EFEBE345
S1130DE0F1E0DE01A957B64E01900D928A95E1F724
S1130DF0F601208188E0F801DE01A357BF4D019080
S1130E000D928A95E1F7822F90E0A7E8B9E1AC0F43
S1130E10BD1FF8E02F9FA00DB11D112438E0FE0185
S1130E20E357FF4D01900D923A95E1F7FC01E05B29
S1130E30FF4FEE0FFF1F47E859E14C0F5D1FE40F12
S1130E40F51F11821082FC01EC59FF4FEE0FFF1FBA
S1130E50E40FF51FF182E0822F5FC958D54E288335
S1130E60C757DA4182EFFA01DE01AB56B74E019063
S1130E700D928A95E1F7CB57D64E2883C558D941B0
S1130E8082EFFE01EB56F74EABE3B1E001900D9219
S1130E908A95E1F720913301309134014091350175
S1130EA05091360160913701709138018091390178
S1130EB090913A0129DAF8012083428353836483B1
S1130EC0758397833F7E31838F7E868382EFEBE346
S1130ED0F1E0DE01AD55B84E01900D928A95E1F72F
S1130EE0F601208188E0F801DE01AB57BF4D019087
S1130EF00D928A95E1F7822F90E0A3EAB7E1AC0F57
S1130F00BD1FF8E02F9FA00DB11D112438E0FE0194
S1130F10EB57FF4D01900D923A95E1F7FC01E05B30
S1130F20FF4FEE0FFF1F43EA57E14C0F5D1FE40F25
S1130F30F51F11821082FC01EC59FF4FEE0FFF1FC9
S1130F40E40FF51FF182E0822F5FCD56D74E288340
S1130F50C359D84182EFFA01DE01AF54B94E019072
S1130F600D928A95E1F7CF55D84E2883C15AD741BF
S1130F7082EFFE01EF54F94EABE3B1E001900D9224
S1130F808A95E1F720913301309134014091350184
S1130F905091360160913701709138018091390187
S1130FA090913A01B1D9F801208342835383648339
S1130FB0758397833F7D31838F7D868382EFEBE357
S1130FC0F1E0DE01A154BA4E01900D928A95E1F749
S1130FD0F601208188E0F801DE01A358BF4D01909D
S1130FE00D928A95E1F7822F90E0AFEBB5E1AC0F5B
S1130FF0BD1FF8E02F9FA00DB11D112438E0FE01A4
S1131000E358FF4D01900D923A95E1F7FC01E05B46
S1131010FF4FEE0FFF1F4FEB55E14C0F5D1FE40F29
S1131020F51F11821082FC01EC59FF4FEE0FFF1FD8
S1131030E40FF51FF182E0822F5FC155D94E28835A
S1131040CF5AD64182EFFA01DE01A353BB4E019081
S11310500D928A95E1F7C354DA4E2883CD5BD541CE
S113106082EFFE01E353FB4EABE3B1E001900D923E
S11310708A95E1F720913301309134014091350193
S11310805091360160913701709138018091390196
S113109090913A0139D9F8012083428353836483C0
S11310A0758397833F7B31838F7B868382EFEBE36A
S11310B0F1E0DE01A552BC4E01900D928A95E1F754
S11310C0F601208188E0F801DE01AB58BF4D0190A4
S11310D00D928A95E1F7822F90E0ABEDB3E1AC0F6E
S11310E0BD1FF8E02F9FA00DB11D112438E0FE01B3
S11310F0EB58FF4D01900D923A95E1F7FC01E05B4E
S1131100FF4FEE0FFF1F4BED53E14C0F5D1FE40F3C
S1131110F51F11821082FC01EC59FF4FEE0FFF1FE7
S1131120E40FF51FF182E0822F5FC553DB4E288365
S1131130CB5CD44182EFFA01DE01A751BD4E019090
S11311400D928A95E1F7C752DC4E2883C95DD341DD
S113115082EFFE01E751FD4EABE3B1E001900D9249
S11311608A95E1F7209133013091340140913501A2
S113117050913601609137017091380180913901A5
S113118090913A01C1D8F801208342835383648348
S1131190758397833F7731838F77868382EFEBE381
S11311A0F1E0DE01A950BE4E01900D928A95E1F75F
S11311B0F601208188E0F801DE01A359BF4D0190BA
S11311C00D928A95E1F7822F90E0A7EFB1E1AC0F81
S11311D0BD1FF8E02F9FA00DB11D112438E0FE01C2
S11311E0E359FF4D01900D923A95E1F7FC01E05B64
S11311F0FF4FEE0FFF1F47EF51E14C0F5D1FE40F50
S1131200F51F11821082FC01EC59FF4FEE0FFF1FF6
S1131210E40FF51FF182E0822F5FC951DD4E288370
S1131220C75ED24182EFFA01DE01AB5FBE4E019090
S11312300D928A95E1F7CB50DE4E2883C55FD141EC
S113124082EFFE01EB5FFE4EABE3B1E001900D9245
S11312508A95E1F7209133013091340140913501B1
S113126050913601609137017091380180913901B4
S113127090913A0149D8F8012083318353836483E0
S1131280868397834F7742837F77758382EFEBE37F
S1131290F1E0DE01AD5EBF4E01900D928A95E1F75B
S11312A0F601208188E0F801DE01AB59BF4D0190C1
S11312B00D928A95E1F7822F90E0A3E1B0E1AC0FA3
S11312C0BD1FF8E02F9FA00DB11D112438E0FE01D1
S11312D0EB59FF4D01900D923A95E1F7FC01E05B6B
S11312E0FF4FEE0FFF1F43E150E14C0F5D1FE40F72
S11312F0F51F11821082FC01EC59FF4FEE0FFF1F06
S1131300E40FF51FF182E0822F5FCD5FDE4E28836C
S1131310C350D14182EFFA01DE01AF5DB04F0190BD
S11313200D928A95E1F7CF5EDF4E2883C151D041FB
S113133082EFFE01EF5DF04FABE3B1E001900D925F
S11313408A95E1F7209133013091340140913501C0
S113135050913601609137017091380180913901C3
S113136090913A010E948401F801208331835383D0
S11313706483868397834F7B42837F7B709338019A
S113138082EFEBE3F1E0DE01A15DB14F01900D923C
S11313908A95E1F7F601208188E0F801DE01A35A7D
S11313A0BF4D01900D928A95E1F7822F90E0AFE254
S11313B0BEE0AC0FBD1FF8E02F9FA00DB11D11249E
S11313C038E0FE01E35AFF4D01900D923A95E1F7A2
S11313D0FC01E05BFF4FEE0FFF1F4FE25EE04C0F9E
S11313E05D1FE40FF51F11821082FC01EC59FF4FC1
S11313F0EE0FFF1FE40FF51FF182E0822F5FC15E45
S1131400D04F2883CF51DF4082EFFA01DE01A35C85
S1131410B24F01900D928A95E1F7C35DD14F2883B5
S1131420CD52DE4082EFFE01E35CF24FABE3B1E06C
S113143001900D928A95E1F72091330130913401A6
S11314404091350150913601609137017091380116
S11314508091390190913A010E948401F80120831E
S1131460318353836483868397834F7D42837F7D57
S1131470758382EFEBE3F1E0DE01A55BB34F0190EE
S11314800D928A95E1F7F601208188E0F801DE01EA
S1131490AB5ABF4D01900D928A95E1F7822F90E0EF
S11314A0ABE4BCE0AC0FBD1FF8E02F9FA00DB11D55
S11314B0112438E0FE01EB5AFF4D01900D923A954C
S11314C0E1F7FC01E05BFF4FEE0FFF1F4BE45CE034
S11314D04C0F5D1FE40FF51F11821082FC01EC59C3
S11314E0FF4FEE0FFF1FE40FF51FF182E0822F5F25
S11314F0C55CD24F2883CB53DD4082EFFA01DE0175
S1131500A75AB44F01900D928A95E1F7C75BD34F68
S11315102883C954DC4082EFFE01E75AF44FABE361
S1131520B1E001900D928A95E1F720913301309159
S11315303401409135015091360160913701709129
S113154038018091390190913A010E948401F80197
S11315502083318353836483868397834F7E4283BE
S11315607F7E758382EFEBE3F1E0DE01A959B54F8D
S113157001900D928A95E1F7F601208188E0F80147
S1131580DE01A35BBF4D01900D928A95E1F7822F96
S113159090E0A7E6BAE0AC0FBD1FF8E02F9FA00DC6
S11315A0B11D112438E0FE01E35BFF4D01900D9263
S11315B03A95E1F7FC01E05BFF4FEE0FFF1F47E6B2
S11315C05AE04C0F5D1FE40FF51F11821082FC01DD
S11315D0EC59FF4FEE0FFF1FE40FF51FF182E0827D
S11315E02F5FC95AD44F2883C755DB4082EFFA01D5
S11315F0DE01AB58B64F01900D928A95E1F7CB59B5
S1131600D54F2883C556DA4082EFFE01EB58F64FDA
S1131610ABE3B1E001900D928A95E1F7209133019B
S11316203091340140913501509136016091370178
S1131630709138018091390190913A010E9484019E
S1131640F801208331835383648386839783477FA0
S11316504283777F758382EFEBE3F1E0DE01AD57E0
S1131660B74F01900D928A95E1F7F601208188E049
S1131670F801DE01AB5BBF4D01900D928A95E1F755
S1131680822F90E0A3E8B8E0AC0FBD1FF8E02F9FD5
S1131690A00DB11D112438E0FE01EB5BFF4D01905C
S11316A00D923A95E1F7FC01E05BFF4FEE0FFF1F4F
S11316B043E858E04C0F5D1FE40FF51F11821082C0
S11316C0FC01EC59FF4FEE0FFF1FE40FF51FF182F1
S11316D0E0822F5FCD58D64F2883C357D94082EF7D
S11316E0FA01DE01AF56B84F01900D928A95E1F7E9
S11316F0CF57D74F2883C158D84082EFFE01EF5609
S1131700F84FABE3B1E001900D928A95E1F7209197
S1131710330130913401409135015091360160918B
S11317203701709138018091390190913A010E94FA
S11317308401F801208331835383648386839783F0
S11317404B7F42837B7F758382EFEBE3F1E0DE0125
S1131750A156B94F01900D928A95E1F7F6012081C7
S113176088E0F801DE01A35CBF4D01900D928A95DB
S1131770E1F7822F90E0AFE9B6E0AC0FBD1FF8E0CF
S11317802F9FA00DB11D112438E0FE01E35CFF4D35
S113179001900D923A95E1F7FC01E05BFF4FEE0FEB
S11317A0FF1F4FE956E04C0F5D1FE40FF51F118238
S11317B01082FC01EC59FF4FEE0FFF1FE40FF51FE1
S11317C0F182E0822F5FC157D84F2883CF58D7408A
S11317D082EFFA01DE01A355BA4F01900D928A956A
S11317E0E1F7C356D94F2883CD59D64082EFFE0185
S11317F0E355FA4FABE3B1E001900D928A95E1F71E
S113180020913301309134014091350150913601DA
S113181060913701709138018091390190913A01BA
S11318200E948401F8012083318353836483868377
S113183097834D7F42837D7F758382EFEBE3F1E0F5
S1131840DE01A554BB4F01900D928A95E1F7F60194
S1131850208188E0F801DE01AB5CBF4D01900D9260
S11318608A95E1F7822F90E0ABEBB4E0AC0FBD1F9B
S1131870F8E02F9FA00DB11D112438E0FE01EB5CB0
S1131880FF4D01900D923A95E1F7FC01E05BFF4FAB
S1131890EE0FFF1F4BEB54E04C0F5D1FE40FF51FE1
S11318A011821082FC01EC59FF4FEE0FFF1FE40F71
S11318B0F51FF182E0822F5FC555DA4F2883CB5A9A
S11318C0D54082EFFA01DE01A753BC4F01900D927F
S11318D08A95E1F7C754DB4F2883C95BD44082EF74
S11318E0FE01E753FC4FABE3B1E001900D928A9502
S11318F0E1F7209133013091340140913501509149
S113190036016091370170913801809139019091CD
S11319103A010E948401F801208331835383648354
S1131920868397834E7F42837E7F758382EFEBE3CA
S1131930F1E0DE01A952BD4F01900D928A95E1F7C5
S1131940F601208188E0F801DE01A35DBF4D01901E
S11319500D928A95E1F7822F90E0A7EDB2E0AC0FEB
S1131960BD1FF8E02F9FA00DB11D112438E0FE012A
S1131970E35DFF4D01900D923A95E1F7FC01E05BC8
S1131980FF4FEE0FFF1F47ED52E04C0F5D1FE40FBA
S1131990F51F11821082FC01EC59FF4FEE0FFF1F5F
S11319A0E40FF51FF182E0822F5FC953DC4F2883D7
S11319B0C75CD34082EFFA01DE01AB51BE4F019008
S11319C00D928A95E1F7CB52DD4F2883C55DD24055
S11319D082EFFE01EB51FE4FABE3B1E001900D92BB
S11319E08A95E1F72091330130913401409135011A
S11319F0509136016091370170913801809139011D
S1131A0090913A010E948401F8012083318342833A
S1131A107583868397831382148282EFEBE3F1E06C
S1131A20DE01AD50BF4F01900D928A95E1F7F601AA
S1131A30208188E0F801DE01AB5DBF4D01900D927D
S1131A408A95E1F7822F90E0A3EFB0E0AC0FBD1FC1
S1131A50F8E02F9FA00DB11D112438E0FE01EB5DCD
S1131A60FF4D01900D923A95E1F7FC01E05BFF4FC9
S1131A70EE0FFF1F43EF50E04C0F5D1FE40FF51F07
S1131A8011821082FC01EC59FF4FEE0FFF1FE40F8F
S1131A90F51FF182E0822F5FCD51DE4F2883C35EB4
S1131AA0D14082EFFA01DE01119601900D928A95E0
S1131AB0E1F7CF50DF4F2883C15FD04082EFFE01B2
S1131AC03196ABE3B1E001900D928A95E1F7E09095
S1131AD02D02F0902E0200912F02109130022091DD
S1131AE031023091320240913302509134026091BC
S1131AF0350270913602CE0183559F4D0E94BA0182
S1131B008AE0FE01E355FF4DADE2B2E001900D9293
S1131B108A95E1F712EF8DB79EB7825F91090FB6F0
S1131B20F8949EBF0FBE8DBFADB7BEB71196EBE361
S1131B30F1E0812F01900D928A95E1F7CE01835552
S1131B409F4D0E942404FE01E355FF4DABE3B1E039
S1131B50812F01900D928A95E1F70FB6F894DEBFBC
S1131B600FBECDBF0E94CA0362E08DE292E00E94E4
S10B1B706D02D1CFF894FFCF00
S1091B78F401010000006D
S9030000FC
